:020000040000FA
:100000000218DCE50B20E1FB1223D04403F50BE4DE
:10001000F0F50D8F1390009DE0F50890011F12017F
:10002000FBD2C5E50B20E1FBAF0822022324E591BA
:1000300054045391FB43910442912202070B900018
:10004000A2E0FEA3E0F5828E83E0229000A2E0FE13
:10005000A3E0FF2404F582E43EF583E0229000A2B1
:10006000E0FEA3E0FFF5828E83A3A322C413131343
:10007000540122022848C2DED2DE22020EA2BB01B7
:100080000689828A83E0225002E722BBFE02E32235
:1000900089828A83E49322BB010CE58229F582E5FB
:1000A000833AF583E0225006E92582F8E622BBFE7A
:1000B00006E92582F8E222E58229F582E5833AF510
:1000C00083E49322BB010689828A83F0225002F7DF
:1000D00022BBFE01F322F8BB010DE58229F582E582
:1000E000833AF583E8F0225006E92582C8F622BB60
:1000F000FE05E92582C8F222C5F0F8A3E028F0C584
:10010000F0F8E582158270021583E038F022BB0119
:1001100010E58229F582E5833AF583E0F5F0A3E066
:10012000225009E92582F886F008E622BBFE0AE99A
:100130002582F8E2F5F008E222E5832AF583E993C7
:10014000F5F0A3E99322F8BB0111E58229F582E5D8
:10015000833AF583E8F0E5F0A3F0225009E925821F
:10016000C8F608A6F022BBFE09E92582C8F2E5F030
:1001700008F222EB9FF5F0EA9E42F0E99D42F0E89A
:100180009C45F022E8600FECC313FCED13FDEE1369
:10019000FEEF13FFD8F122BB010789828A83020197
:1001A000B75005E9F80204A1BBFE05E9F80204AD69
:1001B00089828A830204B9E0FCA3E0FDA3E0FEA3E8
:1001C000E0FF22E0F8A3E0F9A3E0FAA3E0FB22ECD1
:1001D000F0A3EDF0A3EEF0A3EFF022E0FBA3E0FA32
:1001E000A3E0F922F8E0FBA3A3E0F925F0F0E58213
:1001F000158270021583E0FA38F022EBF0A3EAF0E2
:10020000A3E9F022BB010789828A830201DB500542
:10021000E9F80204C9BBFE05E9F80204DB89828A19
:10022000830204EDBB010DE58229F582E5833AF5F1
:10023000830201DB5007E92582F80204C9BBFE07EF
:10024000E92582F80204DBE58229F582E5833AF5A7
:10025000830204EDBB0120E58229F582E5833AF5AE
:1002600083D0F0D0E0F8D0E0F9D0E0FAD0E0FBE8BD
:10027000C0E0C0F00201FB5018E92582F8D083D01D
:1002800082D0E0F9D0E0FAD0E0FBC082C083020463
:10029000D2BBFE18E92582F8D083D082D0E0F9D015
:1002A000E0FAD0E0FBC082C0830204E422D083D015
:1002B00082F8E4937012740193700DA3A393F87401
:1002C0000193F5828883E4737402936860EFA3A3BB
:1002D000A380DFEF4E6012EF60010EEDBB010B89D2
:1002E000828A83F0A3DFFCDEFA2289F05007F70947
:1002F000DFFCA9F022BBFEFCF309DFFCA9F022E73A
:1003000009F608DFFA807BE9D39850F3E92FF9E882
:100310002FF819E718F6DFFA8068E709F208DFFA24
:10032000806080E388828C83E709F0A3DFFA805243
:10033000E309F608DFFA804AE9D398500EE92FF96D
:10034000E82FF819E318F2DFFA8037E309F208DF43
:10035000FA802F88828C83E309F0A3DFFA80238957
:10036000828A83E0A3F608DFFA801789828A83E411
:1003700093A3F208DFF9800A89828A83E0A3F20856
:10038000DFFA02041180B180F980A580C680DC808C
:10039000F180738010808380E98087808780D98096
:1003A000E180BC8073D3E998EA9C5039E92FF5824B
:1003B000EA3BF583E82FF8EC3BFC0582D582021579
:1003C000831582E493C8C582C8CCC583CC0582D589
:1003D000820215831582F0C8C582C8CCC583CCDFE4
:1003E000D9DED7802E89828A83ECFAE493A3C8C52C
:1003F00082C8CCC583CCF0A3C8C582C8CCC583CC89
:10040000DFE9DEE7800D89828A83E493A3F608DFC3
:10041000F9ECFAA9F0EDFB22D3E998EA9C5038E90F
:100420002FF582EA3BF583E82FF8EC3BFC0582D5FB
:10043000820215831582E0C8C582C8CCC583CC056D
:1004400082D5820215831582F0C8C582C8CCC583C7
:10045000CCDFDADED880BC89828A83ECFAE0A3C8DC
:10046000C582C8CCC583CCF0A3C8C582C8CCC5831F
:10047000CCDFEADEE8809C809888F08E83EF600114
:100480000E4E608DED2402B404005085F582EB24FD
:1004900002B4040050E123234582AB8323900385FB
:1004A00073E6FC08E6FD08E6FE08E6FF22E2FC082B
:1004B000E2FD08E2FE08E2FF22E493FC740193FDF2
:1004C000740293FE740393FF22E6FB08E6FA08E643
:1004D000F922EBF608EAF608E9F622E2FB08E2FA6E
:1004E00008E2F922EBF208EAF208E9F222E493FBCF
:1004F000740193FA740293F922E4900006F0A304C5
:10050000F0E4A3F0A3F01220D0E4FBFDFF12238758
:100510007597047597A57A0079211225ADD2AF752C
:1005200097A5E5EF30E3069001307419F07B007A6F
:10053000007921122560E4FBFDFF1223877597A542
:1005400012252994F4EC94014008900000EEF0A3E9
:10055000EFF07F0212259440257F01122594401E62
:1005600090012FE0640160167B017A0079B490005D
:100570000FE4F0A37440F0D2007F021216839001C2
:100580002FE014700302060614700302062A14708A
:1005900003020666240360030206D49000041225B9
:1005A0002C9496EC9400400A900004EEF0A3EFF037
:1005B00080047E007F00EF4E70030206D490000797
:1005C000E0FFB41005E4A3F0800AEFB40106900048
:1005D000087401F0900008E06010900007E020959A
:1005E00005FFFB04800EFD048011900007E02095BC
:1005F00008FFFB14F0E4FD8007FD14F0E0FBE4FFCE
:100600001223870206D49001311201DB120CC4EFD1
:1006100070099001311201DB120AC090012FE064D1
:100620000160030206D4F00206D412253FE4C0079D
:1006300012253F7808120184E4AD07C00512253F5A
:100640007810120184AB07D005D0071223879000E1
:10065000077401F0900002E511F0A3E512F090019B
:100660002F7403F0806EAE11AF129000021225308D
:100670009496EC9400400A900002EEF0A3EFF08014
:10068000047E007F00EF4E603E900007E06025E4AE
:10069000F012253FE4C00712253F7808120184E4D8
:1006A000AD07C00512253F7810120184AB07D005B5
:1006B000D007800A9000077401F0E4FBFDFF1223CD
:1006C00087900006E004F0900006E0B40506E4F030
:1006D00090012FF0900130E0700302053DE4FBFD36
:1006E0007F38122387E4F012252994F4EC9401401A
:1006F0000A900000EEF0A3EFF080047E007F00EF90
:100700004E600302053D7597A580DCC0E0C0F0C0D7
:1007100083C082C0D075D000C000C001C002C00339
:10072000C004C005C006C007E5C054F0F51B30C2C8
:1007300003020826E51B248070030207D024C06052
:100740001424E06003020826E50B54014513F5C2AA
:10075000C2C502082220C107D2C4430B40806CE509
:100760000B30E003020822E50EC3950A501B9001EE
:10077000221201DBAF0E050E12276AE50ED394019B
:100780004024AF1C122621801DE50B30E21DE50937
:10079000C3950C50169001261201DBAF0905091212
:1007A000276AFF122621851CC28077AF140514EF3B
:1007B00014600E14601324027068120846F5C2809B
:1007C00061900129E0F5C28059D2C4530BFD8052DB
:1007D000E50DC39508504185C21C90011F1201DB35
:1007E000850D82758300E51C1200D6E50D7003129D
:1007F000260BE50824FEFFE50DC39F501590012947
:10080000E0FEA3E0FFAD1C121A80900129EEF0A3D8
:10081000EFF0050DD2C1800A120846530BFDC2C18C
:10082000D2C4C2C080051226BFC2C0D007D006D035
:1008300005D004D003D002D001D000D0D0D082D0D7
:1008400083D0F0D0E032900129E0FEA3E0FF121B3C
:1008500003900129EEF0A3EFF0229000A2EEF0A3A6
:10086000EFF0A374FDF012003EFFC41354036003C5
:10087000020917EF12006C20E00302091712003E74
:10088000541F64016003020917A3E024FA60030205
:1008900009A312004BFCA3E04C60030209A38F8262
:1008A0008E83A3A3E0642270287BFF7A287954907A
:1008B00000A2A3E02406120055FEA3E0FFD3942279
:1008C000EE9400400A7C007D227E007F22803E80E4
:1008D0003C9000A2E0FCA3E0FDF5828C83A3A3E0A2
:1008E000642160030209A37BFF7A28799AED24062C
:1008F000F582E43CF583E0FEA3E0FFD39409EE9497
:1009000000400A7C007D097E007F0980009000A9DC
:10091000EEF0A3EF02099612003EFFC413540364E5
:100920000160030209A3EF541F6401707612004BAB
:10093000FCA3E04C706D8F828E83A3E024FE6022C6
:1009400024F8705F12005DA3E07058EF24061200D7
:1009500055FEA3E04E704C12003E12006C20E043A6
:10096000803C12005DE0FCA3E04C7037EF240612DF
:100970000055FEA3E064014E702912003E12006C87
:1009800030E0209000B37418F07B017A0079B390C6
:1009900000A9E4F0A304F0C203E4FF120F7AE4908C
:1009A00000A4F09000A4E0FF22E4FDFC9000A774F6
:1009B000FFF09000F8E064806003020ABA9000FA49
:1009C000E0FAA3E09000A3F0EAFFE46003020A96D5
:1009D000EF24FE602814604A24026003020A969005
:1009E00000A3E06003020A96900116121DE4900134
:1009F000161201DB12007E7C00FD020A969000A315
:100A0000E06003020A96900119121DE49001191288
:100A100001DB90000212010EFAE5F0FFEAFCEFFDA7
:100A2000807490011C1201DB9000A3E0FF75F003BD
:100A3000A4F58285F083120224121DE7EF700CFCEE
:100A40007D04900100E05480F0804B121DD5FF4ED4
:100A5000600AEF64097003EE6404703A9000F5E0F8
:100A6000FF9000A3E0C39F502DA31201DB90000173
:100A70001200977C00FD12007E547FFF900100E081
:100A800054804FFFF09000A5E475F0011200F8EFDC
:100A90004480900100F0ED4C60209000FEE0FEA349
:100AA000E0FFC39DEE9C5004AC06AD079000A4127D
:100AB00001DB122495E49000A7F09000A7E0FF224C
:100AC00090000B1201FB7E007F407D007B017A00CD
:100AD00079121202D390000B1201DB12007E9000FB
:100AE00012F0247F604914604814604E14700302B1
:100AF0000B9024046003020BBE121D5A0B7A00797E
:100B000052A3121D727428F07A00790EA31201FB11
:100B1000E41BFA7D807F0212153478147C00121DCC
:100B2000B27F0F120479900013740FF0020BBE8095
:100B3000009000137401F0020BBE90000B1201DB59
:100B400090000112010EFF900136E5F0F0A3EFF0E6
:100B50009000137401F0FB7A007952122212EF4ECA
:100B6000705CFBFAF9121D600B7A007952A3121D1A
:100B7000727428F01B7A007900A31201FB900136F1
:100B8000E0FAA3E0FBE4FD7F17121534EF602F229B
:100B9000121D5A7A007921A3121D727446F00B7A45
:100BA00000790EA31201FB7B0F7A007D047F4012B7
:100BB000153478127C00121DB27F401204797B013B
:100BC0007A0079127D40121FF722900107E01392FC
:100BD00003900104E0FEA3E0FFC39440EE940040C4
:100BE000047F4080009000A2EFF0A3F0900100E0AD
:100BF000FF547F64017056EF30E721A31201DBC27E
:100C0000057D02E4FF121CE575F002121F2590001D
:100C1000A2E024FEF0900100E0547FF0E49000A4F4
:100C2000F09000A2E0C313FF9000A4E0C39F5038EF
:100C3000121F3A120CBA75F001121F257BFF7A2998
:100C4000790A120CBA9000A4E004F080D49000A2BB
:100C5000121F38C205E4FF121CE59000A2E0FF90CD
:100C60000102E48FF01200F8900107E054FBF090CD
:100C700000A3E0FFFD121F409400FCF0A3EDF04C38
:100C8000701EEF6440601975AE1175AF0AE5AE20B5
:100C9000E7FB121F1EE4900100F0900107F0800BAB
:100CA00075AE1175AF02E5AE20E7FB30030B900087
:100CB000A3121F09FDFF12250D22C2057D01E4FFCD
:100CC000121CE52290000B1201FB12019774FFFB2E
:100CD000FAF9F8C312017360037F002290000B122F
:100CE00001DB90000412009724DE605914700302A7
:100CF0000D80147003020DA324036003020DB07B6A
:100D0000007A0079009000851201FBE4900088F0E1
:100D10001223567F1B121534EF90000B701D122307
:100D20007DA801FCAD0390000F1201DB7E007F2047
:100D300012047912237275F0208005122375F5F0E4
:100D4000120146805790000B12237DFA9000851205
:100D500001FB9000887414F07B001223567F16125A
:100D60001534900012EFF012237275F00112014653
:100D7000EF7F0070027F01900007EF1200D6801C09
:100D800012237275F0011201469000127401F07F77
:100D90000070027F01900007EF1200D67D40121F05
:100DA000F780107F007E007D127C001227B7800341
:100DB0007F00227F0122C2037F011227751227398B
:100DC000501575AE94E5AE20E7FB53AFBFE5AE20FE
:100DD000E703020EA180F61227524003020EA11271
:100DE00028209000A2EFF0900114E06403600EA3AD
:100DF000E04402F09000A374F9F0020E809000A28B
:100E0000E0FDFFC3900113E09F900112E0940050B9
:100E1000139001147401F0A3E04402F09000A37455
:100E2000F2F0805C90010F1201DB7F01121E9090A6
:100E30000115E054FDF09000A2E0FFFD7C00C3909E
:100E40000113E09DF0900112E09CF0900110EC8DF8
:100E5000F01200F8900112E07002A3E06005EF6468
:100E60004060089001147401F0D203E49000A3F0F4
:100E700075AE94E5AE20E7FB53AFFEE5AE20E7FB91
:100E8000900115E030E01A30030354FEF09000A307
:100E9000E0FD9000A2E09001121224387F0212259A
:100EA0000D22C0E0C0F0C083C082C0D075D000C0A9
:100EB00000C001C002C003C004C005C006C00712C4
:100EC000278090009EEFF012278B90009FEFF0128A
:100ED00027969000A0EFF01227A19000A1EFF090CC
:100EE000009EE0FC30E337900107E0FE30E108901F
:100EF0000106E06403600BEE30E20E900106E0B400
:100F0000020790009FE04401F0900115E030E10EEF
:100F1000900114E0B403079000A0E04402F0EC302C
:100F2000E2031221D590009EE030E1031227FC90ED
:100F3000009EE030E0031226CF90009FE030E103F6
:100F40001215DE9000A0E030E103120DB690009F74
:100F5000E030E0031213DD9000A1E0FF122775D00E
:100F600007D006D005D004D003D002D001D000D0E5
:100F7000D0D082D083D0F0D0E0329000A5EFF0A3A3
:100F80001201FB9000ADE5A7F09000A5E060081409
:100F9000600580007FFC229000A5E0FE600B9000C1
:100FA000F6E0640660037FF722EE9000AB121E2D80
:100FB000FF64016009EF7FFEB405027FFB22122867
:100FC000199204121E5A9000A61201DB9000AB1277
:100FD0001E719000A9E0FCA3E0FD8F828E83A3A385
:100FE000A3ECF0A3EDF09000AB121E4C7402F0A243
:100FF00003E4335401FBEF2406121E53E054FE4B6E
:10100000F09000A5E014600C047029900107E04402
:1010100004F08020D3ED9440EC940040047D4080A7
:10102000069000A9A3E0FD9001081201DBD2057F24
:1010300001121CE5300403121E619000ADE0F5A71B
:101040007F00229000A3121DED7004A3E0640260F3
:10105000030211039000FAE07002A3E060030211A2
:10106000039000F8E0FF20E703021103121DF55082
:1010700003021103E4900134F0A3F0EF541F146055
:1010800022146030240270699000FCE07002A3E03A
:10109000705F1228505049900134E04401F0A3E001
:1010A000F08049C39000FDE094019000FCE09400C2
:1010B000503F8038121DD5FF547F4E70099000F6C6
:1010C000E0B4040280269000F6E0B40624EF247F0A
:1010D00060102480701B900114E0B40603121E19E6
:1010E000800A90010DE0B40603121E19E49000A3DB
:1010F000F09000A3E0700C7B017A0179347D02FC52
:101100001224959000A3E0FF229000911201FB9021
:101110000094EDF090009DF07FC0120003900098C5
:10112000EFF0E50B30E6037FFF22E50B30E4057FAF
:1011300006122826900094E0FF900098E0FED39FCE
:10114000502DEEC394044027121DBDEE7E0029F9F8
:10115000EE3AFA90FFFE12010EFAE5F0FFEAFE9079
:101160000129E06E7003A3E06F60087F1580177F90
:10117000168013900098E0B40412121DBD90000177
:10118000120097FF60061228267FFF22121DC3E976
:101190004A4B6027900098E024FDFF121DC3EF1218
:1011A00000C4121DBDE92401F9E43AFAC003C002EB
:1011B000C001121DC3900001120254900098E0FF7C
:1011C0002290001AEFF0A3EDF0A31201FB121DA76D
:1011D000FE2DFDE433FCD3ED9404EC648094804058
:1011E000037FFF22EEC39404504790001AE0FB7A7D
:1011F00000C002C0037B00121D5E0B7A007920A3A1
:10120000121D72121D9CD003D0027F0212126C12AA
:101210001DA7FF7E009000281201DB90001BE07CE0
:101220000029F9EC3AA801FCAD03A31201DB12047A
:101230007990001AE0FB7A00C002C00390002B12E4
:1012400001DB121D8F7B017A007920A3121D72121F
:101250001D9CD003D0027F1212126C12007E600916
:10126000F404FF1228267FFF227F0022E4FD1215DE
:10127000349000281201DB2290000E1201FB7A004C
:101280007916121D847A007918121D84900016E0D8
:1012900054F04403F04480F0A3E0540F44A0F0E481
:1012A000900015F0900015E0FEC3132405FFEE7DBD
:1012B0000030E0027D027A00791612131F900015AB
:1012C000E004F0E0C3941040DB900018E04401F02B
:1012D0004402F054E34410F054DFF0E4900015F0C1
:1012E000900015E0FFC39410502CEFB40F0790004E
:1012F00018E04420F0900015E0FEC3132418FFEE20
:101300007D0030E0027D027A00791812131F9000F0
:1013100015E004F080CA90000E1201DB0219F47B84
:101320000190001F7402F01211C1229000A374FFFB
:10133000F09000FAE0FCA3E0FDEC60030213D7128A
:101340001DDD60030213D79000FEE07002A3E06091
:10135000030213D79000FCE07002A3E070799000C4
:10136000F6E064047032ED4C600F121DC9FF90006E
:10137000FAE07003A3E06F705E121E23121DC9FF16
:101380009000FAE0B4000FA3E0B5070AD2031224DC
:10139000D37F06122158803A121E08703A9000FA44
:1013A000E0FEA3E0FF4E600E121DC9FD7C00EFB50C
:1013B0000525ECB50621121E239000FAE07002A369
:1013C000E0700A7F041221581222868005C203129F
:1013D00024D3E49000A3F09000A3E0FF22E4FF12E6
:1013E00027751227124005122705501C75AE11E40F
:1013F000F5AFE5AE20E7FB75AE1175AF80E5AE2029
:10140000E7FB121F1EE4A3F0122746506D90010760
:10141000E0FF30E3028060900106E06401704890D4
:101420000100F0121F4C7E007FF812085ABFFD1514
:101430009000F8E0FFC41354037005121B7F803A3C
:101440001225F480359000F8E020E72E900106E0A8
:10145000640360269000FEE07002A3E0601C90012F
:1014600007E04408F08013900106E0B4030512176A
:10147000B78007900107E04402F0900106E0B40253
:101480000812271F4003120BCA229000A3121DED61
:101490007002A3E0600302152E121DDD24FE60031E
:1014A00002152E9000FAE07002A3E0600302152EF0
:1014B000121DD5547FFF4E700C121DF54007E490AD
:1014C00000A3F08069C3EF9403EE94005060121EF5
:1014D00008705B9000A3121E0F1227759000FDE0AC
:1014E00030E70B75AE1175AF40E5AE20E7FB90001D
:1014F000FDE020E71875AE94E5AE20E7FB53AFDFC3
:10150000E5AE20E7FB43AF80E5AE20E7FB9000FDB2
:10151000E0247F600E24807015900114E064036065
:101520000D800890010DE0640260037401F09000EA
:10153000A3E0FF22900081EFF0A3EDF0A3EAF0A377
:10154000EBF0E4900090F01226AE900081E0FFA353
:10155000E0FD9000851201DB9000951201FB9000E8
:1015600088E0900098F0900083E0FAA3E0FB12205E
:1015700040BFFF1A7F0A7E007D007C0012219890F8
:101580000090E004F0E0D3940840BF7FFF22900079
:101590008CE0FDA31201DB9000951201FB90008905
:1015A0001201DB121109EFF4702E900090E004F0AC
:1015B000E0D3940540037FFE2212282CEF700A909E
:1015C0000081E0FF12254580C5900081E0FFE4FC2A
:1015D000FDFE12219802154A1227E07F00227F01AA
:1015E00012277512272C501075AE11E4F5AFE5AE39
:1015F00020E70302168280F690010DE0640260038A
:101600000216821224489440EE940040047F4080E9
:10161000009000A2EFF07E00C390010CE09FF090DC
:10162000010BE09EF0900109EE8FF01200F890019E
:101630000EE01392031224489400EE94004022D34B
:10164000EF9440EE940040047D40800690010BA38F
:10165000E0FD9001081201DBD2057F01121CE5803C
:101660000D90010EE054FEF090010D7401F0300376
:10167000119000A2E090010B122438E4FD7F0112CA
:10168000250D2290000C1201FB900013E5A7F0EF4E
:10169000600924FE600580007FFC22EF600B900053
:1016A000F6E0640660037FF722EF900011121E2D12
:1016B000FF64016009EF7FFEB405027FFB22122860
:1016C000199201121E5A90000C1201DB90001112A7
:1016D0001E7190000FE0FDA3E08F828E83A3A3A371
:1016E000CDF0A3EDF0900011121E4C7403F0A20097
:1016F000E4335401FDEF2406121E53E054FE4DF076
:10170000900011E0FEA3E02406121E53E054F7F00F
:10171000300103121E61900013E0F5A77F002290B4
:10172000000C1201FB90000FE5A7F0121E5A1228C0
:1017300053E4FF74F42FF582E43400F583E4F00FF2
:10174000EFB42BEF121E6B120204900116121E68EA
:10175000900003120224900119121E6890000612D4
:10176000022490011C121E6890000912009790003C
:10177000F5F0121E8975A72043B32075A72053B535
:101780007F75AE0175AF08E5AE20E7FB75AE0B7552
:10179000AF0FE5AE20E7FB1225C69000F67403F00C
:1017A000121E6190000FE0F5A775AE0175AF01E55F
:1017B000AE20E7FB7F0022900107E013920312277F
:1017C000AC9000A2EFF0C3900105E09F900104E00F
:1017D00094005010121F1EA3E04402F09000A37466
:1017E000F2F080539000A2121F38E4FF121E909076
:1017F00000A2E0FFFD7C00900102EC8DF01200F8E9
:10180000121F409CFCF0A3EDF0E49000A3F0ED4C1F
:10181000701AEF6440601575AE1175AF48E5AE20E3
:10182000E7FB121F1EA3E054FEF0800B75AE11758E
:10183000AF40E5AE20E7FB30030F9000A3E0FD9042
:1018400000A2121F09FF12250D229000A3121DED08
:101850007002A3E060030218D6121DDD24FE70762C
:10186000121DD5547FFF4E700C121DF54007E490F9
:1018700000A3F08061C3EF9403EE940050589000F1
:10188000FAE07002A3E0704E121E0870499000A3A7
:10189000121E0F1227759000FDE030E70B75AE1198
:1018A00075AF10E5AE20E7FB9000FDE020E7107576
:1018B000AE94E5AE20E7FB43AF20E5AE20E7FB901A
:1018C00000FDE0247F60092480700B9001148003E8
:1018D00090010D7406F09000A3E0FF22787FE4F6FB
:1018E000D8FD7581660219230204F9E493A3F8E494
:1018F00093A34003F68001F208DFF48029E493A368
:10190000F85407240CC8C333C4540F4420C8834080
:1019100004F456800146F6DFE4800B01020408104F
:10192000204080902089E47E019360BCA3FF543F57
:1019300030E509541FFEE493A360010ECF54C02587
:10194000E060A840B8E493A3FAE493A3F8E493A377
:10195000C8C582C8CAC583CAF0A3C8C582C8CAC5DB
:1019600083CADFE9DEE780BEAE07E4FB12277530ED
:101970000513A80674107E00088005C333CE33CE4D
:10198000D8F9FF8013AF0674207E00A807088005F1
:10199000C333CE33CED8F9FFD3ED9FEC9E5004EB8A
:1019A0004480FB300604EB4440FB300421EB442030
:1019B000FB3005034404FB75AE1175AF40E5AE2066
:1019C000E7FB75AE128BAFE5AE30E72780F975AE59
:1019D0001475AF80E5AE20E7FB75AE15AF038FAF92
:1019E000E5AE20E7FB20050B75AE12E4F5AFE5AEE2
:1019F00020E7FB2290001A1201FBE490001FF0A3E5
:101A0000F090001DF090001DE0FFC394045070EFB3
:101A100075F008A4FBAAF0C002C003121D5A900082
:101A20001A121D6C7428F07B017A007921A312012F
:101A3000FBD003D0027D807F02121534E490001E9B
:101A4000F0900021E0FF90001EE0FDC39F5028A30E
:101A5000E0FEA3E0FF9000221201DB8D827583007F
:101A6000120097FD121A8090001FEEF0A3EFF09085
:101A7000001EE004F080CA90001DE004F080862281
:101A8000AB07AA06EB6DFB30E0051223B88003120A
:101A900023C8AA06AB07EB30E0051223B880031277
:101AA00023C8AA06AB07EB30E0051223B880031267
:101AB00023C8AA06AB07EB30E0051223B880031257
:101AC00023C8AA06AB07EB30E0051223B880031247
:101AD00023C8AA06AB07EB30E0051223B880031237
:101AE00023C8AA06AB07EB30E0051223B880031227
:101AF00023C8AA06AB07EB30E0051223B880031217
:101B000023C822AD07AC06EC5455FEED545525E034
:101B1000FBEE33FAEC54AAFEED54AAFFEEC313FE1B
:101B2000EF131223DEFDEC5433FEED54337802C381
:101B300033CE33CED8F9FBAA06EC54CCFEED54CC10
:101B40007802CEC313CE13D8F91223DEFDEC540F66
:101B5000FEED540FC4F8540FC868FBEEC454F048AF
:101B6000FAEC54F0FEED54F0FFEEC4F854F0C868FF
:101B7000FEEFC4540F481223DEFAECFFEAFE22E423
:101B80009000A2F09000F9E01202AD1BAA001BAF7A
:101B9000011BB4031BB9051BBE061BC3081BC809E8
:101BA0001BCD0A1BD20B00001BDC12104380261237
:101BB000148A802112184A801C121BF78017120900
:101BC000A98012121FA3800D12132B800812211658
:101BD000800312224F9000A2EFF080069000A274C2
:101BE000FFF0E4FF1227759000A2E0B4FF03122576
:101BF000F49000A2E0FF229000A374FFF09000FA9E
:101C0000E0FEA3E0FFC39480EE9400505C9000FEE1
:101C1000E07002A3E07052121DDD704D9000FCE0F8
:101C20007002A3E070439000F6E0B4030BEF4E6047
:101C30001D7F0412215880169000F6E0B404149021
:101C400000FAE07002A3E070057F03122158E490CF
:101C500000A3F09000A3E07010F5AE9000FAA3E0AE
:101C60004480F5AFE5AE20E7FB9000A3E0FF2290B3
:101C700000A8EFF0E49000ABF0A3E5A7F09000A877
:101C8000E0FF6005C3940340089000AB74FCF08053
:101C9000421228199204121E5A9000A8E0121E7DCA
:101CA000FEAF01A3121E3B640160289000A8E0244F
:101CB000FE600A04700C7F011222BC80057F0112B5
:101CC00022F09000A9121E4C7401F0EF2406121E9F
:101CD00053E4F0300403121E619000ACE0F5A790CD
:101CE00000ABE0FF229000AEEFF0A3EDF0A31201F5
:101CF000FBE5AE20E7FB9000AEE04420F5AE90009F
:101D0000B0E01460142403601C14602314702A12C1
:101D1000242FAD0112264D802012242FAC02AD01DC
:101D2000122637801412242FAD01122661800A1268
:101D3000242FAC02AD011225DD30051D9000AEE070
:101D4000FFD39400401312277575AE91E5AE20E7DE
:101D5000FB43AF01E5AE20E7FB227B007A00790070
:101D60009000851201FBE4900088F0221201DB90C4
:101D700000891201FB90008C227BFF740190009D72
:101D8000F07FC0227E007F027D007B010202D390A3
:101D900000851201FB9000887404F0227407F07A29
:101DA000007927A30201FB90002B1201FB90001F7A
:101DB000E0227D0190000F1201DB7E002290009155
:101DC0000201DB9000950201DB9001191201DB900A
:101DD00000050200979000FCE0FEA3E0229000F8CE
:101DE000E0541F221201DB9000A40201FB74FFF0FB
:101DF0009000FEE0229000F6E0C3940422D205C2D7
:101E0000067D407C007F01229000F6E0640622F00F
:101E10009000FCA3E0547FFF229001347401F0A3F2
:101E2000E4F0229000FAA3E09000F4F02275F007AD
:101E3000A42401F9740135F0FEAF01F0A3EFF08E98
:101E4000832405F582E43583F583E022E0FEA3E0F8
:101E5000FF2405F582E43EF5832275A71053CEFEDC
:101E60002275A71043CE01221201FB90000C020143
:101E7000DBE0FEA3E0FFF5828E830201FB75F00735
:101E8000A42401F9740135F02275A72053B5F82276
:101E90009000A4EFF09000A61201FB9000A5EDF0D9
:101EA000D39400404CE5AE20E7FB9000A4E0FE4454
:101EB000E0F5AE9000A6E01460152403602324FE34
:101EC000702F9000A5122432AD01AB060224F090D1
:101ED00000A5122432AC02AD019000A4E0FB022464
:101EE000749000A5122432AD019000A4E0FB1224EE
:101EF000B422F582E43CF583E0FCA3E0FAECFFEACF
:101F0000FE9000A2E0FCA3E022E0FB7A0090010436
:101F1000E0FFA3E09000A9CFF0A3EFF0E42290014E
:101F2000067401F022900102E40200F8F582E43C1C
:101F3000F583EEF0A3EFF022E0FD9001010201DB5A
:101F4000C3900105E09DFD900104E0227E007FF832
:101F50009000A2EEF0A3EFF0AA06F97B017D08E461
:101F6000FF121E9075AE1175AF40E5AE20E7FB90F5
:101F700000A2E0FEA3E0F5828E83A3A3121EF8FD6B
:101F8000F5828C83A3A3EEF0A3EFF0ED2404121EE0
:101F9000F2FD2404121F2CED2406121EF224061258
:101FA0001F2C227FFF9000FCE07002A3E07047909E
:101FB00000FAE07002A3E0703D9000FEE07004A320
:101FC000E0640170319000F8E0FE30E729541F70A2
:101FD000259000F6E0B404087BFF7A29790A800D89
:101FE0009000F6E0B4060F7B017A0079F47D017C65
:101FF00000122495E4FF2290007A1201FB90007DEC
:10200000EDF0E4A3F090007A1201DB90007DE0FF98
:102010009000A9E4F0A3EFF0C2037F01120F7AEF62
:10202000601D7F027E007D007C0012219890007E62
:10203000E0FF04F0EFD3941E40CB7F141228262239
:10204000900093EAF0A3EBF0AE05751503900098AD
:10205000E0FD2407F5168F17AF068F18900094E067
:10206000F519900093E0F51A9000951201DB122506
:102070007A7B007A0079157406121D7D1223E5E53E
:102080000B7F0030E6027FFF22040F0000000001FA
:102090001300430122000000010A00010E000108A4
:1020A00000010D0043011F00000043012600000055
:1020B000010C000109004101250042012900000135
:1020C0001400010B004201360000420138015F009C
:1020D00090000BE5A7F01228381228041227C2122C
:1020E000283C1227CC12280B12267512268812269D
:1020F0009B12002E1227D61200761226DE1226EB35
:102100001226F81228401228441228121227EA90A8
:10211000000BE0F5A722121DD5FF7DFFC39401EE51
:1021200094005031A3E07004A3E064017027900094
:10213000FAE07002A3E0701D9000F8E0B481169000
:1021400000F6E0B4060F7BFF7A29790A7D017C0056
:10215000122495E4FDAF05229000A4EFF09000F664
:10216000E09000A5F0C39405400B9000A4E0940516
:1021700050031222869000A4E0FDB40506A3E0906F
:1021800000F7F09000A4E0FE9000F6F09000A5E0CB
:10219000FF6E60031227F3229000911201CFAF125D
:1021A000AE11AD10AC0F9000951201CF90009512BA
:1021B00001C3C3E5129BFFE5119AFEE51099FDE509
:1021C0000F98FC9000911201C3D312017340057562
:1021D00097A580D822121F1E90010D7406F0900161
:1021E00014F075AE0F75AF8FE5AE20E7FB75AE014D
:1021F00075AF01E5AE20E7FB75AE0B75AF0FE5AE31
:1022000020E7FB30B1047F0380027F0112215802D6
:10221000285290007A1201FB121D5A90007A121D6A
:102220006C7424F07B017A00797DA31201FB7B158D
:102230007A00E4FD7F0212153490007E1201DB90DB
:1022400000031200977004FE7F0122E4FEFF227F4C
:10225000FF9000FCA3E0FE9000FAA3E0FDEEC39423
:102260000150229000F6E0B4061B9000FEE07002E0
:10227000A3E07011ED700E121DDDFEBE0107C2035A
:102280001224D3E4FF229000A7E5A7F012281992A8
:1022900003121E5A9000A67401F09000A6E0FFC33E
:1022A0009403500B121C6F9000A6E004F080EB30FA
:1022B0000303121E619000A7E0F5A722122775758F
:1022C000AE1175AF08E5AE20E7FB75AE91E5AE2027
:1022D000E7FBE5AF20E3F375AE1175AF08E5AE207F
:1022E000E7FB75AE91E5AE20E7FBE5AF20E3F32217
:1022F00012277575AE1475AF10E5AE20E7FB75AE0D
:1023000094E5AE20E7FBE5AF20E4F375AE1475AFBE
:1023100010E5AE20E7FB75AE94E5AE20E7FBE5AF38
:1023200020E4F322C0E0C0D075D000C005C006C0D4
:1023300007C2CFE5122401FFE43511FEE43510FD9C
:10234000E4350F8F128E118D10F50FD007D006D007
:1023500005D0D0D0E0327A007921A31201FB9000A1
:102360008C7446F00B7A00790EA31201FBE41BFA81
:10237000FD2290000B1201DB900005E4221201DB2C
:10238000E92407F9E43A22EF600943DC028FEB8F7E
:10239000EC800353DCFDEB600B43DA028BFBAF03F5
:1023A0008FFC800353DAFDED600A43DB028DE9AF59
:1023B000058FEA2253DBFD22EAC313FEEB13FFEE87
:1023C00064A0FEEF6401FF22EAC313FEEB13FF22B9
:1023D000E4900129F0A3F0F514900125E022FFEE2E
:1023E0004AFCEF4B22E50B20E1FB1223D04402F51F
:1023F0000BE4F090009DE0F50A9001221201FBE44D
:10240000F50E8F13D2C5E50B20E1FB22AD07ED449D
:1024100080F5AEE5AE20E7FBAFAFEF7F00FEED1439
:102420004480F5AEE5AE20E7FBADAFEF4DFF229067
:1024300000AFE0FFA30201DBFB7A00E0FFA3E09026
:1024400000A9CFF0A3EFF02290010BE0FEA3E0FF84
:10245000D32202000100000000636F6E6F72707083
:1024600027732075326620746F6B656E2E0D0A001F
:10247000000000008D828C831FEF600BE5AE20E72B
:10248000FBE5AFF0A380F1E5AE20E7FBEB4420F5E0
:10249000AEE5AFF022900106E0B401179001011201
:1024A00001FBAF05900104ECF0A3EFF0A37402F080
:1024B000E4A3F022A8051FEF600BE5AE20E7FBE5E3
:1024C000AFF20880F1E5AE20E7FBEB4420F5AEE586
:1024D000AFF22230030A90010D7401F0900114F064
:1024E000D204121DFD121968C204121DFD021968E2
:1024F000A8051FEF600AE5AE20E7FBA6AF0880F253
:10250000E5AE20E7FBEB4420F5AEA6AF229000A697
:10251000EDF0A3EAF0A3EBF0EFB402097B017A003F
:1025200079B412275EE4FEFF22900000AE11AF12D4
:10253000E0FCA3E0FDC3EF9DFDEE9CFCC3ED22900B
:10254000012B0201B7EF24C060071470087E3280AF
:10255000067E6480027E20AF06E4FCFDFE02219828
:1025600090000B1201FB759707122212EF4E7009B3
:1025700090000B1201DB12127822E50B20E1FBAF79
:10258000058F0C9001261201FBE4F509900125E06E
:102590004404F022EFC394034002D322EF121E7DC5
:1025A000F583E9121E41B40102C322D3227E007FCB
:1025B000467D001202D312284C1227E0D296E490F6
:1025C000012FF0A3F022AFA79001067401F075A7C8
:1025D0002043B38075A72043B3408FA7228D828C00
:1025E00083AE071FEE600CE5AE20E7FBE493F5AF8A
:1025F000A380EE22E4FF1227759001067405F075A2
:10260000AE1175AF60E5AE20E7FB2290011F12010D
:10261000DB12007EFFD3950850038F0822430B1076
:1026200022AD07900129E0FEA3E0FF121A8090017D
:1026300029EEF0A3EFF0228D828C83AE071FEE60AF
:102640000BE5AE20E7FBE0F5AFA380EF22A805AED7
:10265000071FEE600BE5AE20E7FBE6F5AF0880EF65
:1026600022A805AE071FEE600BE5AE20E7FBE2F502
:10267000AF0880EF22E4F5A7F5A9E5A930E7FB75DF
:10268000A903E5A930E7FB22AF885388AF758D30E9
:10269000EF5440FEEF54104E428822E5C8540453D4
:1026A000C8FB75CB4475CA8043C80442C8227BFF6F
:1026B0007A24795690009D7402F07FC00223E5537E
:1026C000C17F43C180C2C5C2C4C2C1530BFD2290A9
:1026D00000F6E0C3940240057F051221582253F70B
:1026E0007F75DA4275FB9675FC962253F77F75DB92
:1026F0004275E99675EA962253F77F75DC4275EBD1
:102700009675EC962275AE91E5AE20E7FBE5AFA29B
:10271000E42275AE91E5AE20E7FBE5AFA2E22275BB
:10272000AE91E5AE20E7FBE5AFA2E12275AE91E503
:10273000AE20E7FBE5AFA2E52275AE94E5AE20E75B
:10274000FBE5AFA2E62275AE91E5AE20E7FBE5AF73
:10275000132275AE94E5AE20E7FBE5AF132290019E
:102760002F7401F09001310201FB8F8275830012FA
:102770000097F51C2275AE0E8FAFE5AE20E7FB2269
:1027800075AE86E5AE20E7FBAFAF2275AE82E5AE53
:1027900020E7FBAFAF2275AE84E5AE20E7FBAFAF1D
:1027A0002275AE8EE5AE20E7FBAFAF2275AE96E5A3
:1027B000AE20E7FBAFAF2290012B1201CF7F0202C8
:1027C0002832E4F5A775A4D075D44C2275E3407582
:1027D000E10575E20322758E1C758921438840222C
:1027E0007A247952121D790223E57BFF7A29790038
:1027F00002171F9000A6EFF0A3EDF0229000F7E083
:10280000FF02215875A72075C6042275A71075C14F
:10281000302275E68175A8A02275A710E5CE132297
:102820007F1712240C22900130EFF022900130E04B
:10283000FF2290012FEFF022E4F5A72275A5632275
:1028400043C19F22439810221226BF32E4F50B2287
:10285000C322222206D0F10901A101092015002678
:10286000FF007508954081020921150026FF0075BB
:102870000895409102C01201000200000040C410FF
:10288000CF8A000101020301090229000101008031
:1028900032090400000203000004092111010001B3
:1028A00022220007058103400005070501034000BF
:1028B0000504030904011A0353696C69636F6E20F0
:1028C0004C61627300011203553246205A65726FE3
:1028D00000012203434146454241424546464646A1
:1028E0004646463200011203553246205A65726F41
:1028F00000FF28B1FF28B5FF28C5FF28D1FF28E534
:0C290000FF2876FF2888FF28F105000062
:00000001FF
