:020000040000FA
:100000000222D2E50B20E1FB1231674403F50BE439
:10001000F0F50D8F139000EAE0F50890021212033C
:10002000EAD2C5E50B20E1FBAF08220230ECE591F6
:1000300054045391FB439104429122021013900007
:10004000F21203EA9000F51203BE9000F51203A627
:10005000C0079000F9E0FBE4FAF9F8D0071202D0EB
:100060009000F51203BE9000F51203A6EC4D4E4F22
:1000700070D82202361FC2DED2DE220217F3E70951
:10008000F608DFFA8046E709F208DFFA803E888248
:100090008C83E709F0A3DFFA8032E309F608DFFA80
:1000A0008078E309F208DFFA807088828C83E309A4
:1000B000F0A3DFFA806489828A83E0A3F608DFFA7E
:1000C000805889828A83E0A3F208DFFA804C80D2CC
:1000D00080FA80C680D4806980F28033801080A648
:1000E00080EA809A80A880DA80E280CA80338982A0
:1000F0008A83ECFAE493A3C8C582C8CCC583CCF04C
:10010000A3C8C582C8CCC583CCDFE9DEE7800D89F2
:10011000828A83E493A3F608DFF9ECFAA9F0EDFBF9
:100120002289828A83ECFAE0A3C8C582C8CCC58341
:10013000CCF0A3C8C582C8CCC583CCDFEADEE8809A
:10014000DB89828A83E493A3F208DFF980CC88F00C
:10015000EF60010E4E60C388F0ED2402B40400503D
:10016000B9F582EB2402B4040050AF232345822367
:100170009000CE73BB010689828A83E0225002E799
:1001800022BBFE02E32289828A83E49322BB010C14
:10019000E58229F582E5833AF583E0225006E925D8
:1001A00082F8E622BBFE06E92582F8E222E58229F2
:1001B000F582E5833AF583E49322BB010689828ABE
:1001C00083F0225002F722BBFE01F322F8BB010D9F
:1001D000E58229F582E5833AF583E8F0225006E9C5
:1001E0002582C8F622BBFE05E92582C8F222C5F0A9
:1001F000F8A3E028F0C5F0F8E582158270021583B7
:10020000E038F022BB010A89828A83E0F5F0A3E09E
:1002100022500687F009E71922BBFE07E3F5F00933
:10022000E3192289828A83E493F5F074019322BB57
:100230000110E58229F582E5833AF583E0F5F0A324
:10024000E0225009E92582F886F008E622BBFE0A82
:10025000E92582F8E2F5F008E222E5832AF583E950
:1002600093F5F0A3E99322F8BB0111E58229F58209
:10027000E5833AF583E8F0E5F0A3F0225009E9259B
:1002800082C8F608A6F022BBFE09E92582C8F2E57D
:10029000F008F22275F008758200EF2FFFEE33FEB2
:1002A000CD33CDCC33CCC58233C5829BED9AEC994E
:1002B000E58298400CF582EE9BFEED9AFDEC99FCF0
:1002C0000FD5F0D6E4CEFBE4CDFAE4CCF9A8822237
:1002D000B800C1B90059BA002DEC8BF084CFCECD57
:1002E000FCE5F0CBF97818EF2FFFEE33FEED33FD90
:1002F000EC33FCEB33FB10D703994004EB99FB0F75
:10030000D8E5E4F9FA227818EF2FFFEE33FEED334B
:10031000FDEC33FCC933C910D7059BE99A4007ECC3
:100320009BFCE99AF90FD8E0E4C9FAE4CCFB22750A
:10033000F010EF2FFFEE33FEED33FDCC33CCC8339E
:10034000C810D7079BEC9AE899400AED9BFDEC9A00
:10035000FCE899F80FD5F0DAE4CDFBE4CCFAE4C878
:10036000F922EB9FF5F0EA9E42F0E99D42F0E89C0D
:1003700045F022E8600FECC313FCED13FDEE13FE15
:10038000EF13FFD8F122BB010789828A830203A6FB
:100390005005E9F80206B2BBFE05E9F80206BE897F
:1003A000828A830206CAE0FCA3E0FDA3E0FEA3E08C
:1003B000FF22E0F8A3E0F9A3E0FAA3E0FB22ECF0CF
:1003C000A3EDF0A3EEF0A3EFF022E0FBA3E0FAA38D
:1003D000E0F922F8E0FBA3A3E0F925F0F0E58215AF
:1003E0008270021583E0FA38F022EBF0A3EAF0A362
:1003F000E9F022BB010789828A830203CA5005E91A
:10040000F80206DABBFE05E9F802071389828A833F
:10041000020735BB010789828A830206FC5006F871
:10042000E9C80206E3BBFE06F8E9C802071C898298
:100430008A83020735BB010DE58229F582E5833AFF
:10044000F5830203CA5007E92582F80206DABBFEEB
:1004500007E92582F8020713E58229F582E5833A48
:10046000F583020735BB0120E58229F582E5833A51
:10047000F583D0F0D0E0F8D0E0F9D0E0FAD0E0FB9E
:10048000E8C0E0C0F00203EA5018E92582F8D08302
:10049000D082D0E0F9D0E0FAD0E0FBC082C0830285
:1004A00006F3BBFE18E92582F8D083D082D0E0F9AC
:1004B000D0E0FAD0E0FBC082C08302072C22D083B8
:1004C000D082F8E4937012740193700DA3A393F893
:1004D000740193F5828883E4737402936860EFA3D8
:1004E000A3A380DFEF4E6012EF60010EEDBB010BA6
:1004F00089828A83F0A3DFFCDEFA2289F05007F7B5
:1005000009DFFCA9F022BBFEFCF309DFFCA9F02205
:10051000E709F608DFFA807BE9D39850F3E92FF971
:10052000E82FF819E718F6DFFA8068E709F208DF24
:10053000FA806080E388828C83E709F0A3DFFA8089
:1005400052E309F608DFFA804AE9D398500EE92F02
:10055000F9E82FF819E318F2DFFA8037E309F20817
:10056000DFFA802F88828C83E309F0A3DFFA8023EF
:1005700089828A83E0A3F608DFFA801789828A835A
:10058000E493A3F208DFF9800A89828A83E0A3F268
:1005900008DFFA02062280B180F980A580C680DCDF
:1005A00080F180738010808380E98087808780D984
:1005B00080E180BC8073D3E998EA9C5039E92FF53B
:1005C00082EA3BF583E82FF8EC3BFC0582D58202FA
:1005D00015831582E493C8C582C8CCC583CC058237
:1005E000D5820215831582F0C8C582C8CCC583CCDC
:1005F000DFD9DED7802E89828A83ECFAE493A3C800
:10060000C582C8CCC583CCF0A3C8C582C8CCC5837D
:10061000CCDFE9DEE7800D89828A83E493A3F608C4
:10062000DFF9ECFAA9F0EDFB22D3E998EA9C503807
:10063000E92FF582EA3BF583E82FF8EC3BFC0582D5
:10064000D5820215831582E0C8C582C8CCC583CC8B
:100650000582D5820215831582F0C8C582C8CCC533
:1006600083CCDFDADED880BC89828A83ECFAE0A30F
:10067000C8C582C8CCC583CCF0A3C8C582C8CCC5C8
:1006800083CCDFEADEE8809C809888F08E83EF6080
:10069000010E4E608DED2402B404005085F582EB0E
:1006A0002402B4040050E123234582AB8323900548
:1006B0009673E6FC08E6FD08E6FE08E6FF22E2FC8B
:1006C00008E2FD08E2FE08E2FF22E493FC740193D5
:1006D000FD740293FE740393FF22E6FB08E6FA081A
:1006E000E6F922FAE6FB0808E625F0F9F618E63AFC
:1006F000FAF622EBF608EAF608E9F622F8E0FBA3A0
:10070000A3E025F0F9F0E582158270021583E03848
:10071000FAF022E2FB08E2FA08E2F922FAE2FB0828
:1007200008E225F0F9F218E23AFAF222EBF208EACE
:10073000F208E9F222E493FB740193FA740293F94C
:1007400022020001000000007369676E6174757217
:10075000652D6465723A2000726561642066616986
:100760006C65640D0A00636F6E666967206372636F
:100770003A00837181018371C10183718371837137
:10078000C171010183718371C1718371837183713F
:1007900083710013003C0013003C0013003C001365
:1007A000003C003C003C0013003C0013003C0013E4
:1007B00000330000312061746563635F7772697490
:1007C000655F656570726F6D206661696C65642038
:1007D00000322061746563635F77726974655F6579
:1007E0006570726F6D206661696C65642000706C65
:1007F00061696E746578743A200077726974696E05
:10080000672074657374206B6579206661696C6517
:10081000640D0A005245414420736C6F74203320EC
:100820006661696C65640D0A00636970686572745D
:100830006578743A200047454E4B455920707562E3
:100840006C6963206661696C65640D0A007075628D
:100850006B65793A20007369676E696E6720696E0F
:100860007075743A20007369676E696E67207061F5
:100870007373207468726F75676820746F20746575
:100880006D706B6579206661696C65640D0A007333
:1008900069676E696E67206661696C65640D0A0040
:1008A00070617373207468726F75676820746F204D
:1008B00074656D706B6579206661696C65640D0A9D
:1008C0000047454E444947206661696C65640D0ADE
:1008D00000505249565752495445206661696C652B
:1008E000640D0A0073657474696E67207570206307
:1008F0006F6E6669672E2E2E0D0A00616C7265613F
:100900006479206C6F636B65640D0A005532465F35
:10091000434F4E4649475F4745545F53455249410F
:100920004C5F4E554D0D0A005532465F434F4E46C3
:1009300049475F4C4F41445F5452414E535F4B45D2
:10094000590D0A006D6173746572206B65793A20E8
:100950000077726974696E67206D617374657220C7
:100960006B6579206661696C65640D0A00553246D5
:100970005F434F4E4649475F49535F4255494C4498
:100980000D0A005532465F434F4E4649475F495373
:100990005F434F4E464947555245440D0A00676F25
:1009A00074206372633A200041544543435F434DD2
:1009B000445F4C4F434B20636F6E666967206661EE
:1009C000696C65640D0A00636F6E66696720616C0F
:1009D0007265616479206C6F636B65640D0A004118
:1009E000544543435F434D445F4C4F434B20646148
:1009F0007461206661696C65640D0A0064617461EC
:100A000020616C7265616479206C6F636B65640D45
:100A10000A005532465F434F4E4649475F47454EB1
:100A20004B45590D0A006B65792069732062797412
:100A3000657320005532465F434F4E4649475F4C31
:100A40004F41445F57524954455F4B45590D0A0089
:100A50005532465F434F4E4649475F4C4F41445FD6
:100A60004154544553545F4B45590D0A006C6F6116
:100A70006420617474657374206B657920666169A4
:100A80006C65640D0A005532465F434F4E46494738
:100A90005F424F4F544C4F414445520D0A0077720C
:100AA0006974696E6720756E6C6F636B6564206234
:100AB0006F6F746C6F61646572206661696C6564E8
:100AC0000D0A00696E76616C696420636F6D6D61FB
:100AD0006E643A2000304490004A1203EA7E007FA0
:100AE000407D007B017A0079511204E41213539087
:100AF0000051F07D4012292E1213531204BE0B1D1B
:100B0000800BA4810BAC820BB8830C65840B4E85E3
:100B10000CA8860CC9870D3B8800000D927BFF7ADC
:100B200009790C1231E91212C21212D4121331E4F3
:100B30001BFA7D807F02121E9878537C001213D717
:100B40007F0F12068A900052740FF0020DA97A09E5
:100B50007928120DAF78187C011212FE7BFF7A09FA
:100B600079441231E91213EE7D2012292E121394CA
:100B7000FB1212E37420F01212D51213317B087AA3
:100B8000007D827F12121E98EF600EE4900052F0FA
:100B90007BFF7A0979511231E912130E7F2012126C
:100BA000F1020DA97BFF7A09796D80067BFF7A0936
:100BB00079831231E9020CC390004A1203CA9000F3
:100BC0000112022FFFAEF090010FEEF0A3EFF01232
:100BD00013947BFF7A09799E9000BFEEF0A3EFF0AB
:100BE0007D01122FB37B017A007993122CC5EF4E51
:100BF0007028FBFAF91212C81212D47428121327A3
:100C000090010FE0FAA3E0FBE4FD7F17121E98EFBE
:100C100060117BFF7A0979A8803F7BFF7A0979C749
:100C20001231E97B017A007993122BE8EF4E702C98
:100C3000FBFAF91212C81212D47428121327900169
:100C40000FE0FAA3E0FB7D817F17121E98EF70037F
:100C5000020DA97BFF7A0979DF0231E97BFF7A096E
:100C600079FC020D727BFF7A0A79121231E91212B5
:100C7000C27A0079211212D97446F00B1213347B18
:100C80000F7A007D047F40121E987BFF7A0A792636
:100C900090004D12137F122ED878517C001213D77A
:100CA0007F4012068A020DA97A0A7934120DAFE943
:100CB0002401F9E43AFA783C7C017D017E007F242E
:100CC00012068A121394020DA97BFF7A0A79501238
:100CD00031E97F241212F190004A1203CA781C7C79
:100CE000011212FE121394FB7A01793C9000BE129D
:100CF00003EA9000C1E4F0A3740FF07A01791812AE
:100D00002B967B017A01793C7D2412292E7B017A76
:100D100001793C9000C01203EA1213F59000C3124F
:100D200003EA1213EE7F0F7E001224E9EF4E607982
:100D30007BFF7A0A796D1231E980697BFF7A0A7943
:100D4000861231E97E007F047DFF1212F51212E156
:100D50007404F01212D51213317B407A007D027FA9
:100D600012121E98EF6010E4900052F07BFF7A0A96
:100D7000799E1231E98032121394FB120DBB7F145D
:100D80007E007D007C00122E5E780076A575EF1245
:100D900080171213539000BFF07BFF7A0A79C37D4E
:100DA00001122ED8E4900052F07B01120DBB227B81
:100DB000FF1231E990004A1203CA227A0079517D6C
:100DC00040122C3322E4900045F0A304F0E4A3F099
:100DD000A3F0F51DF51E122D54E4FBFDFF12311E8C
:100DE0007597047597A57A0079211233DED2AF7515
:100DF00097A57BFF7A3479551231E9E5EF30E306A8
:100E000090022F7419F07B007A0079211230B9E436
:100E1000FBFDFF12311E7597A57F0212330F40258F
:100E20007F0112330F401E90022EE0640160167B9A
:100E3000017A0179A790004EE4F0A37440F0D2004B
:100E40007F02121FE790022EE0147003020ED014EE
:100E50007003020EF4147003020F302403600302C7
:100E60000F9A9000431233289496EC9400400A9015
:100E70000043EEF0A3EFF080047E007F00EF4E70A1
:100E800003020F9A900046E0FFB41005E4A3F0803F
:100E90000AEFB401069000477401F0900047E0604B
:100EA00015900046E0209507FB04F0E4FD801AFD54
:100EB00004F0E4FB8013900046E0209507FB14F05B
:100EC000E4FD8005FD14F0E4FBFF12311E020F9AD1
:100ED0009002301203CA121512EF700990023012FC
:100EE00003CA120AD790022EE064016003020F9A2F
:100EF000F0020F9A12333BE4C00712333B7808121A
:100F00000373E4AD07C00512333B7810120373ABD3
:100F100007D005D00712311E9000467401F09000F2
:100F200041E511F0A3E512F090022E7403F0806AFF
:100F30009000411233289496EC9400400A900041AE
:100F4000EEF0A3EFF080047E007F00EF4E603E9055
:100F50000046E06025E4F012333BE4C00712333B67
:100F60007808120373E4AD07C00512333B78101202
:100F70000373AB07D005D007800A9000467401F0D8
:100F8000E4FBFDFF12311E900045E004F0900045A7
:100F9000E0B40506E4F090022EF090022FE0FF701E
:100FA00003020E167BFF7A3479609000BFE4F0A351
:100FB000EFF07D01122FB3E4FBFD7F3812311EE408
:100FC000FFFE051EE51EAC1D7002051D14F5828C8A
:100FD00083E4F07597A50FBF00010EE4B507E3EEBB
:100FE000B404DFE490022FF0AE11AF1290003F1274
:100FF000332C94F4EC9401400A90003FEEF0A3EF00
:10100000F080047E007F00EF4E6003020E1675979D
:10101000A580D5C0E0C0F0C083C082C0D075D0002C
:10102000C000C001C002C003C004C005C006C007A4
:10103000E5C054F0F51B30C20302112EE51B2480DD
:1010400070030210D824C0601424E0600302112E43
:10105000E50B54014513F5C2C2C502112A20C10790
:10106000D2C4430B40806CE50B30E00302112AE54B
:101070000EC3950A501B9002151203CAAF0E050E3F
:1010800012352CE50ED394014024AF1C12339C8002
:101090001DE50B30E21DE509C3950C5016900219B1
:1010A0001203CAAF09050912352CFF12339C851CA7
:1010B000C28077AF140514EF14600E14601324027D
:1010C000706812115CF5C2806190021CE0F5C2806C
:1010D00059D2C4530BFD8052E50DC395085041858C
:1010E000C21C9002121203CA850D82758300E51C92
:1010F0001201CCE50D7003123386E50824FEFFE5EE
:101100000DC39F501590021CE0FEA3E0FFAD1C1222
:1011100023EA90021CEEF0A3EFF0050DD2C1800A85
:1011200012115C530BFDC2C1D2C4C2C080137BFF3D
:101130007A3479F09000BFE51BF07D01122ED8C201
:10114000C0D007D006D005D004D003D002D001D043
:1011500000D0D0D082D083D0F0D0E03290021CE01A
:10116000FEA3E0FF12246D90021CEEF0A3EFF0222C
:101170009000FEEEF0A3EFF0A374FDF0122FE8FF55
:10118000C4135403600302122DEF12301620E00343
:1011900002122D122FE8541F6401600302122DA3C6
:1011A000E024FA60030212B9122FF5FCA3E04C60B0
:1011B000030212B98F828E83A3A3E0642270287B7E
:1011C000FF7A3679229000FEA3E02406122FFFFE5C
:1011D000A3E0FFD39422EE9400400A7C007D227E9F
:1011E000007F22803E803C9000FEE0FCA3E0FDF505
:1011F000828C83A3A3E0642160030212B97BFF7A8F
:10120000367968ED2406F582E43CF583E0FEA3E040
:10121000FFD39409EE9400400A7C007D097E007F94
:10122000098000900105EEF0A3EF0212AC122FE846
:10123000FFC4135403640160030212B9EF541F6426
:10124000017076122FF5FCA3E04C706D8F828E83B7
:10125000A3E024FE602224F8705F123007A3E07040
:1012600058EF2406122FFFFEA3E04E704C122FE819
:1012700012301620E043803C123007E0FCA3E04C23
:101280007037EF2406122FFFFEA3E064014E702991
:10129000122FE812301630E0209001A67418F07B6F
:1012A000017A0179A6900105E4F0A304F0C203E4F9
:1012B000FF1218CBE4900100F0900100E0FF221231
:1012C00003EA7B007A0079009000D21203EAE490EE
:1012D00000D5F0220B7A007993A31203EA9000D98B
:1012E000227B017A0179189000D21203EA9000D58E
:1012F000227E007D007B017A0179180204E4E92452
:1013000001F9E43AFA7D017E007F2002068A7F20FF
:101310007E007D007B007A0079210204E47A007966
:1013200000A30203EA7446F01B7A007900A30203CB
:10133000EA7428F07A00794DA30203EA7428F07A5F
:101340000079007B01A30203EA9000001203CA9017
:1013500000D62290004A1203CA0201747BFF740176
:101360009000EAF07FC022FF1203CAE92FF9EA35A4
:10137000F0FA900050E0FEC313227BFF900050E093
:101380009000BFF07D01227D017BFF7A0779417FCC
:101390000102068A9000527401F0221203CA8F8261
:1013A00075830002018D7D017B017A00790022A8FE
:1013B00001FC0203CA7428F00B7A0079CAA3020365
:1013C000EA7407F07A007964A30203EA90006812D5
:1013D00003EA90005CE0227D0190004E1203CA7E79
:1013E00000229000DE0203CA9000E20203CA7B01E1
:1013F0007A017918229001140203CAE4FDFC9001DD
:101400000374FFF09001EBE06480600302150C9020
:1014100001EDE0FAA3E09000FFF0EAFFE4600302D0
:1014200014E8EF24FE602814604A240260030214CA
:10143000E89000FFE060030214E89002091227BE62
:101440009002091203CA1201747C00FD0214E89094
:1014500000FFE060030214E890020C1227BE900225
:101460000C1203CA90000212022FFAE5F0FFEAFC08
:10147000EFFD807490020F1203CA9000FFE0FF7529
:10148000F003A4F58285F0831204351227C1EF70B2
:101490000CFC7D049001F3E05480F0804B1227AFE8
:1014A000FF4E600AEF64097003EE6404703A900125
:1014B000E8E0FF9000FFE0C39F502DA31203CA9005
:1014C000000112018D7C00FD120174547FFF900118
:1014D000F3E054804FFFF0900101E475F001120138
:1014E000EEEF44809001F3F0ED4C60209001F1E0CC
:1014F000FEA3E0FFC39DEE9C5004AC06AD07900137
:10150000001203CA12322BE4900103F0900103E0B1
:10151000FF2290004A1203EA90000412018D24DE9B
:10152000605424FE70030215AF249C70030215BCA6
:101530001470030215D8246860030215FD122D0DE6
:10154000E41BFAFD7F1B121E98EF90004A701D12DB
:101550002D40A801FCAD0390004E1203CA7E007F0F
:101560002012068A122D3575F0208005122D38F5CF
:10157000F0120267803290004A122D40FA122D4A72
:101580007414F07B00122D1EE41BFAFD7F16121E50
:1015900098122D3575F001120267EF7F0070027FFF
:1015A00001900007EF1201CC7D40122C3380517F57
:1015B000007E007D127C001235798044122D0D7F53
:1015C0000212160390004E1203CA120174F4703016
:1015D000F876A575EF1280287E007F047D007B00E1
:1015E0007A0079211204E47B007A007921122D4AD5
:1015F0007404F0122D227F1212160380037F002242
:101600007F01227B407A007D02121E98229001FA0F
:10161000E01392039001F7E0FEA3E0FFC39440EED5
:10162000940040047F4080009000FEEFF0A3F09013
:1016300001F3E0FF547F64017056EF30E721A312FD
:1016400003CAC2057D02E4FF1226C875F002122902
:10165000BE9000FEE024FEF09001F3E0547FF0E441
:10166000900100F09000FEE0C313FF900100E0C382
:101670009F50381229D31216FD75F0011229BE7B36
:10168000FF7A3679D81216FD900100E004F080D47C
:101690009000FE1229D1C205E4FF1226C89000FE78
:1016A000E0FF9001F5E48FF01201EE9001FAE054B2
:1016B000FBF09000FFE0FFFD1229D99400FCF0A39D
:1016C000EDF04C701EEF6440601975AE1175AF0AF5
:1016D000E5AE20E7FB1229B7E49001F3F09001FAA0
:1016E000F0800B75AE1175AF02E5AE20E7FB30035D
:1016F0000B9000FF1229A2FDFF1232A322C2057D2A
:1017000001E4FF1226C822C2037F011235371234CA
:10171000E3501575AE94E5AE20E7FB53AFBFE5AEE1
:1017200020E7030217F280F612351440030217F285
:101730001235F19000FEEFF0900207E06403600EB6
:10174000A3E04402F09000FF74F9F00217D190007A
:10175000FEE0FDFFC3900206E09F900205E09400CA
:1017600050139002077401F0A3E04402F09000FFD0
:1017700074F2F0805C9002021203CA7F011228CC3E
:10178000900208E054FDF09000FEE0FFFD7C00C3F5
:10179000900206E09DF0900205E09CF0900203ECC0
:1017A0008DF01201EE900205E07002A3E06005EFFB
:1017B000644060089002077401F0D203E49000FFD7
:1017C000F075AE94E5AE20E7FB53AFFEE5AE20E743
:1017D000FB900208E030E01A30030354FEF0900062
:1017E000FFE0FD9000FEE09002051231CF7F021273
:1017F00032A322C0E0C0F0C083C082C0D075D00048
:10180000C000C001C002C003C004C005C006C007BC
:101810001235429000FAEFF012354D9000FBEFF0D8
:101820001235589000FCEFF01235639000FDEFF098
:101830009000FAE0FC30E3379001FAE0FE30E10876
:101840009001F9E06403600BEE30E20E9001F9E0E4
:10185000B402079000FBE04401F0900208E030E1A0
:101860000E900207E0B403079000FCE04402F0ECA5
:1018700030E203122E9B9000FAE030E1031235C7EC
:101880009000FAE030E0031234799000FBE030E1A0
:1018900003121F429000FCE030E103121707900092
:1018A000FBE030E003121D419000FDE0FF123537F0
:1018B000D007D006D005D004D003D002D001D0008C
:1018C000D0D0D082D083D0F0D0E032900101EFF0C0
:1018D000A31203EA900109E5A7F0900101E0600876
:1018E00014600580007FFC22900101E0FE600B90F7
:1018F00001E9E0640660037FF722EE9001071228F9
:1019000007FF64016009EF7FFEB405027FFB22122E
:1019100035E492041228349001021203CA900107A0
:1019200012284B900105E0FCA3E0FD8F828E83A37B
:10193000A3A3ECF0A3EDF09001071228267402F0A7
:10194000A203E4335401FBEF240612282DE054FED9
:101950004BF0900101E014600C0470299001FAE052
:101960004404F08020D3ED9440EC940040047D408A
:101970008006900105A3E0FD9001FB1203CAD20589
:101980007F011226C830040312283B900109E0F5BC
:10199000A77F00229000571203EAE490005CF0A3B6
:1019A000F090005AF090005AE0FFC3940440030204
:1019B0001A3DEF75F008A4FBAAF0C002C003121292
:1019C000C290005712134C1212DA7428F07B017A7D
:1019D00000795EA31203EAD003D0027D807F021259
:1019E0001E98EF60097BFF7A0779581231E9E4907D
:1019F000005BF090005EE0FF90005BE0FDC39F5055
:101A000025A3E0FEA3E0FF90005F1203CA8D8212BF
:101A100013A0FD1223EA90005CEEF0A3EFF090001B
:101A20005BE004F080CD90005F1203CA90005EE09E
:101A3000FD12292E90005AE004F00219A590005CD6
:101A4000E0FEA3E0FF12246D9000BFEEF0A3EFF0E4
:101A50007BFF7A0779667D01022FB39000FF122782
:101A6000C77004A3E064026003021B1B9001EDE059
:101A70007002A3E06003021B1B9001EBE0FF20E774
:101A800003021B1B1227CF5003021B1BE4900233DF
:101A9000F0A3F0EF541F1460221460302402706928
:101AA0009001EFE07002A3E0705F12361D50499084
:101AB0000233E04401F0A3E0F08049C39001F0E07C
:101AC00094019001EFE09400503F80381227AFFF5F
:101AD000547F4E70099001E9E0B404028026900121
:101AE000E9E0B40624EF247F60102480701B90028C
:101AF00007E0B406031227F3800A900200E0B40660
:101B0000031227F3E49000FFF09000FFE0700C7BDD
:101B1000017A0279337D02FC12322B9000FFE0FF44
:101B2000229000DE1203EA9000E1EDF09000EAF06E
:101B30007FC01200039000E5EFF0E50B30E6037F75
:101B4000FF22E50B30E4057F061235F79000E1E057
:101B5000FF9000E5E0FED39F502DEEC39404402794
:101B60001213E2EE7E0029F9EE3AFA90FFFE12021D
:101B70002FFAE5F0FFEAFE90021CE06E7003A3E08E
:101B80006F60087F1580177F1680139000E5E0B422
:101B900004121213E290000112018DFF600612354B
:101BA000F77FFF221213E8E94A4B60279000E5E037
:101BB00024FDFF1213E8EF1201BA1213E2E9240127
:101BC000F9E43AFAC003C002C0011213E890000120
:101BD0001204659000E5E0FF22900057EFF0A3EDBE
:101BE000F0A31203EA1213CCFE2DFDE433FCD3ED77
:101BF0009404EC6480948040037FFF22EEC394043D
:101C0000504B900057E0FB7A00C002C0037B0012EB
:101C100012C60B7A00795D1212D91213C1D003D00B
:101C200002E4FD7F02121E989000651203CA12138F
:101C3000CCFF7E009000651203CA900058E07C0043
:101C400029F9EC3AAD03A31213AF12068A9000579C
:101C5000E0FB7A00C002C0039000681203CA1212AF
:101C6000E77404F07B017A00795D1212D91213C176
:101C7000D003D002E4FD7F12121E9890006512136B
:101C8000566009F404FF1235F77FFF227F0022908F
:101C900000FF74FFF09001EDE0FCA3E0FDEC6003B9
:101CA000021D3B1227B76003021D3B9001F1E0705B
:101CB00002A3E06003021D3B9001EFE07002A3E08D
:101CC00070799001E9E064047032ED4C600F1227E6
:101CD000A3FF9001EDE07003A3E06F705E1227FD9B
:101CE0001227A3FF9001EDE0B4000FA3E0B5070AAF
:101CF000D2031232697F06122E1E803A1227E2703A
:101D00003A9001EDE0FEA3E0FF4E600E1227A3FD26
:101D10007C00EFB50525ECB506211227FD9001EDFD
:101D2000E07002A3E0700A7F04122E1E122F7D8045
:101D300005C203123269E49000FFF09000FFE0FF5B
:101D400022E4FF1235371234BC40051234AF501C68
:101D500075AE11E4F5AFE5AE20E7FB75AE1175AFDA
:101D600080E5AE20E7FB1229B7E4A3F01235085056
:101D70006D9001FAE0FF30E30280609001F9E064C9
:101D80000170489001F3F0122A967E017FEB121148
:101D900070BFFD159001EBE0FFC4135403700512F2
:101DA0002562803A12336F80359001EBE020E72EF8
:101DB0009001F9E0640360269001F1E07002A3E075
:101DC000601C9001FAE04408F080139001F9E0B43F
:101DD000030512211B80079001FAE04402F09001F4
:101DE000F9E0B402081234C9400312160D22900023
:101DF000FF1227C77002A3E06003021E921227B7EA
:101E000024FE6003021E929001EDE07002A3E060E8
:101E100003021E921227AF547FFF4E700C1227CF81
:101E20004007E49000FFF08069C3EF9403EE940054
:101E300050601227E2705B9000FF1227E9123537DD
:101E40009001F0E030E70B75AE1175AF40E5AE20C4
:101E5000E7FB9001F0E020E71875AE94E5AE20E7CF
:101E6000FB53AFDFE5AE20E7FB43AF80E5AE20E7F5
:101E7000FB9001F0E0247F600E2480701590020733
:101E8000E06403600D8008900200E0640260037467
:101E900001F09000FFE0FF229000CEEFF0A3EDF004
:101EA000A3EAF0A3EBF0E49000DDF01234689000B8
:101EB000CEE0FFA3E0FD9000D21203CA9000E21230
:101EC00003EA9000D5E09000E5F09000D0E0FAA39E
:101ED000E0FB122C7CBFFF1A7F0A7E007D007C0095
:101EE000122E5E9000DDE004F0E0D3940840BF7F46
:101EF000FF229000D9E0FDA31203CA9000E2120372
:101F0000EA9000D61203CA121B21EFF4702E900043
:101F1000DDE004F0E0D3940540037FFE221235FD9E
:101F2000EF700A9000CEE0FF1232DA80C59000CE4A
:101F3000E0FFE4FCFDFE122E5E021EAE1235A27F13
:101F400000227F011235371234D6501075AE11E4DD
:101F5000F5AFE5AE20E703021FE680F6900200E051
:101F600064026003021FE61231DF9440EE940040E9
:101F7000047F4080009000FEEFF07E00C39001FFE0
:101F8000E09FF09001FEE09EF09001FCEE8FF012D9
:101F900001EE900201E01392031231DF9400EE94FF
:101FA000004022D3EF9440EE940040047D40800630
:101FB0009001FEA3E0FD9001FB1203CAD2057F0150
:101FC0001226C8800D900201E054FEF090020074C9
:101FD00001F03003119000FEE09001FE1231CFE4D9
:101FE000FD7F011232A32290004B1203EA900052AF
:101FF000E5A7F0EF600924FE600580007FFC22EF7A
:10200000600B9001E9E0640660037FF722EF900027
:1020100050122807FF64016009EF7FFEB405027FBC
:10202000FB221235E4920112283490004B1203CAAD
:1020300090005012284B90004EE0FDA3E08F828E5E
:1020400083A3A3A3CDF0A3EDF09000501228267433
:1020500003F0A200E4335401FDEF240612282DE022
:1020600054FE4DF0900050E0FEA3E0240612282D0F
:10207000E054F7F030010312283B900052E0F5A73E
:102080007F002290004B1203EA90004EE5A7F01269
:102090002834123621E4FF74E72FF582E43401F589
:1020A00083E4F00FEFB42BEF1228451203F39002F4
:1020B0000912284290000312043590020C122842A3
:1020C00090000612043590020F1228429000091267
:1020D000018D9001E8F012286375A72043B32075A5
:1020E000A72053B57F75AE0175AF08E5AE20E7FBBD
:1020F00075AE0B75AF0FE5AE20E7FB1233419001D3
:10210000E97403F012283B90004EE0F5A775AE018C
:1021100075AF01E5AE20E7FB7F00229001FAE013E6
:10212000920312356E9000FEEFF0C39001F8E09F2D
:102130009001F7E0940050101229B7A3E04402F098
:102140009000FF74F2F080539000FE1229D1E4FF5A
:102150001228CC9000FEE0FFFD7C009001F5EC8D94
:10216000F01201EE1229D99CFCF0A3EDF0E49000EE
:10217000FFF0ED4C701AEF6440601575AE1175AF4D
:1021800048E5AE20E7FB1229B7A3E054FEF0800B30
:1021900075AE1175AF40E5AE20E7FB30030F900040
:1021A000FFE0FD9000FE1229A2FF1232A322900050
:1021B000FF1227C77002A3E0600302223A1227B77A
:1021C00024FE70761227AF547FFF4E700C1227CF7B
:1021D0004007E49000FFF08061C3EF9403EE9400A9
:1021E00050589001EDE07002A3E0704E1227E270AB
:1021F000499000FF1227E91235379001F0E030E7EF
:102200000B75AE1175AF10E5AE20E7FB9001F0E065
:1022100020E71075AE94E5AE20E7FB43AF20E5AEB6
:1022200020E7FB9001F0E0247F60092480700B9090
:10223000020780039002007406F09000FFE0FF2286
:1022400090004D1203EA7BFF7A07797290005112D9
:1022500003EA7A0779939000541203EAE49000505D
:10226000F0900050E0FFC394105053EF75F002A4BB
:10227000A31213672405FFEE7D0030E0027D0212F9
:1022800022C7600A7A0779B412137A122ED8900006
:1022900050E075F002A49000541213672418FFEE6A
:1022A0007D0030E0027D021222C7600A7A0779D1F0
:1022B00012137A122ED8900050E004F080A3900000
:1022C0004D1203CA02199490005C7402F0121BD9DB
:1022D000EF22787FE4F6D8FD758166022319020D9E
:1022E000C5E493A3F8E493A34003F68001F208DF6A
:1022F000F48029E493A3F85407240CC8C333C454CE
:102300000F4420C8834004F456800146F6DFE48081
:102310000B01020408102040809029E5E47E01931F
:1023200060BCA3FF543F30E509541FFEE493A36053
:10233000010ECF54C025E060A840B8E493A3FAE4AE
:1023400093A3F8E493A3C8C582C8CAC583CAF0A3FF
:10235000C8C582C8CAC583CADFE9DEE780BEAE074A
:10236000E4FB123537300513A80674107E00088090
:1023700005C333CE33CED8F9FF8013AF0674207E69
:1023800000A807088005C333CE33CED8F9FFD3EDBC
:102390009FEC9E5004EB4480FB300604EB4440FB72
:1023A000300421EB4420FB3005034404FB75AE11DF
:1023B00075AF40E5AE20E7FB75AE128BAFE5AE30F2
:1023C000E72780F975AE1475AF80E5AE20E7FB75A1
:1023D000AE15AF038FAFE5AE20E7FB20050B75AE62
:1023E00012E4F5AFE5AE20E7FB22AB07AA06EB6DE2
:1023F000FB30E00512314F800312315FAA06AB07B4
:10240000EB30E00512314F800312315FAA06AB07B3
:10241000EB30E00512314F800312315FAA06AB07A3
:10242000EB30E00512314F800312315FAA06AB0793
:10243000EB30E00512314F800312315FAA06AB0783
:10244000EB30E00512314F800312315FAA06AB0773
:10245000EB30E00512314F800312315FAA06AB0763
:10246000EB30E00512314F800312315F22AD07AC33
:1024700006EC5455FEED545525E0FBEE33FAEC54D2
:10248000AAFEED54AAFFEEC313FEEF13123175FD41
:10249000EC5433FEED54337802C333CE33CED8F947
:1024A000FBAA06EC54CCFEED54CC7802CEC313CE7E
:1024B00013D8F9123175FDEC540FFEED540FC4F82A
:1024C000540FC868FBEEC454F048FAEC54F0FEED2B
:1024D00054F0FFEEC4F854F0C868FEEFC4540F483F
:1024E000123175FAECFFEAFE229000BBEEF0A3EF8A
:1024F000F0A31203EA122AEDE4FF9000C012139B2E
:10250000FE9000BD12139B6EFE74212FF8A6060FDD
:10251000EFB424E678457C007D009000C31203CA26
:102520001213077B007A0079211212E77444F0122B
:1025300012D97428F00B7A0079C6A31203EA90002E
:10254000BBE0FAA3E0FB7D407F46121E98EF600ED1
:102550007BFF7A0879D11231E97EFF7FFF22E4FE0A
:10256000FF22E49000FEF09001ECE01204BE258D05
:1025700000259201259703259C0525A10625A6087F
:1025800025AB0925B00A25B50B000025BF121A5B43
:102590008026121DEE80211221AE801C1225DA80C9
:1025A000171213FB8012122B42800D121C8F800811
:1025B000122D9A8003122F469000FEEFF0800690B5
:1025C00000FE74FFF0E4FF1235379000FEE0B4FF28
:1025D0000312336F9000FEE0FF229000FF74FFF0C3
:1025E0009001EDE0FEA3E0FFC39480EE9400505C08
:1025F0009001F1E07002A3E070521227B7704D9085
:1026000001EFE07002A3E070439001E9E0B4030B36
:10261000EF4E601D7F04122E1E80169001E9E0B47B
:1026200004149001EDE07002A3E070057F03122E08
:102630001EE49000FFF09000FFE07010F5AE9001F6
:10264000EDA3E04480F5AFE5AE20E7FB9000FFE0AE
:10265000FF22900104EFF0E4900107F0A3E5A7F05A
:10266000900104E0FF6005C39403400890010774E3
:10267000FCF080421235E49204122834900104E008
:10268000122857FEAF01A31228156401602890019B
:1026900004E024FE600A04700C7F0112301D8005E6
:1026A0007F011230519001051228267401F0EF24A9
:1026B0000612282DE4F030040312283B900108E0B4
:1026C000F5A7900107E0FF2290010AEFF0A3EDF0DB
:1026D000A31203EAE5AE20E7FB90010AE04420F5EF
:1026E000AE90010CE01460142403601C14602314E9
:1026F000702A1231C6AD011233F480201231C6ACFB
:1027000002AD011233C880141231C6AD0112340873
:10271000800A1231C6AC02AD0112335830051D904B
:10272000010AE0FFD39400401312353775AE91E5EE
:10273000AE20E7FB43AF01E5AE20E7FB229000C3EC
:102740001203EA9000C6EDF0E4A3F07597A590009F
:10275000C6E0FF14F0EF604A9000C3E475F0011288
:1027600003D3120174FF900117E0FE04F074602E91
:10277000F582E43401F583EFF0900117E0B440CE28
:102780007B017A0179601212E77440F01212D912BB
:1027900013257B407D017F47121E98E4900117F0BE
:1027A00080AC2290020C1203CA90000502018D90A9
:1027B00001EFE0FEA3E0229001EBE0541F221203A0
:1027C000CA9001000203EA74FFF09001F1E0229048
:1027D00001E9E0C3940422D205C2067D407C007F5B
:1027E00001229001E9E0640622F09001EFA3E05499
:1027F0007FFF229002337401F0A3E4F0229001EDF8
:10280000A3E09001E7F02275F007A424F4F9740125
:1028100035F0FEAF01F0A3EFF08E832405F582E4DE
:102820003583F583E022E0FEA3E0FF2405F582E492
:102830003EF5832275A71053CEFE2275A71043CE16
:1028400001221203EA90004B0203CAE0FEA3E0FF5C
:10285000F5828E830203EA75F007A424F4F974016B
:1028600035F02275A72053B5F8229000F21203EA42
:102870009000F51203BE9000F9E0FFFBE4FAF9F8CE
:10288000122F391202D0AE02AF039002271203CAF0
:102890008F828E8312018DFF9000F21203CA74FFA3
:1028A000F5F0120413EF1201BA122F39C00790008D
:1028B000F9E0FBE4FAF9F8D0071202D09000F51223
:1028C00003BE122F39EC4D4E4F70AB22900100EF3A
:1028D000F09001021203EA900101EDF0D394004060
:1028E0004CE5AE20E7FB900100E0FE44E0F5AE9041
:1028F0000102E01460152403602324FE702F900170
:10290000011231C9AD01AB060232869001011231CC
:10291000C9AC02AD01900100E0FB02320A90010156
:102920001231C9AD01900100E0FB12324A22900041
:10293000C21203EA9000C5EDF0E4A3F09000C5E0F8
:10294000FFA3E0FEC39F503A9000C21203CA8E82DA
:1029500075830012018DC3941050057F301232BF71
:102960009000C21203CA9000C6E0F582758300127F
:10297000018DFFE4FCFDFE1234FC9000C6E004F083
:1029800080BA7BFF7A3379B20231E9F582E43CF513
:1029900083E0FCA3E0FAECFFEAFE9000FEE0FCA37B
:1029A000E022E0FB7A009001F7E0FFA3E090010550
:1029B000CFF0A3EFF0E4229001F97401F02290012E
:1029C000F5E40201EEF582E43CF583EEF0A3EFF0CE
:1029D00022E0FD9001F40203CAC39001F8E09DFDDE
:1029E0009001F7E022040F000000000113004302F1
:1029F00015000000010A00010E00010800010D0091
:102A0000430212000000430219000000010C000103
:102A100009004102180042021C0000011400010BD1
:102A200000430227FF33B541011700410112004165
:102A300001110042010F00004202350176009000B2
:102A4000EA1203BE7B017A02791E9000EF1203EABC
:102A50009000EA1203A6EC33500B9000EF122F1DEA
:102A6000742D1201BA122F249000F9F07B017A0024
:102A700079EF12003E9000EF1203CAE41201BA127D
:102A80002F249000F9F07B017A0079EF12286A90E8
:102A900000EF1203CA227E017FEB9000FEEEF0A34E
:102AA000EFF0AA06F97B017D08E4FF1228CC75AE91
:102AB0001175AF40E5AE20E7FB9000FEE0FEA3E01D
:102AC000F5828E83A3A3122991FDF5828C83A3A3A3
:102AD000EEF0A3EFF0ED240412298BFD240412295B
:102AE000C5ED240612298B24061229C52212130EC5
:102AF0007B007A0079211212E77420F01212D912A9
:102B000013B5E41BFA7D037F16121E98EF60087B55
:102B1000FF7A0879A0801F1212C27A00792112125E
:102B2000D91213B57A007D027F15121E98EF600E40
:102B30007BFF7A0879C11231E97EFF7FFF22E4FE34
:102B4000FF227FFF9001EFE07002A3E07047900149
:102B5000EDE07002A3E0703D9001F1E07004A3E0AD
:102B6000640170319001EBE0FE30E729541F7025BD
:102B70009001E9E0B404087BFF7A3679D8800D90A3
:102B800001E9E0B4060F7B017A0179E77D017C0061
:102B900012322BE4FF229000BB1203EA7F1C1213B7
:102BA00010783D7C007D009000BB1203CA7E007F40
:102BB0002412068A1230859000BE1203CA7D2012AC
:102BC000273D7521467522409000C1A3E0F523E41E
:102BD000F5247525EE752601752723FB7A007921EA
:102BE0007D4012273D022DDC9000BB1212BF9000E9
:102BF000BB12134C1212DA7424F07B017A0079BEF6
:102C0000A31203EA7B157A00E4FD7F02121E98905E
:102C100000BF1203CA9000BEE0FD12292E9000BF33
:102C20001203CA90000212018D7004FE7F0122E49B
:102C3000FEFF229000BB1203EA9000BEEDF0E4A379
:102C4000F09000BB1203CA9000BEE0FF900105E4C3
:102C5000F0A3EFF0C2037F011218CBEF601D7F02DB
:102C60007E007D007C00122E5E9000BFE0FF04F02D
:102C7000EFD3941E40CB7F141235F7229000E0EA88
:102C8000F0A3EBF0AE057515039000E5E0FD240719
:102C9000F5168F17AF068F189000E1E0F519900038
:102CA000E0E0F51A9000E21203CA1232F57B007AD6
:102CB000007915740612136012317CE50B7F003029
:102CC000E6027FFF229000BB1212BF9000BB1213DE
:102CD0004C1212DA7424F07A0079BE1213437B1579
:102CE0007A00E4FD7F02121E989000BF1203CA9082
:102CF00000BEE0FD12292E9000BF1203CA9000030F
:102D000012018D7004FE7F0122E4FEFF227B007A17
:102D10000079009000D21203EAE49000D5F07A0026
:102D20007921A31203EA9000D97446F00B7A007956
:102D30004DA30203EA90004A1203CA900005E42260
:102D40001203CAE92407F9E43A229000D21203EAF6
:102D50009000D52290004AE5A7F01236091235CF2F
:102D600012358412360D12358E1235D612341C12DD
:102D7000342F12344212002E12359812007612347B
:102D8000881234951234A21236111236151235DD1E
:102D90001235AC90004AE0F5A7221227AFFF7DFF65
:102DA000C39401EE94005031A3E07004A3E06401E9
:102DB00070279001EDE07002A3E0701D9001EBE040
:102DC000B481169001E9E0B4060F7BFF7A3679D81A
:102DD0007D017C0012322BE4FDAF0522900112E050
:102DE00070037402F0900112E0FD900117E0FFFB08
:102DF0007A00C002C0037B017A0179601212E7EF0A
:102E0000F01212D97446F07A017913A31203EAD0B2
:102E100003D0027F47121E98E4900112F022900125
:102E200000EFF09001E9E0900101F0C39405400B40
:102E3000900100E094055003122F7D900100E0FD09
:102E4000B40506A3E09001EAF0900100E0FE9001D5
:102E5000E9F0900101E0FF6E60031235BE229000A0
:102E6000DE1203BEAF12AE11AD10AC0F9000E21235
:102E700003BE9000E21203B2C3E5129BFFE5119A74
:102E8000FEE51099FDE50F98FC9000DE1203B2D329
:102E900012036240057597A580D8221229B79002C7
:102EA000007406F0900207F075AE0F75AF8FE5AEB7
:102EB00020E7FB75AE0175AF01E5AE20E7FB75AE0F
:102EC0000B75AF0FE5AE20E7FB30B1047F03800246
:102ED0007F01122E1E0236209000BEEDF01231E965
:102EE0007B017A0079BF9000E71203EA9000BEE010
:102EF000FF14F0EF60169000E7122F1D120174FF0F
:102F0000E4FCFDFE1234FC1235EB80E00235B5E442
:102F100075F0021203D3120204FFAEF022E475F042
:102F2000010203D39000EA1203A69000EEE022E42F
:102F300075F0041203D30203869000F50203A67B0A
:102F4000FF7A3379C6227FFF9001EFA3E0FE900164
:102F5000EDA3E0FDEEC3940150229001E9E0B40638
:102F60001B9001F1E07002A3E07011ED700E1227CA
:102F7000B7FEBE0107C203123269E4FF22900103CB
:102F8000E5A7F01235E4920312283490010274018F
:102F9000F0900102E0FFC39403500B1226529001FF
:102FA00002E004F080EB30030312283B900103E0C1
:102FB000F5A7229000BEEDF01231E97B017A00798D
:102FC000BF9000E71203EA9000BEE0FF14F0EF604C
:102FD000149000E7122F0FE4FCFD1234FC122F3F77
:102FE0001231E980E20235B59000FEE0FEA3E0F583
:102FF000828E83E0229000FEE0FEA3E0FF2404F531
:1030000082E43EF583E0229000FEE0FEA3E0FFF5BF
:10301000828E83A3A322C4131313540122123537C3
:1030200075AE1175AF08E5AE20E7FB75AE91E5AE64
:1030300020E7FBE5AF20E3F375AE1175AF08E5AE11
:1030400020E7FB75AE91E5AE20E7FBE5AF20E3F3AB
:103050002212353775AE1475AF10E5AE20E7FB755B
:10306000AE94E5AE20E7FBE5AF20E4F375AE147552
:10307000AF10E5AE20E7FB75AE94E5AE20E7FBE5CB
:10308000AF20E4F322E4900117F0900112E0FD90EC
:103090000111E0FB7A00C002C0037B001212C60BD4
:1030A0007A0179601212D9121325D003D0027F471A
:1030B000121E98E4900111F02290004A1203EA7562
:1030C000970712199490004A1203CA122CC5EF4EAA
:1030D0007BFF70107A0879E41231E990004A1203FC
:1030E000CA0222407A0879FB1231E922C0E0C0D03E
:1030F00075D000C005C006C007C2CFE5122401FF8D
:10310000E43511FEE43510FDE4350F8F128E118D7C
:1031100010F50FD007D006D005D0D0D0E032EF6048
:103120000943DC028FEB8FEC800353DCFDEB600B7B
:1031300043DA028BFBAF038FFC800353DAFDED60B3
:103140000A43DB028DE9AF058FEA2253DBFD22EA59
:10315000C313FEEB13FFEE64A0FEEF6401FF22EA4F
:10316000C313FEEB13FF22E490021CF0A3F0F5144E
:10317000900218E022FFEE4AFCEF4B22E50B20E123
:10318000FB1231674402F50BE4F09000EAE0F50A27
:103190009002151203EAE4F50E8F13D2C5E50B2059
:1031A000E1FB22AD07ED4480F5AEE5AE20E7FBAFD5
:1031B000AFEF7F00FEED144480F5AEE5AE20E7FBF7
:1031C000ADAFEF4DFF2290010BE0FFA30203CAFB5E
:1031D0007A00E0FFA3E0900105CFF0A3EFF022908A
:1031E00001FEE0FEA3E0FFD3229000EA1203EA9082
:1031F00000EA1203CA120174600F9000EA122F1D38
:10320000120174FF1232BF80E6228D828C831FEF81
:10321000600BE5AE20E7FBE5AFF0A380F1E5AE2063
:10322000E7FBEB4420F5AEE5AFF0229001F9E0B406
:1032300001179001F41203EAAF059001F7ECF0A337
:10324000EFF0A37402F0E4A3F022A8051FEF600BD7
:10325000E5AE20E7FBE5AFF20880F1E5AE20E7FB45
:10326000EB4420F5AEE5AFF22230030A9002007481
:1032700001F0900207F0D2041227D712235EC20495
:103280001227D702235EA8051FEF600AE5AE20E7EC
:10329000FBA6AF0880F2E5AE20E7FBEB4420F5AEDD
:1032A000A6AF22900102EDF0A3EAF0A3EBF0EFB499
:1032B00002097B017A0179A7123520E4FEFF228FF3
:1032C00099E4FF0FEFB4C8FBE4FF0FEFB4C8FBE4D1
:1032D000FF0FEFB4BEFB7597A522EF24C060071463
:1032E00070087E3280067E6480027E20AF06E4FC99
:1032F000FDFE022E5EE50B20E1FBAF058F0C900278
:10330000191203EAE4F509900218E04404F022EFF0
:10331000C394034002D322EF122857F583E9122801
:103320001BB40102C322D322AE11AF12E0FCA3E012
:10333000FDC3EF9DFDEE9CFCC3ED2290022A02032B
:10334000A6AFA79001F97401F075A72043B380756B
:10335000A72043B3408FA7228D828C83AE071FEE38
:10336000600CE5AE20E7FBE493F5AFA380EE22E42A
:10337000FF1235379001F97405F075AE1175AF2065
:10338000E5AE20E7FB229002121203CA120174FF7D
:10339000D3950850038F0822430B1022AD079002EB
:1033A0001CE0FEA3E0FF1223EA90021CEEF0A3EF64
:1033B000F0220D0A00303132333435363738396176
:1033C00062636465660020008D828C83AE071FEE09
:1033D000600BE5AE20E7FBE0F5AFA380EF229000A5
:1033E0004A1203EA1236191235A2D296E490022E3E
:1033F000F0A3F022A805AE071FEE600BE5AE20E7B4
:10340000FBE6F5AF0880EF22A805AE071FEE600BC4
:10341000E5AE20E7FBE2F5AF0880EF22E4F5A7F583
:10342000A9E5A930E7FB75A903E5A930E7FB22AFC1
:10343000885388AF758D30EF5440FEEF54104E42E4
:103440008822E5C8540453C8FB75CB4475CA804331
:10345000C80442C822553246205A45524F0D0A0030
:103460006572726F723A20007BFF7A07794590008F
:10347000EA7402F07FC002317C9001E9E0C394025B
:1034800040057F05122E1E2253F77F75DA4275FB29
:103490009675FC962253F77F75DB4275E99675EABF
:1034A000962253F77F75DC4275EB9675EC96227584
:1034B000AE91E5AE20E7FBE5AFA2E42275AE91E563
:1034C000AE20E7FBE5AFA2E22275AE91E5AE20E7C4
:1034D000FBE5AFA2E12275AE91E5AE20E7FBE5AFDB
:1034E000A2E52275AE94E5AE20E7FBE5AFA2E622A9
:1034F000736D627573206661696C20009000EE74D4
:1035000010F0122A3E0231E975AE91E5AE20E7FBDC
:10351000E5AF132275AE94E5AE20E7FBE5AF1322CD
:1035200090022E7401F09002300203EA8F827583BC
:103530000012018DF51C2275AE0E8FAFE5AE20E7AF
:10354000FB2275AE86E5AE20E7FBAFAF2275AE82FB
:10355000E5AE20E7FBAFAF2275AE84E5AE20E7FB1A
:10356000AFAF2275AE8EE5AE20E7FBAFAF2275AEF2
:1035700096E5AE20E7FBAFAF2290022A1203BE7F92
:1035800002023603E4F5A775A4D075D44C2275E386
:103590004075E10575E20322758E1C75892143880B
:1035A00040227A07794112135C02317C7BFF7A3624
:1035B00079CE0220837BFF7A3379B20231E9900120
:1035C00002EFF0A3EDF0229001EAE0FF022E1E755B
:1035D000A72075C6042275A71075C1302275E68133
:1035E00075A8A02275A710E5CE1322122F3F023135
:1035F000E97F171231A32290022FEFF02290022FC1
:10360000E0FF2290022EEFF022E4F5A72275A563D9
:103610002243C19F2243981022E4F50B22C3223299
:10362000222206D0F10901A1010920150026FF0080
:103630007508954081020921150026FF007508953F
:10364000409102C01201000200000040C410CF8A65
:103650000001010203010902290001010080320971
:1036600004000002030000040921110100012222CC
:10367000000705810340000507050103400005041C
:10368000030904011A0353696C69636F6E204C616E
:10369000627300011203553246205A65726F0001B1
:1036A0002203434146454241424546464646464638
:1036B000463200011203553246205A65726F00FFF0
:1036C000367FFF3683FF3693FF369FFF36B3FF36D4
:0A36D00044FF3656FF36BF05000028
:00000001FF
