:020000040000FA
:10000000021AA4E50B20E1FB1228174403F50BE4C8
:10001000F0F50D8F139000AAE0F5089001C31202CD
:10002000D1D2C5E50B20E1FBAF082202276BE59199
:1000300054045391FB439104429122020AFF900021
:10004000AFE0FEA3E0F5828E83E0229000AFE0FEF9
:10005000A3E0FF2404F582E43EF583E0229000AFA4
:10006000E0FEA3E0FFF5828E83A3A322C413131343
:10007000540122022C6BC2DED2DE2202106EE7098E
:10008000F608DFFA8046E709F208DFFA803E888248
:100090008C83E709F0A3DFFA8032E309F608DFFA80
:1000A0008078E309F208DFFA807088828C83E309A4
:1000B000F0A3DFFA806489828A83E0A3F608DFFA7E
:1000C000805889828A83E0A3F208DFFA804C80D2CC
:1000D00080FA80C680D4806980F28033801080A648
:1000E00080EA809A80A880DA80E280CA80338982A0
:1000F0008A83ECFAE493A3C8C582C8CCC583CCF04C
:10010000A3C8C582C8CCC583CCDFE9DEE7800D89F2
:10011000828A83E493A3F608DFF9ECFAA9F0EDFBF9
:100120002289828A83ECFAE0A3C8C582C8CCC58341
:10013000CCF0A3C8C582C8CCC583CCDFEADEE8809A
:10014000DB89828A83E493A3F208DFF980CC88F00C
:10015000EF60010E4E60C388F0ED2402B40400503D
:10016000B9F582EB2402B4040050AF232345822367
:100170009000CE73BB010689828A83E0225002E799
:1001800022BBFE02E32289828A83E49322BB010C14
:10019000E58229F582E5833AF583E0225006E925D8
:1001A00082F8E622BBFE06E92582F8E222E58229F2
:1001B000F582E5833AF583E49322BB010689828ABE
:1001C00083F0225002F722BBFE01F322F8BB010D9F
:1001D000E58229F582E5833AF583E8F0225006E9C5
:1001E0002582C8F622BBFE05E92582C8F222C5F0A9
:1001F000F8A3E028F0C5F0F8E582158270021583B7
:10020000E038F022BB0110E58229F582E5833AF55A
:1002100083E0F5F0A3E0225009E92582F886F00892
:10022000E622BBFE0AE92582F8E2F5F008E222E5C3
:10023000832AF583E993F5F0A3E99322F8BB011132
:10024000E58229F582E5833AF583E8F0E5F0A3F04D
:10025000225009E92582C8F608A6F022BBFE09E96A
:100260002582C8F2E5F008F222EB9FF5F0EA9E4203
:10027000F0E99D42F0E89C45F022E8600FECC313E2
:10028000FCED13FDEE13FEEF13FFD8F122E0FCA30B
:10029000E0FDA3E0FEA3E0FF22E0F8A3E0F9A3E085
:1002A000FAA3E0FB22ECF0A3EDF0A3EEF0A3EFF055
:1002B00022E0FBA3E0FAA3E0F922F8E0FBA3A3E02D
:1002C000F925F0F0E582158270021583E0FA38F026
:1002D00022EBF0A3EAF0A3E9F022BB010789828AAE
:1002E000830202B15005E9F8020577BBFE05E9F883
:1002F00002058989828A8302059BBB010DE582295B
:10030000F582E5833AF5830202B15007E92582F8C8
:10031000020577BBFE07E92582F8020589E58229F7
:10032000F582E5833AF58302059BBB0120E582292E
:10033000F582E5833AF583D0F0D0E0F8D0E0F9D04B
:10034000E0FAD0E0FBE8C0E0C0F00202D15018E9CA
:100350002582F8D083D082D0E0F9D0E0FAD0E0FB5B
:10036000C082C083020580BBFE18E92582F8D083D5
:10037000D082D0E0F9D0E0FAD0E0FBC082C08302A6
:10038000059222D083D082F8E493701274019370A6
:100390000DA3A393F8740193F5828883E473740228
:1003A000936860EFA3A3A380DFEF4E6012EF6001BC
:1003B0000EEDBB010B89828A83F0A3DFFCDEFA22FB
:1003C00089F05007F709DFFCA9F022BBFEFCF30916
:1003D000DFFCA9F022E709F608DFFA807BE9D39871
:1003E00050F3E92FF9E82FF819E718F6DFFA8068DB
:1003F000E709F208DFFA806080E388828C83E709EE
:10040000F0A3DFFA8052E309F608DFFA804AE9D365
:1004100098500EE92FF9E82FF819E318F2DFFA8067
:1004200037E309F208DFFA802F88828C83E309F032
:10043000A3DFFA802389828A83E0A3F608DFFA80AB
:100440001789828A83E493A3F208DFF9800A8982FC
:100450008A83E0A3F208DFFA0204E780B180F98022
:10046000A580C680DC80F180738010808380E98065
:1004700087808780D980E180BC8073D3E998EA9C2B
:100480005039E92FF582EA3BF583E82FF8EC3BFC85
:100490000582D5820215831582E493C8C582C8CC33
:1004A000C583CC0582D5820215831582F0C8C5822A
:1004B000C8CCC583CCDFD9DED7802E89828A83EC75
:1004C000FAE493A3C8C582C8CCC583CCF0A3C8C541
:1004D00082C8CCC583CCDFE9DEE7800D89828A83C0
:1004E000E493A3F608DFF9ECFAA9F0EDFB22D3E9D7
:1004F00098EA9C5038E92FF582EA3BF583E82FF81B
:10050000EC3BFC0582D5820215831582E0C8C582CA
:10051000C8CCC583CC0582D5820215831582F0C86C
:10052000C582C8CCC583CCDFDADED880BC89828A9C
:1005300083ECFAE0A3C8C582C8CCC583CCF0A3C8BD
:10054000C582C8CCC583CCDFEADEE8809C80988871
:10055000F08E83EF60010E4E608DED2402B4040036
:100560005085F582EB2402B4040050E12323458238
:10057000AB832390045B73E6FB08E6FA08E6F922F6
:10058000EBF608EAF608E9F622E2FB08E2FA08E2EE
:10059000F922EBF208EAF208E9F222E493FB740193
:1005A00093FA740293F92290000A1202D17F407AE2
:1005B000007911120CBB120174900011F012038328
:1005C00005DF80064981064C82064F8306C88406F3
:1005D000078506F386071087076988000007A412BD
:1005E0000C4E120C60120CCAE41BFA7D807F0212C2
:1005F00016FC78137C00120D5A7F0F12054F9000E5
:1006000012740FF00207A9120CC478C97C00120CF6
:1006100097120D17FB120C7A7420F0120C61120C59
:10062000CA7B087A007D827F121216FCEF6005E417
:10063000900012F0120C887E007F207D007B017AF2
:100640000079C91203A90207A902070A02070A12C0
:100650000CC4900001120204FF9000C0E5F0F0A36A
:10066000EFF0120D17FB7A007953122628EF4E7027
:1006700023FBFAF9120C54120C607428120CB1907E
:1006800000C0E0FAA3E0FBE4FD7F171216FCEF6068
:10069000030207AE7B017A0079531225EBEF4E601F
:1006A000030207A9FBFAF9120C54120C6074281209
:1006B0000CB19000C0E0FAA3E0FB7D817F17121619
:1006C000FCEF70030207A922120C4E7A0079211266
:1006D0000C657446F00B120CCD7B0F7A007D047F05
:1006E000401216FC78117C00120D5A7F4012054F03
:1006F0000207A9120CC4E92401F9E43AFA78ED7C66
:10070000007D017E007F2412054F120D170207A9FC
:100710007F247A0079C9120CBB78CD7C00120C972B
:10072000120D17FB7A0079ED90007E1202D1900035
:1007300081E4F0A3740FF07A0079C91222F27B01F0
:100740007A0079ED9000801202D19000C51202B1BA
:100750009000831202D17B017A0079C97F0F7E005D
:10076000121F9BEF4E6042803B7F047DFF120C6D99
:100770007404F0120C61120CCA7B407A007D027F77
:10078000121216FCEF6002801B120D17FB1207AF4E
:100790007F147E007D007C00122571780076A5759F
:1007A000EF128005E4900012F07B011207AF227A6D
:1007B0000079117D4012238F22E4900006F0A304FB
:1007C000F0E4A3F0A3F0F51DF51E122421E4FBFDD7
:1007D000FF1227CE7597047597A57A007921122A02
:1007E00064D2AF7597A57B007A007921122899E42D
:1007F000FBFDFF1227CE7597A57F021229C4402565
:100800007F011229C4401E9001D3E0640160167B71
:10081000017A01795890000EE4F0A37440F0D20000
:100820007F0212184B9001D3E014607C1470030215
:1008300008CC1470030209082403600302096D90B8
:10084000000412291B400A900004EEF0A3EFF08090
:10085000047E007F00EF4E700302096D900007E0F8
:10086000FFB41005E4A3F0800AEFB401069000087D
:100870007401F0900008E06015900007E0209507F3
:10088000FB04F0E4FD801AFD04F0E4FB801390000B
:1008900007E0209507FB14F0E4FD8005FD14F0E46B
:1008A000FBFF1227CE02096D9001D51202B112147E
:1008B000F3EF70099001D51202B11205A79001D390
:1008C000E06401600302096DF002096D122933E44E
:1008D000C007122933780812027AE4AD07C0051266
:1008E0002933781012027AAB07D005D0071227CE31
:1008F0009000077401F0900002E511F0A3E512F0FA
:100900009001D37403F0806590000212291B400A05
:10091000900002EEF0A3EFF080047E007F00EF4E27
:10092000603E900007E06025E4F0122933E4C00740
:10093000122933780812027AE4AD07C00512293370
:10094000781012027AAB07D005D007800A90000712
:100950007401F0E4FBFDFF1227CE900006E004F0E6
:10096000900006E0B40506E4F09001D3F09001D4C5
:10097000E070030207F6E4FBFD7F381227CEE49017
:100980000004F0A3F0051EE51EAE1D7002051D1447
:10099000F5828E83E4F07597A590000475F001123E
:1009A00001EE900004E0B404DCA3E0B400D780FEC4
:1009B0009000AFEEF0A3EFF0A374FDF012003EFF45
:1009C000C41354036003020A6DEF12006C20E003AD
:1009D000020A6D12003E541F64016003020A6DA3F7
:1009E000E024FA6003020AF912004BFCA3E04C6019
:1009F00003020AF98F828E83A3A3E0642270287B0E
:100A0000FF7A2C796E9000AFA3E02406120055FE09
:100A1000A3E0FFD39422EE9400400A7C007D227E66
:100A2000007F22803E803C9000AFE0FCA3E0FDF51B
:100A3000828C83A3A3E064216003020AF97BFF7A1E
:100A40002C79B4ED2406F582E43CF583E0FEA3E0C6
:100A5000FFD39409EE9400400A7C007D097E007F5C
:100A60000980009000B6EEF0A3EF020AEC12003EFF
:100A7000FFC413540364016003020AF9EF541F64B6
:100A800001707612004BFCA3E04C706D8F828E8358
:100A9000A3E024FE602224F8705F12005DA3E070E2
:100AA00058EF2406120055FEA3E04E704C12003E93
:100AB00012006C20E043803C12005DE0FCA3E04C9F
:100AC0007037EF2406120055FEA3E064014E702932
:100AD00012003E12006C30E0209001577418F07B39
:100AE000017A0179579000B6E4F0A304F0C203E460
:100AF000FF121146E49000B1F09000B1E0FF22C077
:100B0000E0C0F0C083C082C0D075D000C000C0017A
:100B1000C002C003C004C005C006C007E5C054F051
:100B2000F51B30C203020C1AE51B24807003020B74
:100B3000C424C0601424E06003020C1AE50B5401C5
:100B40004513F5C2C2C5020C1620C107D2C4430B1F
:100B500040806CE50B30E003020C16E50EC3950AED
:100B6000501B9001C61202B1AF0E050E122B87E585
:100B70000ED394014024AF1C122A38801DE50B309F
:100B8000E21DE509C3950C50169001CA1202B1AFDF
:100B9000090509122B87FF122A38851CC28077AFFE
:100BA000140514EF14600E14601324027068120C04
:100BB00037F5C280619001CDE0F5C28059D2C453AF
:100BC0000BFD8052E50DC39508504185C21C900174
:100BD000C31202B1850D82758300E51C1201CCE5BC
:100BE0000D7003122A22E50824FEFFE50DC39F5075
:100BF000159001CDE0FEA3E0FFAD1C121C48900152
:100C0000CDEEF0A3EFF0050DD2C1800A120C3753E0
:100C10000BFDC2C1D2C4C2C08002C2C0D007D00680
:100C2000D005D004D003D002D001D000D0D0D082E3
:100C3000D083D0F0D0E0329001CDE0FEA3E0FF12EF
:100C40001CCB9001CDEEF0A3EFF0221202D17B007D
:100C50007A0079009000921202D1E4900095F0227F
:100C60000B7A007953A31202D1900099227E007B67
:100C7000017A0079C91203A97B017A0079C9900031
:100C8000921202D1900095227F207E007D007B0091
:100C90007A0079210203A9E92401F9E43AFA7D01F5
:100CA0007E007F2002054F7A007900A30202D174F2
:100CB00046F01B7A007900A30202D17E007D007B02
:100CC000011203A990000A0202B17428F07A007997
:100CD0000DA30202D17428F07A0079007B01A302EF
:100CE00002D19000001202B1900096227BFF7401A5
:100CF0009000AAF07FC022FF1202B1E92FF9EA3575
:100D0000F0FA900010E0FEC313227D017BFF7A23EE
:100D100079447F0102054F9000127401F022120203
:100D2000B18F8275830002018D7D017B017A00798C
:100D30000022A801FC0202B17428F00B7A00798A23
:100D4000A30202D17407F07A007924A30202D190A1
:100D500000281202D190001CE0227D0190000E12AA
:100D600002B17E002290009E0202B19000A2020217
:100D7000B1E4FDFC9000B474FFF090019CE064804D
:100D80006003020E8290019EE0FAA3E09000B0F0B2
:100D9000EAFFE46003020E5EEF24FE602814604A5E
:100DA00024026003020E5E9000B0E06003020E5E5B
:100DB0009001BA12208C9001BA1202B11201747C17
:100DC00000FD020E5E9000B0E06003020E5E900136
:100DD000BD12208C9001BD1202B1900002120204DB
:100DE000FAE5F0FFEAFCEFFD80749001C01202B159
:100DF0009000B0E0FF75F003A4F58285F083120245
:100E0000FA12208FEF700CFC7D049001A4E0548056
:100E1000F0804B12207DFF4E600AEF64097003EEF4
:100E20006404703A900199E0FF9000B0E0C39F50D5
:100E30002DA31202B190000112018D7C00FD120160
:100E400074547FFF9001A4E054804FFFF09000B2F3
:100E5000E475F0011201EEEF44809001A4F0ED4C36
:100E600060209001A2E0FEA3E0FFC39DEE9C500431
:100E7000AC06AD079000B11202B11228DDE490007B
:100E8000B4F09000B4E0FF229001ABE01392039025
:100E900001A8E0FEA3E0FFC39440EE940040047F6D
:100EA0004080009000AFEFF0A3F09001A4E0FF5469
:100EB0007F64017056EF30E721A31202B1C2057DB5
:100EC00002E4FF121F2675F0021221CD9000AFE060
:100ED00024FEF09001A4E0547FF0E49000B1F09083
:100EE00000AFE0C313FF9000B1E0C39F5038122160
:100EF000E2120F7875F0011221CD7BFF7A2D792453
:100F0000120F789000B1E004F080D49000AF12216D
:100F1000E0C205E4FF121F269000AFE0FF9001A69B
:100F2000E48FF01201EE9001ABE054FBF09000B0C2
:100F3000E0FFFD1221E89400FCF0A3EDF04C701EE0
:100F4000EF6440601975AE1175AF0AE5AE20E7FB9E
:100F50001221C6E49001A4F09001ABF0800B75AEB5
:100F60001175AF02E5AE20E7FB30030B9000B01225
:100F700021B1FDFF12297322C2057D01E4FF121F7A
:100F80002622C2037F01122B92122B56501575AEEA
:100F900094E5AE20E7FB53AFBFE5AE20E7030210B8
:100FA0006D80F6122B6F400302106D122C3D9000E5
:100FB000AFEFF09001B8E06403600EA3E04402F0EC
:100FC0009000B074F9F002104C9000AFE0FDFFC348
:100FD0009001B7E09F9001B6E0940050139001B8E3
:100FE0007401F0A3E04402F09000B074F2F0805C71
:100FF0009001B31202B17F011221389001B9E0547F
:10100000FDF09000AFE0FFFD7C00C39001B7E09DD4
:10101000F09001B6E09CF09001B4EC8DF01201EE7E
:101020009001B6E07002A3E06005EF6440600890B4
:1010300001B87401F0D203E49000B0F075AE94E50D
:10104000AE20E7FB53AFFEE5AE20E7FB9001B9E031
:1010500030E01A30030354FEF09000B0E0FD900041
:10106000AFE09001B612287F7F0212297322C0E000
:10107000C0F0C083C082C0D075D000C000C001C025
:1010800002C003C004C005C006C007122B9D90001B
:10109000ABEFF0122BA89000ACEFF0122BB3900046
:1010A000ADEFF0122BBE9000AEEFF09000ABE0FC85
:1010B00030E3379001ABE0FE30E1089001AAE06434
:1010C00003600BEE30E20E9001AAE0B4020790003C
:1010D000ACE04401F09001B9E030E10E9001B8E0DD
:1010E000B403079000ADE04402F0EC30E2031225B7
:1010F000AE9000ABE030E103122C199000ABE03071
:10110000E003122AEC9000ACE030E1031217A69045
:1011100000ADE030E103120F829000ACE030E0035C
:101120001215A59000AEE0FF122B92D007D006D08A
:1011300005D004D003D002D001D000D0D0D082D0CE
:1011400083D0F0D0E0329000B2EFF0A31202D19041
:1011500000BAE5A7F09000B2E060081460058000D6
:101160007FFC229000B2E0FE600B90019AE06406E2
:1011700060037FF722EE9000B81220D5FF64016073
:1011800009EF7FFEB405027FFB22122C3692041277
:1011900021029000B31202B19000B8122119900000
:1011A000B6E0FCA3E0FD8F828E83A3A3A3ECF0A3A3
:1011B000EDF09000B81220F47402F0A203E433546E
:1011C00001FBEF24061220FBE054FE4BF09000B22E
:1011D000E014600C0470299001ABE04404F080201E
:1011E000D3ED9440EC940040047D4080069000B61E
:1011F000A3E0FD9001AC1202B1D2057F01121F26BF
:101200003004031221099000BAE0F5A77F00229074
:1012100000B01220957004A3E0640260030212CFB4
:1012200090019EE07002A3E060030212CF90019C47
:10123000E0FF20E7030212CF12209D50030212CFDD
:10124000E49001D8F0A3F0EF541F14602214603032
:10125000240270699001A0E07002A3E0705F122C7C
:101260006950499001D8E04401F0A3E0F08049C3FF
:101270009001A1E094019001A0E09400503F8038DB
:1012800012207DFF547F4E700990019AE0B4040251
:10129000802690019AE0B40624EF247F6010248019
:1012A000701B9001B8E0B406031220C1800A9001BF
:1012B000B1E0B406031220C1E49000B0F09000B099
:1012C000E0700C7B017A0179D87D02FC1228DD9058
:1012D00000B0E0FF2290009E1202D19000A1EDF03C
:1012E0009000AAF07FC01200039000A5EFF0E50B7C
:1012F00030E6037FFF22E50B30E4047F0680529046
:1013000000A1E0FF9000A5E0FED39F502DEEC39416
:10131000044027120D65EE7E0029F9EE3AFA90FF9F
:10132000FE120204FAE5F0FFEAFE9001CDE06E70D5
:1013300003A3E06F60087F1580177F16801390006D
:10134000A5E0B40412120D6590000112018DFF603A
:1013500006122C437FFF22120D6BE94A4B60279047
:1013600000A5E024FDFF120D6BEF1201BA120D650E
:10137000E92401F9E43AFAC003C002C001120D6B7E
:1013800090000112032A9000A5E0FF22900017EFC1
:10139000F0A3EDF0A31202D1120D4FFE2DFDE433A8
:1013A000FCD3ED9404EC6480948040037FFF22EE34
:1013B000C394045043900017E0FB7A00C002C003BE
:1013C0007B00120C520B7A00791D120C65120D4431
:1013D000D003D0027F02121435120D4FFF7E009011
:1013E00000251202B1900018E07C0029F9EC3AAD1A
:1013F00003A3120D3212054F900017E0FB7A00C0D4
:1014000002C0039000281202B1120C7E7404F07B1B
:10141000017A00791D120C65120D44D003D0027FB1
:10142000121214351201746009F404FF122C437F68
:10143000FF227F0022E4FD1216FC9000251202B16B
:10144000229000B074FFF090019EE0FCA3E0FDEC60
:1014500060030214ED12208560030214ED9001A2D6
:10146000E07002A3E060030214ED9001A0E07002BE
:10147000A3E0707990019AE064047032ED4C600F43
:10148000122071FF90019EE07003A3E06F705E1266
:1014900020CB122071FF90019EE0B4000FA3E0B5B5
:1014A000070AD2031229397F06122531803A122009
:1014B000B0703A90019EE0FEA3E0FF4E600E122055
:1014C00071FD7C00EFB50525ECB506211220CB900F
:1014D000019EE07002A3E0700A7F041225311226FB
:1014E000998005C203122939E49000B0F09000B051
:1014F000E0FF2290000A1202D190000412018D2414
:10150000DE605424FE70030215922403600302156A
:101510009F7B007A0079009000921202D1E4900043
:1015200095F012279D7F1B1216FCEF90000A701D8C
:101530001227C4A801FCAD0390000E1202B17E0078
:101540007F2012054F1227B975F02080051227BCA5
:10155000F5F012023C803490000A1227C4FA900081
:10156000921202D19000957414F07B0012279D7F97
:10157000161216FC1227B975F00112023CEF7F001B
:1015800070027F01900007EF1201CC7D4012238F83
:1015900080107F007E007D127C00122BD480037FA0
:1015A00000227F0122E4FF122B92122B2F40051202
:1015B0002B22501C75AE11E4F5AFE5AE20E7FB75AC
:1015C000AE1175AF80E5AE20E7FB1221C6E4A3F0B3
:1015D000122B63506D9001ABE0FF30E3028060900E
:1015E00001AAE0640170489001A4F01221F47E0188
:1015F0007F9C1209B0BFFD1590019CE0FFC41354FD
:10160000037005121DC0803A122A0B803590019C90
:10161000E020E72E9001AAE0640360269001A2E09A
:101620007002A3E0601C9001ABE04408F0801390CE
:1016300001AAE0B4030512197F80079001ABE044D2
:1016400002F09001AAE0B40208122B3C4003120EF3
:1016500088229000B01220957002A3E06003021669
:10166000F612208524FE60030216F690019EE070BB
:1016700002A3E060030216F612207D547FFF4E7035
:101680000C12209D4007E49000B0F08069C3EF94F5
:1016900003EE940050601220B0705B9000B01220F6
:1016A000B7122B929001A1E030E70B75AE1175AF28
:1016B00040E5AE20E7FB9001A1E020E71875AE946D
:1016C000E5AE20E7FB53AFDFE5AE20E7FB43AF809D
:1016D000E5AE20E7FB9001A1E0247F600E2480703E
:1016E000159001B8E06403600D80089001B1E064DA
:1016F0000260037401F09000B0E0FF2290008EEFD2
:10170000F0A3EDF0A3EAF0A3EBF0E490009DF0125B
:101710002ADB90008EE0FFA3E0FD9000921202B160
:101720009000A21202D1900095E09000A5F09000E8
:1017300090E0FAA3E0FB1223D8BFFF1A7F0A7E00D5
:101740007D007C0012257190009DE004F0E0D394B0
:101750000840BF7FFF22900099E0FDA31202B190E4
:1017600000A21202D19000961202B11212D5EFF42B
:10177000702E90009DE004F0E0D3940540037FFEBE
:1017800022122C49EF700A90008EE0FF12298F8000
:10179000C590008EE0FFE4FCFDFE122571021712D9
:1017A000122BFD7F00227F01122B92122B49501029
:1017B00075AE11E4F5AFE5AE20E70302184A80F6F6
:1017C0009001B1E06402600302184A12288F94402D
:1017D000EE940040047F4080009000AFEFF07E0068
:1017E000C39001B0E09FF09001AFE09EF09001AD9A
:1017F000EE8FF01201EE9001B2E013920312288FE7
:101800009400EE94004022D3EF9440EE9400400404
:101810007D4080069001AFA3E0FD9001AC1202B1C3
:10182000D2057F01121F26800D9001B2E054FEF018
:101830009001B17401F03003119000AFE09001AF5E
:1018400012287FE4FD7F011229732290000B1202FF
:10185000D1900012E5A7F0EF600924FE600580003A
:101860007FFC22EF600B90019AE0640660037FF733
:1018700022EF9000101220D5FF64016009EF7FFE77
:10188000B405027FFB22122C369201122102900035
:101890000B1202B190001012211990000EE0FDA36E
:1018A000E08F828E83A3A3A3CDF0A3EDF090001070
:1018B0001220F47403F0A200E4335401FDEF240677
:1018C0001220FBE054FE4DF0900010E0FEA3E02457
:1018D000061220FBE054F7F03001031221099000BA
:1018E00012E0F5A77F002290000B1202D190000EAB
:1018F000E5A7F0122102122C6DE4FF74982FF582F7
:10190000E43401F583E4F00FEFB42BEF122113124E
:1019100002DA9001BA1221109000031202FA90012B
:10192000BD1221109000061202FA9001C01221107F
:1019300090000912018D900199F012213175A720B4
:1019400043B32075A72053B57F75AE0175AF08E589
:10195000AE20E7FB75AE0B75AF0FE5AE20E7FB12CF
:1019600029DD90019A7403F012210990000EE0F530
:10197000A775AE0175AF01E5AE20E7FB7F002290B1
:1019800001ABE0139203122BC99000AFEFF0C390AC
:1019900001A9E09F9001A8E0940050101221C6A375
:1019A000E04402F09000B074F2F080539000AF1267
:1019B00021E0E4FF1221389000AFE0FFFD7C0090B1
:1019C00001A6EC8DF01201EE1221E89CFCF0A3EDD3
:1019D000F0E49000B0F0ED4C701AEF6440601575C3
:1019E000AE1175AF48E5AE20E7FB1221C6A3E05467
:1019F000FEF0800B75AE1175AF40E5AE20E7FB3011
:101A0000030F9000B0E0FD9000AF1221B1FF12294A
:101A100073229000B01220957002A3E06003021AB6
:101A20009E12208524FE707612207D547FFF4E701A
:101A30000C12209D4007E49000B0F08061C3EF9449
:101A400003EE9400505890019EE07002A3E0704EA7
:101A50001220B070499000B01220B7122B92900162
:101A6000A1E030E70B75AE1175AF10E5AE20E7FBD6
:101A70009001A1E020E71075AE94E5AE20E7FB43AE
:101A8000AF20E5AE20E7FB9001A1E0247F600924B0
:101A900080700B9001B880039001B17406F0900043
:101AA000B0E0FF22787FE4F6D8FD758166021AEB7C
:101AB0000207B9E493A3F8E493A34003F68001F28C
:101AC00008DFF48029E493A3F85407240CC8C33337
:101AD000C4540F4420C8834004F456800146F6DF06
:101AE000E4800B010204081020408090229FE47ED5
:101AF000019360BCA3FF543F30E509541FFEE493FB
:101B0000A360010ECF54C025E060A840B8E493A3C1
:101B1000FAE493A3F8E493A3C8C582C8CAC583CAEC
:101B2000F0A3C8C582C8CAC583CADFE9DEE780BEA4
:101B3000AE07E4FB122B92300513A80674107E004A
:101B4000088005C333CE33CED8F9FF8013AF0674B7
:101B5000207E00A807088005C333CE33CED8F9FF16
:101B6000D3ED9FEC9E5004EB4480FB300604EB4425
:101B700040FB300421EB4420FB3005034404FB759B
:101B8000AE1175AF40E5AE20E7FB75AE128BAFE549
:101B9000AE30E72780F975AE1475AF80E5AE20E76B
:101BA000FB75AE15AF038FAFE5AE20E7FB20050B4D
:101BB00075AE12E4F5AFE5AE20E7FB2290001712F8
:101BC00002D1E490001CF0A3F090001AF090001AEB
:101BD000E0FFC394045070EF75F008A4FBAAF0C0B6
:101BE00002C003120C4E900017120CE5120C667422
:101BF00028F07B017A00791EA31202D1D003D00213
:101C00007D807F021216FCE490001BF090001EE025
:101C1000FF90001BE0FDC39F5025A3E0FEA3E0FF63
:101C200090001F1202B18D82120D23FD121C4890EC
:101C3000001CEEF0A3EFF090001BE004F080CD90CC
:101C4000001AE004F0808622AB07AA06EB6DFB3099
:101C5000E0051227FF800312280FAA06AB07EB301E
:101C6000E0051227FF800312280FAA06AB07EB300E
:101C7000E0051227FF800312280FAA06AB07EB30FE
:101C8000E0051227FF800312280FAA06AB07EB30EE
:101C9000E0051227FF800312280FAA06AB07EB30DE
:101CA000E0051227FF800312280FAA06AB07EB30CE
:101CB000E0051227FF800312280FAA06AB07EB30BE
:101CC000E0051227FF800312280F22AD07AC06ECB7
:101CD0005455FEED545525E0FBEE33FAEC54AAFEC4
:101CE000ED54AAFFEEC313FEEF13122825FDEC54AA
:101CF00033FEED54337802C333CE33CED8F9FBAA8A
:101D000006EC54CCFEED54CC7802CEC313CE13D8DF
:101D1000F9122825FDEC540FFEED540FC4F8540FB2
:101D2000C868FBEEC454F048FAEC54F0FEED54F0F1
:101D3000FFEEC4F854F0C868FEEFC4540F481228F0
:101D400025FAECFFEAFE2290000D1202D17BFF7A09
:101D500023794B9000111202D17A23796C900014F0
:101D60001202D1E4900010F0900010E0FFC3941034
:101D7000503BEF75F002A4A3120CF72405FFEE7D93
:101D80000030E0027D02121DB6900010E075F002F6
:101D9000A4900014120CF72418FFEE7D0030E0022E
:101DA0007D02121DB6900010E004F080BB90000D83
:101DB0001202B1021BBC90001C7402F012138C22A0
:101DC000E49000AFF090019DE01203831DEB001D35
:101DD000F0011DF5031DFA051DFF061E04081E096E
:101DE000091E0E0A1E130B00001E1D12120F802664
:101DF0001216528021121A12801C121E38801712DD
:101E00000D71801212224B800D1214418008122491
:101E1000AD80031226629000AFEFF080069000AF15
:101E200074FFF0E4FF122B929000AFE0B4FF0312B6
:101E30002A0B9000AFE0FF229000B074FFF09001F9
:101E40009EE0FEA3E0FFC39480EE9400505C9001FE
:101E5000A2E07002A3E07052122085704D9001A0A4
:101E6000E07002A3E0704390019AE0B4030BEF4EE0
:101E7000601D7F04122531801690019AE0B404148D
:101E800090019EE07002A3E070057F03122531E40B
:101E90009000B0F09000B0E07010F5AE90019EA3FD
:101EA000E04480F5AFE5AE20E7FB9000B0E0FF2214
:101EB0009000B5EFF0E49000B8F0A3E5A7F0900033
:101EC000B5E0FF6005C3940340089000B874FCF0CF
:101ED0008042122C3692041221029000B5E01221A9
:101EE00025FEAF01A31220E3640160289000B5E055
:101EF00024FE600A04700C7F011226CF80057F014A
:101F00001227039000B61220F47401F0EF24061299
:101F100020FBE4F03004031221099000B9E0F5A79A
:101F20009000B8E0FF229000BBEFF0A3EDF0A31209
:101F300002D1E5AE20E7FB9000BBE04420F5AE9077
:101F400000BDE01460142403601C14602314702A84
:101F5000122876AD01122A7A8020122876AC02ADC2
:101F600001122A4E8014122876AD01122A8E800AA0
:101F7000122876AC02AD011229F430051D9000BB89
:101F8000E0FFD394004013122B9275AE91E5AE2082
:101F9000E7FB43AF01E5AE20E7FB2290007BEEF0CC
:101FA000A3EFF0A31202D1122467E4FF9000801285
:101FB0000D1EFE90007D120D1E6EFE74212FF8A6E0
:101FC000060FEFB424E678457C007D009000831274
:101FD00002B1120CA07B007A007921120C7E7444AD
:101FE000F0120C657428F00B7A007986A31202D1E6
:101FF00090007BE0FAA3E0FB7D407F461216FCEFE9
:1020000060057EFF7FFF22E4FEFF22900083120224
:10201000D1900086EDF0E4A3F07597A5900086E0DE
:10202000FF14F0EF604A900083E475F0011202BAE9
:10203000120174FF9000C8E0FE04F074112EF582C6
:10204000E43401F583EFF09000C8E0B440CE7B01AA
:102050007A017911120C7E7440F0120C65120CAFEB
:102060007B407D017F471216FCE49000C8F080ACF5
:10207000229001BD1202B190000502018D9001A0D5
:10208000E0FEA3E02290019CE0541F221202B190D6
:1020900000B10202D174FFF09001A2E02290019AF7
:1020A000E0C3940422D205C2067D407C007F012259
:1020B00090019AE0640622F09001A0A3E0547FFF13
:1020C000229001D87401F0A3E4F02290019EA3E0D5
:1020D000900198F02275F007A424A5F9740135F059
:1020E000FEAF01F0A3EFF08E832405F582E4358383
:1020F000F583E022E0FEA3E0FF2405F582E43EF54F
:10210000832275A71053CEFE2275A71043CE01225D
:102110001202D190000B0202B1E0FEA3E0FFF582B3
:102120008E830202D175F007A424A5F9740135F05D
:102130002275A72053B5F8229000B1EFF09000B3BC
:102140001202D19000B2EDF0D39400404CE5AE20E5
:10215000E7FB9000B1E0FE44E0F5AE9000B3E01480
:1021600060152403602324FE702F9000B21228799A
:10217000AD01AB060229569000B2122879AC02AD2F
:10218000019000B1E0FB0228BC9000B2122879ADAA
:10219000019000B1E0FB1228FC22F582E43CF583BB
:1021A000E0FCA3E0FAECFFEAFE9000AFE0FCA3E065
:1021B00022E0FB7A009001A8E0FFA3E09000B6CFF8
:1021C000F0A3EFF0E4229001AA7401F0229001A69E
:1021D000E40201EEF582E43CF583EEF0A3EFF02299
:1021E000E0FD9001A50202B1C39001A9E09DFD9020
:1021F00001A8E0227E017F9C9000AFEEF0A3EFF0FB
:10220000AA06F97B017D08E4FF12213875AE11752D
:10221000AF40E5AE20E7FB9000AFE0FEA3E0F58223
:102220008E83A3A31221A0FDF5828C83A3A3EEF0DD
:10223000A3EFF0ED240412219AFD24041221D4ED21
:10224000240612219A24061221D4227FFF9001A095
:10225000E07002A3E0704790019EE07002A3E0707E
:102260003D9001A2E07004A3E06401703190019CF4
:10227000E0FE30E729541F702590019AE0B404086D
:102280007BFF7A2D7924800D90019AE0B4060F7BB4
:10229000017A0179987D017C001228DDE4FF220497
:1022A0000F000000000113004301C6000000010AF6
:1022B00000010E00010800010D004301C3000000F1
:1022C0004301CA000000010C000109004101C900DE
:1022D0004201CD0000011400010B004100C8004183
:1022E00000C3004100C2004200C000004201DA0108
:1022F0007E0090007B1202D17F1C120C8A783D7CFC
:10230000007D0090007B1202B17E007F2412054FF9
:1023100012273790007E1202B17D2012200B75210A
:1023200046752240900081A3E0F523E4F52475254D
:10233000EE752601752723FB7A0079217D40122056
:102340000B0224EF02000100000000837181018371
:1023500071C101837183718371C1710101837183C3
:1023600071C17183718371837183710013003C00AB
:1023700013003C0013003C0013003C003C003C00F8
:1023800013003C0013003C00130033000030449065
:10239000007B1202D190007EEDF0E4A3F090007B70
:1023A0001202B190007EE0FF9000B6E4F0A3EFF0DF
:1023B000C2037F01121146EF601D7F027E007D0087
:1023C0007C0012257190007FE0FF04F0EFD3941E93
:1023D00040CB7F14122C43229000A0EAF0A3EBF034
:1023E000AE057515039000A5E0FD2407F5168F17BF
:1023F000AF068F189000A1E0F5199000A0E0F51A43
:102400009000A21202B11229AA7B007A00791574F9
:1024100006120CF012282CE50B7F0030E6027FFF3D
:102420002290000AE5A7F0122C55122C21122BDF66
:10243000122C59122BE9122C28122AA2122AB51298
:102440002AC812002E122BF3120076122AFB122B2E
:1024500008122B15122C5D122C61122C2F122C0736
:1024600090000AE0F5A722120C887B007A007921FF
:10247000120C7E7420F0120C65120D38E41BFA7DEC
:10248000037F161216FCEF60028019120C4E7A00C0
:102490007921120C65120D387A007D027F15121613
:1024A000FCEF60057EFF7FFF22E4FEFF2212207D0D
:1024B000FF7DFFC39401EE94005031A3E07004A3AC
:1024C000E06401702790019EE07002A3E0701D900F
:1024D000019CE0B4811690019AE0B4060F7BFF7A6C
:1024E0002D79247D017C001228DDE4FDAF052290CA
:1024F00000C3E070037402F09000C3E0FD9000C8D8
:10250000E0FFFB7A00C002C0037B017A017911125F
:102510000C7EEFF0120C657446F07A0079C4A312B9
:1025200002D1D003D0027F471216FCE49000C3F022
:10253000229000B1EFF090019AE09000B2F0C394C5
:1025400005400B9000B1E0940550031226999000CD
:10255000B1E0FDB40506A3E090019BF09000B1E06E
:10256000FE90019AF09000B2E0FF6E6003122C1012
:102570002290009E1202A5AF12AE11AD10AC0F90CA
:1025800000A21202A59000A2120299C3E5129BFFBD
:10259000E5119AFEE51099FDE50F98FC90009E125A
:1025A0000299D312026940057597A580D82212219D
:1025B000C69001B17406F09001B8F075AE0F75AF1A
:1025C0008FE5AE20E7FB75AE0175AF01E5AE20E704
:1025D000FB75AE0B75AF0FE5AE20E7FB30B1047FA6
:1025E0000380027F01122531022C6C90007B120CBB
:1025F0004B90007B120CE5120C667424F07B017A80
:1026000000797EA31202D17B157A00E4FD7F0212CD
:1026100016FC90007F1202B190000212018D70042E
:10262000FE7F0122E4FEFF2290007B120C4B900003
:102630007B120CE5120C667424F07A00797E120C81
:10264000DC7B157A00E4FD7F021216FC90007F12FD
:1026500002B190000312018D7004FE7F0122E4FE9E
:10266000FF227FFF9001A0A3E0FE90019EA3E0FD6A
:10267000EEC39401502290019AE0B4061B9001A28F
:10268000E07002A3E07011ED700E122085FEBE0115
:1026900007C203122939E4FF229000B4E5A7F01223
:1026A0002C3692031221029000B37401F09000B313
:1026B000E0FFC39403500B121EB09000B3E004F08F
:1026C00080EB3003031221099000B4E0F5A7221239
:1026D0002B9275AE1175AF08E5AE20E7FB75AE9194
:1026E000E5AE20E7FBE5AF20E3F375AE1175AF086B
:1026F000E5AE20E7FB75AE91E5AE20E7FBE5AF2048
:10270000E3F322122B9275AE1475AF10E5AE20E7FD
:10271000FB75AE94E5AE20E7FBE5AF20E4F375AEC4
:102720001475AF10E5AE20E7FB75AE94E5AE20E77B
:10273000FBE5AF20E4F322E49000C8F09000C3E092
:10274000FD9000C2E0FB7A00C002C0037B00120CC7
:10275000520B7A017911120C65120CAFD003D00222
:102760007F471216FCE49000C2F022C0E0C0D07592
:10277000D000C005C006C007C2CFE5122401FFE4A7
:102780003511FEE43510FDE4350F8F128E118D10DA
:10279000F50FD007D006D005D0D0D0E0327A00793E
:1027A00021A31202D19000997446F00B7A00790DA2
:1027B000A31202D1E41BFAFD2290000A1202B1908A
:1027C0000005E4221202B1E92407F9E43A22EF609D
:1027D0000943DC028FEB8FEC800353DCFDEB600BD5
:1027E00043DA028BFBAF038FFC800353DAFDED600D
:1027F0000A43DB028DE9AF058FEA2253DBFD22EAB3
:10280000C313FEEB13FFEE64A0FEEF6401FF22EAA8
:10281000C313FEEB13FF22E49001CDF0A3F0F514F7
:102820009001C9E022FFEE4AFCEF4B22E50B20E1CC
:10283000FB1228174402F50BE4F09000AAE0F50A19
:102840009001C61202D1E4F50E8F13D2C5E50B201C
:10285000E1FB22AD07ED4480F5AEE5AE20E7FBAF2E
:10286000AFEF7F00FEED144480F5AEE5AE20E7FB50
:10287000ADAFEF4DFF229000BCE0FFA30202B1FB21
:102880007A00E0FFA3E09000B6CFF0A3EFF0229033
:1028900001AFE0FEA3E0FFD32290000A1202D1753F
:1028A0009707121BBC90000A1202B1122628EF4EA5
:1028B000700990000A1202B1121D47228D828C838A
:1028C0001FEF600BE5AE20E7FBE5AFF0A380F1E57D
:1028D000AE20E7FBEB4420F5AEE5AFF0229001AA75
:1028E000E0B401179001A51202D1AF059001A8EC48
:1028F000F0A3EFF0A37402F0E4A3F022A8051FEF09
:10290000600BE5AE20E7FBE5AFF20880F1E5AE2015
:10291000E7FBEB4420F5AEE5AFF222AE11AF12E0DB
:10292000FCA3E0FDC3EF9DFDEE9CFCC3ED9496EC93
:102930009400229001CF02028D30030A9001B174FD
:1029400001F09001B8F0D2041220A5121B30C2048D
:102950001220A5021B30A8051FEF600AE5AE20E794
:10296000FBA6AF0880F2E5AE20E7FBEB4420F5AE16
:10297000A6AF229000B3EDF0A3EAF0A3EBF0EFB422
:1029800002097B017A017958122B7BE4FEFF22EFCA
:1029900024C060071470087E3280067E6480027E48
:1029A00020AF06E4FCFDFE022571E50B20E1FBAF44
:1029B000058F0C9001CA1202D1E4F5099001C9E01B
:1029C0004404F022EFC394034002D322EF122125E6
:1029D000F583E91220E9B40102C322D322AFA79004
:1029E00001AA7401F075A72043B38075A72043B3F3
:1029F000408FA7228D828C83AE071FEE600CE5AE60
:102A000020E7FBE493F5AFA380EE22E4FF122B92C4
:102A10009001AA7405F075AE1175AF60E5AE20E7C0
:102A2000FB229001C31202B1120174FFD39508502A
:102A3000038F0822430B1022AD079001CDE0FEA3C7
:102A4000E0FF121C489001CDEEF0A3EFF0228D8242
:102A50008C83AE071FEE600BE5AE20E7FBE0F5AF21
:102A6000A380EF2290000A1202D1122C65122BFDD6
:102A7000D296E49001D3F0A3F022A805AE071FEE92
:102A8000600BE5AE20E7FBE6F5AF0880EF22A80576
:102A9000AE071FEE600BE5AE20E7FBE2F5AF088066
:102AA000EF22E4F5A7F5A9E5A930E7FB75A903E551
:102AB000A930E7FB22AF885388AF758D30EF5440C3
:102AC000FEEF54104E428822E5C8540453C8FB75EB
:102AD000CB4475CA8043C80442C8227BFF7A23795D
:102AE000489000AA7402F07FC002282C90019AE05E
:102AF000C3940240057F051225312253F77F75DA12
:102B00004275FB9675FC962253F77F75DB4275E99B
:102B10009675EA962253F77F75DC4275EB9675EC55
:102B2000962275AE91E5AE20E7FBE5AFA2E42275F3
:102B3000AE91E5AE20E7FBE5AFA2E22275AE91E5EE
:102B4000AE20E7FBE5AFA2E12275AE91E5AE20E74E
:102B5000FBE5AFA2E52275AE94E5AE20E7FBE5AF5D
:102B6000A2E62275AE91E5AE20E7FBE5AF13227534
:102B7000AE94E5AE20E7FBE5AF13229001D37401DC
:102B8000F09001D50202D18F8275830012018DF57C
:102B90001C2275AE0E8FAFE5AE20E7FB2275AE8628
:102BA000E5AE20E7FBAFAF2275AE82E5AE20E7FBD6
:102BB000AFAF2275AE84E5AE20E7FBAFAF2275AEB6
:102BC0008EE5AE20E7FBAFAF2275AE96E5AE20E70F
:102BD000FBAFAF229001CF1202A57F02022C4FE47F
:102BE000F5A775A4D075D44C2275E34075E1057541
:102BF000E20322758E1C758921438840227A23794D
:102C000044120CEC02282C7BFF7A2D791A0218E76B
:102C10009000B3EFF0A3EDF02290019BE0FF0225BE
:102C20003175A72075C6042275A71075C1302275AD
:102C3000E68175A8A02275A710E5CE13227F171292
:102C40002853229001D4EFF0229001D4E0FF22908B
:102C500001D3EFF022E4F5A72275A5632243C19FBB
:102C60002243981022E4F50B22C32232222206D0FE
:102C7000F10901A1010920150026FF007508954002
:102C800081020921150026FF00750895409102C0B8
:102C90001201000200000040C410CF8A00010102AE
:102CA0000301090229000101008032090400000229
:102CB00003000004092111010001222200070581FF
:102CC0000340000507050103400005040309040152
:102CD0001A0353696C69636F6E204C616273000163
:102CE0001203553246205A65726F00012203434198
:102CF000464542414245464646464646464600010E
:102D00001203553246205A65726F00FF2CCBFF2C00
:102D1000CFFF2CDFFF2CEBFF2CFFFF2C90FF2CA212
:062D2000FF2D0B05000071
:00000001FF
