:020000040000FA
:10000000021ADDE50B20E1FB1228414403F50BE465
:10001000F0F50D8F139000ABE0F5089001C41202CB
:10002000F1D2C5E50B20E1FBAF0822022795E5914F
:1000300054045391FB4391044291220209D690004B
:10004000B0E0FEA3E0F5828E83E0229000B0E0FEF7
:10005000A3E0FF2404F582E43EF583E0229000B0A3
:10006000E0FEA3E0FFF5828E83A3A322C413131343
:10007000540122022C97C2DED2DE2202108CE70944
:10008000F608DFFA8046E709F208DFFA803E888248
:100090008C83E709F0A3DFFA8032E309F608DFFA80
:1000A0008078E309F208DFFA807088828C83E309A4
:1000B000F0A3DFFA806489828A83E0A3F608DFFA7E
:1000C000805889828A83E0A3F208DFFA804C80D2CC
:1000D00080FA80C680D4806980F28033801080A648
:1000E00080EA809A80A880DA80E280CA80338982A0
:1000F0008A83ECFAE493A3C8C582C8CCC583CCF04C
:10010000A3C8C582C8CCC583CCDFE9DEE7800D89F2
:10011000828A83E493A3F608DFF9ECFAA9F0EDFBF9
:100120002289828A83ECFAE0A3C8C582C8CCC58341
:10013000CCF0A3C8C582C8CCC583CCDFEADEE8809A
:10014000DB89828A83E493A3F208DFF980CC88F00C
:10015000EF60010E4E60C388F0ED2402B40400503D
:10016000B9F582EB2402B4040050AF232345822367
:100170009000CE73BB010689828A83E0225002E799
:1001800022BBFE02E32289828A83E49322BB010C14
:10019000E58229F582E5833AF583E0225006E925D8
:1001A00082F8E622BBFE06E92582F8E222E58229F2
:1001B000F582E5833AF583E49322BB010689828ABE
:1001C00083F0225002F722BBFE01F322F8BB010D9F
:1001D000E58229F582E5833AF583E8F0225006E9C5
:1001E0002582C8F622BBFE05E92582C8F222C5F0A9
:1001F000F8A3E028F0C5F0F8E582158270021583B7
:10020000E038F022BB0110E58229F582E5833AF55A
:1002100083E0F5F0A3E0225009E92582F886F00892
:10022000E622BBFE0AE92582F8E2F5F008E222E5C3
:10023000832AF583E993F5F0A3E99322F8BB011132
:10024000E58229F582E5833AF583E8F0E5F0A3F04D
:10025000225009E92582C8F608A6F022BBFE09E96A
:100260002582C8F2E5F008F222EB9FF5F0EA9E4203
:10027000F0E99D42F0E89C45F022E8600FECC313E2
:10028000FCED13FDEE13FEEF13FFD8F122BB0107C7
:1002900089828A830202AD5005E9F8020597BBFE08
:1002A00005E9F80205A389828A830205AFE0FCA371
:1002B000E0FDA3E0FEA3E0FF22E0F8A3E0F9A3E065
:1002C000FAA3E0FB22ECF0A3EDF0A3EEF0A3EFF035
:1002D00022E0FBA3E0FAA3E0F922F8E0FBA3A3E00D
:1002E000F925F0F0E582158270021583E0FA38F006
:1002F00022EBF0A3EAF0A3E9F022BB010789828A8E
:10030000830202D15005E9F80205BFBBFE05E9F8FA
:100310000205D189828A830205E3BB010DE58229AA
:10032000F582E5833AF5830202D15007E92582F888
:100330000205BFBBFE07E92582F80205D1E5822947
:10034000F582E5833AF5830205E3BB0120E58229C6
:10035000F582E5833AF583D0F0D0E0F8D0E0F9D02B
:10036000E0FAD0E0FBE8C0E0C0F00202F15018E98A
:100370002582F8D083D082D0E0F9D0E0FAD0E0FB3B
:10038000C082C0830205C8BBFE18E92582F8D0836D
:10039000D082D0E0F9D0E0FAD0E0FBC082C0830286
:1003A00005DA22D083D082F8E4937012740193703E
:1003B0000DA3A393F8740193F5828883E473740208
:1003C000936860EFA3A3A380DFEF4E6012EF60019C
:1003D0000EEDBB010B89828A83F0A3DFFCDEFA22DB
:1003E00089F05007F709DFFCA9F022BBFEFCF309F6
:1003F000DFFCA9F022E709F608DFFA807BE9D39851
:1004000050F3E92FF9E82FF819E718F6DFFA8068BA
:10041000E709F208DFFA806080E388828C83E709CD
:10042000F0A3DFFA8052E309F608DFFA804AE9D345
:1004300098500EE92FF9E82FF819E318F2DFFA8047
:1004400037E309F208DFFA802F88828C83E309F012
:10045000A3DFFA802389828A83E0A3F608DFFA808B
:100460001789828A83E493A3F208DFF9800A8982DC
:100470008A83E0A3F208DFFA02050780B180F980E1
:10048000A580C680DC80F180738010808380E98045
:1004900087808780D980E180BC8073D3E998EA9C0B
:1004A0005039E92FF582EA3BF583E82FF8EC3BFC65
:1004B0000582D5820215831582E493C8C582C8CC13
:1004C000C583CC0582D5820215831582F0C8C5820A
:1004D000C8CCC583CCDFD9DED7802E89828A83EC55
:1004E000FAE493A3C8C582C8CCC583CCF0A3C8C521
:1004F00082C8CCC583CCDFE9DEE7800D89828A83A0
:10050000E493A3F608DFF9ECFAA9F0EDFB22D3E9B6
:1005100098EA9C5038E92FF582EA3BF583E82FF8FA
:10052000EC3BFC0582D5820215831582E0C8C582AA
:10053000C8CCC583CC0582D5820215831582F0C84C
:10054000C582C8CCC583CCDFDADED880BC89828A7C
:1005500083ECFAE0A3C8C582C8CCC583CCF0A3C89D
:10056000C582C8CCC583CCDFEADEE8809C80988851
:10057000F08E83EF60010E4E608DED2402B4040016
:100580005085F582EB2402B4040050E12323458218
:10059000AB832390047B73E6FC08E6FD08E6FE08C7
:1005A000E6FF22E2FC08E2FD08E2FE08E2FF22E4A8
:1005B00093FC740193FD740293FE740393FF22E68F
:1005C000FB08E6FA08E6F922EBF608EAF608E9F68F
:1005D00022E2FB08E2FA08E2F922EBF208EAF2086A
:1005E000E9F222E493FB740193FA740293F922E492
:1005F000900006F0A304F0E4A3F0A3F012249BE41F
:10060000FBFDFF1227F87597047597A57A007921ED
:100610001229FCD2AF7597A5E5EF30E3069001D51E
:100620007419F07B007A0079211229AFE4FBFDFFF9
:100630001227F87597A512297894F4EC94014008D4
:10064000900000EEF0A3EFF07F021229E340257F37
:10065000011229E3401E9001D4E0640160167B0181
:100660007A01795990000FE4F0A37440F0D2007F32
:10067000021218849001D4E01470030206FF147073
:100680000302072314700302075F240360030207B9
:10069000CD90000412297B9496EC9400400A9000BF
:1006A00004EEF0A3EFF080047E007F00EF4E7003B5
:1006B0000207CD900007E0FFB41005E4A3F0800A24
:1006C000EFB401069000087401F0900008E0601596
:1006D000900007E0209507FB04F0E4FD801AFD047C
:1006E000F0E4FB8013900007E0209507FB14F0E492
:1006F000FD8005FD14F0E4FBFF1227F80207CD9002
:1007000001D61202D1121164EF70099001D61202C3
:10071000D11208049001D4E0640160030207CDF017
:100720000207CD12298EE4C00712298E7808120222
:100730007AE4AD07C00512298E781012027AAB0751
:10074000D005D0071227F89000077401F09000023E
:10075000E511F0A3E512F09001D47403F0806EAEC1
:1007600011AF1290000212297F9496EC9400400A77
:10077000900002EEF0A3EFF080047E007F00EF4EC9
:10078000603E900007E06025E4F012298EE4C00787
:1007900012298E780812027AE4AD07C00512298E5C
:1007A000781012027AAB07D005D007800A900007B4
:1007B0007401F0E4FBFDFF1227F8900006E004F05E
:1007C000900006E0B40506E4F09001D4F09001D565
:1007D000E07003020633E4FBFD7F381227F8E4F0F3
:1007E00012297894F4EC9401400A900000EEF0A3F2
:1007F000EFF080047E007F00EF4E60030206337549
:1008000097A580DC90000B1202F17F407A007912EC
:10081000120CDC120174900012F01203A30839804C
:1008200008A08108A38208A6830925840864850995
:100830005086096C87000009C5120C77120D8812CA
:100840000C92120D23E41BFA7D807F02121735787B
:10085000147C00120D717F0F12056F900013740F3E
:10086000F00209CA120CE578CA7C00120CA9120D1C
:1008700054FB7A0079CA120C9F7420F07A007954E4
:10088000A3120C92120D237B087A007D827F121234
:100890001735EF6005E4900013F0120CB90209CA95
:1008A000020967020967120CE5900001120204FFB9
:1008B0009000C1E5F0F0A3EFF0120D54FB7A00793F
:1008C0005412268BEF4E7026FBFAF9120C7D120D96
:1008D00088120C927428120CD29000C1E0FAA3E0A6
:1008E000FBE4FD7F17121735EF60030209D57B018A
:1008F0007A00795412261AEF4E60030209CAFBFAF5
:10090000F9120C7D120D88120C927428120CD290E0
:1009100000C1E0FAA3E0FB7D817F17121735EF706D
:10092000030209CA22120C777A007921A3120C92D1
:100930007446F00B120D267B0F7A007D047F401267
:10094000173578127C00120D717F4012056F807A86
:10095000120CE5E92401F9E43AFA78EE7C007D0115
:100960007E007F2412056F120D54805E7F247A0072
:1009700079CA120CDC78CE7C00120CA9120D54FB43
:100980007A0079EE90007F1202F1900082E4F0A3E9
:10099000740FF07A0079CA1223247B017A0079EE71
:1009A0009000811202F19000C61202D190008412D0
:1009B00002F17B017A0079CA7F0F7E00121FD1EF0E
:1009C0004E60078000E4900013F07B017A007912FA
:1009D0007D401223C122C0E0C0F0C083C082C0D0DD
:1009E00075D000C000C001C002C003C004C005C073
:1009F00006C007E5C054F0F51B30C203020AF1E55A
:100A00001B24807003020A9B24C0601424E060034E
:100A1000020AF1E50B54014513F5C2C2C5020AED05
:100A200020C107D2C4430B40806CE50B30E00302C9
:100A30000AEDE50EC3950A501B9001C71202D1AF13
:100A40000E050E122BB9E50ED394014024AF1C12F3
:100A50002A70801DE50B30E21DE509C3950C501688
:100A60009001CB1202D1AF090509122BB9FF122A4E
:100A700070851CC28077AF140514EF14600E1460EB
:100A80001324027068120B11F5C280619001CEE050
:100A9000F5C28059D2C4530BFD8052E50DC39508B1
:100AA000504185C21C9001C41202D1850D8275830C
:100AB00000E51C1201CCE50D7003122A5AE508244A
:100AC000FEFFE50DC39F50159001CEE0FEA3E0FFB1
:100AD000AD1C121C7E9001CEEEF0A3EFF0050DD2FE
:100AE000C1800A120B11530BFDC2C1D2C4C2C08017
:100AF00005122B0EC2C0D007D006D005D004D003FB
:100B0000D002D001D000D0D0D082D083D0F0D0E0BD
:100B1000329001CEE0FEA3E0FF121D019001CEEE67
:100B2000F0A3EFF0229000B0EEF0A3EFF0A374FD7D
:100B3000F012003EFFC41354036003020BE2EF12F5
:100B4000006C20E003020BE212003E541F640160BF
:100B500003020BE2A3E024FA6003020C6E12004BC6
:100B6000FCA3E04C6003020C6E8F828E83A3A3E093
:100B7000642270287BFF7A2C79A39000B0A3E02434
:100B800006120055FEA3E0FFD39422EE9400400A23
:100B90007C007D227E007F22803E803C9000B0E081
:100BA000FCA3E0FDF5828C83A3A3E0642160030233
:100BB0000C6E7BFF7A2C79E9ED2406F582E43CF596
:100BC00083E0FEA3E0FFD39409EE9400400A7C008A
:100BD0007D097E007F0980009000B7EEF0A3EF0250
:100BE0000C6112003EFFC413540364016003020C45
:100BF0006EEF541F6401707612004BFCA3E04C7042
:100C00006D8F828E83A3E024FE602224F8705F1231
:100C1000005DA3E07058EF2406120055FEA3E04EDD
:100C2000704C12003E12006C20E043803C12005DCC
:100C3000E0FCA3E04C7037EF2406120055FEA3E061
:100C400064014E702912003E12006C30E0209001C9
:100C5000587418F07B017A0179589000B7E4F0A33A
:100C600004F0C203E4FF12122EE49000B2F09000F0
:100C7000B2E0FF221202F17B007A0079009000932B
:100C80001202F1E4900096F0229000001202D1903E
:100C900000971202F190009A227A0179127B01905A
:100CA00000931202F190009622E92401F9E43AFA45
:100CB0007D017E007F2002056F7F207E007D007B0E
:100CC000007A0079210203C97A007900A30202F1B7
:100CD0007446F01B7A007900A30202F17E007D00C9
:100CE0007B011203C990000B0202D17428F07A0034
:100CF00079007B01A30202F17BFF74019000ABF04D
:100D00007FC022FF1202D1E92FF9EA35F0FA9000F4
:100D100011E0FEC313227D017BFF7A2379767F01E8
:100D200002056F7428F07A00790EA30202F1120214
:100D3000D18F8275830002018D7D017B017A00795C
:100D40000022A801FC0202D17428F00B7A00798BF2
:100D5000A30202F19000137401F0227407F07A00EC
:100D60007925A30202F19000291202F190001DE002
:100D7000227D0190000F1202D17E002290009F027E
:100D800002D19000A30202D10B7A007954A322E48D
:100D9000FDFC9000B574FFF090019DE0648060035D
:100DA000020EA090019FE0FAA3E09000B1F0EAFFEC
:100DB000E46003020E7CEF24FE602814604A2402E3
:100DC0006003020E7C9000B1E06003020E7C900193
:100DD000BB12205D9001BB1202D11201747C00FD98
:100DE000020E7C9000B1E06003020E7C9001BE1206
:100DF000205D9001BE1202D1900002120204FAE5B9
:100E0000F0FFEAFCEFFD80749001C11202D1900066
:100E1000B1E0FF75F003A4F58285F08312031A1286
:100E20002060EF700CFC7D049001A5E05480F08000
:100E30004B12204EFF4E600AEF64097003EE64040B
:100E4000703A90019AE0FF9000B1E0C39F502DA34B
:100E50001202D190000112018D7C00FD1201745428
:100E60007FFF9001A5E054804FFFF09000B3E47540
:100E7000F0011201EEEF44809001A5F0ED4C6020EE
:100E80009001A3E0FEA3E0FFC39DEE9C5004AC06DE
:100E9000AD079000B21202D11228E4E49000B5F040
:100EA0009000B5E0FF229001ACE01392039001A9FD
:100EB000E0FEA3E0FFC39440EE940040047F408036
:100EC000009000B0EFF0A3F09001A5E0FF547F6424
:100ED000017056EF30E721A31202D1C2057D02E472
:100EE000FF121F5C75F0021221FF9000B0E024FE9B
:100EF000F09001A5E0547FF0E49000B2F09000B0D3
:100F0000E0C313FF9000B2E0C39F503812221412C6
:100F10000F9675F0011221FF7BFF7A2D7959120F80
:100F2000969000B2E004F080D49000B0122212C279
:100F300005E4FF121F5C9000B0E0FF9001A7E48F72
:100F4000F01201EE9001ACE054FBF09000B1E0FF34
:100F5000FD12221A9400FCF0A3EDF04C701EEF6419
:100F600040601975AE1175AF0AE5AE20E7FB12219E
:100F7000F8E49001A5F09001ACF0800B75AE11750E
:100F8000AF02E5AE20E7FB30030B9000B11221E386
:100F9000FDFF12295C22C2057D01E4FF121F5C22C5
:100FA000C2037F01122BC4122B88501575AE94E535
:100FB000AE20E7FB53AFBFE5AE20E70302108B8006
:100FC000F6122BA1400302108B122C6F9000B0EF91
:100FD000F09001B9E06403600EA3E04402F09000D9
:100FE000B174F9F002106A9000B0E0FDFFC3900107
:100FF000B8E09F9001B7E0940050139001B97401DC
:10100000F0A3E04402F09000B174F2F0805C900133
:10101000B41202D17F011221099001BAE054FDF00F
:101020009000B0E0FFFD7C00C39001B8E09DF0901F
:1010300001B7E09CF09001B5EC8DF01201EE90014B
:10104000B7E07002A3E06005EF644060089001B96A
:101050007401F0D203E49000B1F075AE94E5AE20D7
:10106000E7FB53AFFEE5AE20E7FB9001BAE030E0CE
:101070001A30030354FEF09000B1E0FD9000B0E0A0
:101080009001B71228A97F0212295C22C0E0C0F0AB
:10109000C083C082C0D075D000C000C001C002C0F3
:1010A00003C004C005C006C007122BCF9000ACEFF0
:1010B000F0122BDA9000ADEFF0122BE59000AEEFBE
:1010C000F0122BF09000AFEFF09000ACE0FC30E3BA
:1010D000379001ACE0FE30E1089001ABE0640360C2
:1010E0000BEE30E20E9001ABE0B402079000ADE0F1
:1010F0004401F09001BAE030E10E9001B9E0B40390
:10110000079000AEE04402F0EC30E2031225A0901C
:1011100000ACE030E103122C4B9000ACE030E00377
:10112000122B1E9000ADE030E1031217DF9000AEED
:10113000E030E103120FA09000ADE030E0031215A3
:10114000DE9000AFE0FF122BC4D007D006D005D050
:1011500004D003D002D001D000D0D0D082D083D030
:10116000F0D0E03290000B1202F112028D74FFFBFE
:10117000FAF9F8C312026960037F002290000B1293
:1011800002D190000412018D24DE605424FE70030D
:1011900002121B240360030212287B007A007900EC
:1011A0009000931202F1E4900096F01227C77F1B83
:1011B000121735EF90000B701D1227EEA801FCAD41
:1011C0000390000F1202D17E007F2012056F1227BC
:1011D000E375F02080051227E6F5F012023C80341A
:1011E00090000B1227EEFA9000931202F1900096F5
:1011F0007414F07B001227C77F161217351227E3ED
:1012000075F00112023CEF7F0070027F0190000731
:10121000EF1201CC7D401223C180107F007E007D43
:10122000127C00122C0680037F00227F0122900096
:10123000B3EFF0A31202F19000BBE5A7F09000B36A
:10124000E0600814600580007FFC229000B3E0FE9F
:10125000600B90019BE0640660037FF722EE900034
:10126000B91220A6FF64016009EF7FFEB405027F7A
:10127000FB22122C6892041220D39000B41202D1E7
:101280009000B91220EA9000B7E0FCA3E0FD8F8245
:101290008E83A3A3A3ECF0A3EDF09000B91220C5B8
:1012A0007402F0A203E4335401FBEF24061220CCB5
:1012B000E054FE4BF09000B3E014600C04702990F1
:1012C00001ACE04404F08020D3ED9440EC94004065
:1012D000047D4080069000B7A3E0FD9001AD1202AE
:1012E000D1D2057F01121F5C3004031220DA900076
:1012F000BBE0F5A77F00229000B11220667004A326
:10130000E0640260030213B790019FE07002A3E063
:1013100060030213B790019DE0FF20E7030213B7BB
:1013200012206E50030213B7E49001D9F0A3F0EF3E
:10133000541F146022146030240270699001A1E0EF
:101340007002A3E0705F122C9F50499001D9E044D5
:1013500001F0A3E0F08049C39001A2E09401900164
:10136000A1E09400503F803812204EFF547F4E7011
:101370000990019BE0B40402802690019BE0B40632
:1013800024EF247F60102480701B9001B9E0B40624
:1013900003122092800A9001B2E0B4060312209258
:1013A000E49000B1F09000B1E0700C7B017A01791B
:1013B000D97D02FC1228E49000B1E0FF2290009F4A
:1013C0001202F19000A2EDF09000ABF07FC012008D
:1013D000039000A6EFF0E50B30E6037FFF22E50B5C
:1013E00030E4057F06122C759000A2E0FF9000A665
:1013F000E0FED39F502DEEC394044027120D7CEEE7
:101400007E0029F9EE3AFA90FFFE120204FAE5F0A6
:10141000FFEAFE9001CEE06E7003A3E06F60087FEC
:101420001580177F1680139000A6E0B40412120DE9
:101430007C90000112018DFF6006122C757FFF2247
:10144000120D82E94A4B60279000A6E024FDFF12AE
:101450000D82EF1201BA120D7CE92401F9E43AFA87
:10146000C003C002C001120D8290000112034A9015
:1014700000A6E0FF22900018EFF0A3EDF0A3120207
:10148000F1120D66FE2DFDE433FCD3ED9404EC6403
:1014900080948040037FFF22EEC394045044900068
:1014A00018E0FB7A00C002C0037B00120C7B0B7AB1
:1014B00000791EA3120C92120D5BD003D0027F02A2
:1014C000121520120D66FF7E009000261202D190A8
:1014D0000019E07C0029F9EC3AAD03A3120D421289
:1014E000056F900018E0FB7A00C002C0039000294D
:1014F0001202D1120C9F7404F07B017A00791EA3B2
:10150000120C92120D5BD003D0027F121215201222
:1015100001746009F404FF122C757FFF227F002202
:10152000E4FD1217359000261202D1229000B1740A
:10153000FFF090019FE0FCA3E0FDEC60030215D8F2
:1015400012205660030215D89001A3E07002A3E0B8
:1015500060030215D89001A1E07002A3E0707990B9
:10156000019BE064047032ED4C600F122042FF904A
:10157000019FE07003A3E06F705E12209C12204276
:10158000FF90019FE0B4000FA3E0B5070AD2031259
:1015900029227F06122523803A122081703A900179
:1015A0009FE0FEA3E0FF4E600E122042FD7C00EFA4
:1015B000B50525ECB5062112209C90019FE0700234
:1015C000A3E0700A7F041225231226C28005C203FD
:1015D000122922E49000B1F09000B1E0FF22E4FF74
:1015E000122BC4122B614005122B54501C75AE11E6
:1015F000E4F5AFE5AE20E7FB75AE1175AF80E5AE63
:1016000020E7FB1221F8E4A3F0122B95506D900116
:10161000ACE0FF30E30280609001ABE06401704811
:101620009001A5F01222267E017F9D120B25BFFDA1
:101630001590019DE0FFC41354037005121DF68040
:101640003A122A43803590019DE020E72E9001ABAD
:10165000E0640360269001A3E07002A3E0601C90A8
:1016600001ACE04408F080139001ABE0B403051234
:1016700019B880079001ACE04402F09001ABE0B4EF
:101680000208122B6E4003120EA6229000B1122007
:10169000667002A3E0600302172F12205624FE603A
:1016A0000302172F90019FE07002A3E0600302176E
:1016B0002F12204E547FFF4E700C12206E4007E414
:1016C0009000B1F08069C3EF9403EE940050601273
:1016D0002081705B9000B1122088122BC49001A26F
:1016E000E030E70B75AE1175AF40E5AE20E7FB903B
:1016F00001A2E020E71875AE94E5AE20E7FB53AFFA
:10170000DFE5AE20E7FB43AF80E5AE20E7FB9001CD
:10171000A2E0247F600E248070159001B9E064037C
:10172000600D80089001B2E0640260037401F090E3
:1017300000B1E0FF2290008FEFF0A3EDF0A3EAF0FC
:10174000A3EBF0E490009EF0122AFD90008FE0FFE2
:10175000A3E0FD9000931202D19000A31202F19039
:101760000096E09000A6F0900091E0FAA3E0FB1252
:10177000240ABFFF1A7F0A7E007D007C00122563C9
:1017800090009EE004F0E0D3940840BF7FFF2290D9
:10179000009AE0FDA31202D19000A31202F1900082
:1017A000971202D11213BDEFF4702E90009EE00448
:1017B000F0E0D3940540037FFE22122C7BEF700AE9
:1017C00090008FE0FF12299480C590008FE0FFE425
:1017D000FCFDFE12256302174B122C2F7F00227F87
:1017E00001122BC4122B7B501075AE11E4F5AFE53E
:1017F000AE20E70302188380F69001B2E064026035
:10180000030218831228B99440EE940040047F40EC
:1018100080009000B0EFF07E00C39001B1E09FF037
:101820009001B0E09EF09001AEEE8FF01201EE90CC
:1018300001B3E01392031228B99400EE9400402201
:10184000D3EF9440EE940040047D4080069001B0B8
:10185000A3E0FD9001AD1202D1D2057F01121F5C01
:10186000800D9001B3E054FEF09001B27401F030AD
:1018700003119000B0E09001B01228A9E4FD7F01AF
:1018800012295C2290000C1202F1900013E5A7F0DF
:10189000EF600924FE600580007FFC22EF600B9062
:1018A000019BE0640660037FF722EF900011122095
:1018B000A6FF64016009EF7FFEB405027FFB2212E0
:1018C0002C6892011220D390000C1202D1900011CA
:1018D0001220EA90000FE0FDA3E08F828E83A3A385
:1018E000A3CDF0A3EDF09000111220C57403F0A277
:1018F00000E4335401FDEF24061220CCE054FE4DE9
:10190000F0900011E0FEA3E024061220CCE054F792
:10191000F03001031220DA900013E0F5A77F0022D7
:1019200090000C1202F190000FE5A7F01220D312E4
:101930002CA2E4FF74992FF582E43401F583E4F0DE
:101940000FEFB42BEF1220E41202FA9001BB122029
:10195000E190000312031A9001BE1220E1900006EC
:1019600012031A9001C11220E190000912018D901A
:10197000019AF012210275A72043B32075A72053C6
:10198000B57F75AE0175AF08E5AE20E7FB75AE0B10
:1019900075AF0FE5AE20E7FB122A1590019B74038B
:1019A000F01220DA90000FE0F5A775AE0175AF01D7
:1019B000E5AE20E7FB7F00229001ACE0139203121A
:1019C0002BFB9000B0EFF0C39001AAE09F9001A91B
:1019D000E0940050101221F8A3E04402F09000B10E
:1019E00074F2F080539000B0122212E4FF12210929
:1019F0009000B0E0FFFD7C009001A7EC8DF012019B
:101A0000EE12221A9CFCF0A3EDF0E49000B1F0ED90
:101A10004C701AEF6440601575AE1175AF48E5AEB5
:101A200020E7FB1221F8A3E054FEF0800B75AE1105
:101A300075AF40E5AE20E7FB30030F9000B1E0FD4D
:101A40009000B01221E3FF12295C229000B1122015
:101A5000667002A3E06003021AD712205624FE70BB
:101A60007612204E547FFF4E700C12206E4007E419
:101A70009000B1F08061C3EF9403EE940050589051
:101A8000019FE07002A3E0704E1220817049900027
:101A9000B1122088122BC49001A2E030E70B75AE82
:101AA0001175AF10E5AE20E7FB9001A2E020E71032
:101AB00075AE94E5AE20E7FB43AF20E5AE20E7FB33
:101AC0009001A2E0247F60092480700B9001B9800E
:101AD000039001B27406F09000B1E0FF22787FE439
:101AE000F6D8FD758166021B240205EFE493A3F886
:101AF000E493A34003F68001F208DFF48029E49325
:101B0000A3F85407240CC8C333C4540F4420C8831B
:101B10004004F456800146F6DFE4800B010204081D
:101B2000102040809022D1E47E019360BCA3FF543A
:101B30003F30E509541FFEE493A360010ECF54C06B
:101B400025E060A840B8E493A3FAE493A3F8E493F3
:101B5000A3C8C582C8CAC583CAF0A3C8C582C8CAFB
:101B6000C583CADFE9DEE780BEAE07E4FB122BC403
:101B7000300513A80674107E00088005C333CE33E9
:101B8000CED8F9FF8013AF0674207E00A807088026
:101B900005C333CE33CED8F9FFD3ED9FEC9E50046E
:101BA000EB4480FB300604EB4440FB300421EB4463
:101BB00020FB3005034404FB75AE1175AF40E5AE64
:101BC00020E7FB75AE128BAFE5AE30E72780F975E5
:101BD000AE1475AF80E5AE20E7FB75AE15AF038F91
:101BE000AFE5AE20E7FB20050B75AE12E4F5AFE5DF
:101BF000AE20E7FB229000181202F1E490001DF0E5
:101C0000A3F090001BF090001BE0FFC39404506D04
:101C1000EF75F008A4FBAAF0C002C003120C779085
:101C20000018120C8C7428F07B017A00791FA31223
:101C300002F1D003D0027D807F02121735E49000BC
:101C40001CF090001FE0FF90001CE0FDC39F50259A
:101C5000A3E0FEA3E0FF9000201202D18D82120DBE
:101C600033FD121C7E90001DEEF0A3EFF090001CDF
:101C7000E004F080CD90001BE004F0808922AB07E7
:101C8000AA06EB6DFB30E0051228298003122839E3
:101C9000AA06AB07EB30E005122829800312283989
:101CA000AA06AB07EB30E005122829800312283979
:101CB000AA06AB07EB30E005122829800312283969
:101CC000AA06AB07EB30E005122829800312283959
:101CD000AA06AB07EB30E005122829800312283949
:101CE000AA06AB07EB30E005122829800312283939
:101CF000AA06AB07EB30E005122829800312283929
:101D000022AD07AC06EC5455FEED545525E0FBEE34
:101D100033FAEC54AAFEED54AAFFEEC313FEEF1300
:101D200012284FFDEC5433FEED54337802C333CE0A
:101D300033CED8F9FBAA06EC54CCFEED54CC780295
:101D4000CEC313CE13D8F912284FFDEC540FFEED7D
:101D5000540FC4F8540FC868FBEEC454F048FAECB2
:101D600054F0FEED54F0FFEEC4F854F0C868FEEFF6
:101D7000C4540F4812284FFAECFFEAFE2290000EDE
:101D80001202F17BFF7A23797D9000121202F17A20
:101D900023799E9000151202F1E4900011F090005A
:101DA00011E0FFC39410503BEF75F002A4A3120D95
:101DB000032405FFEE7D0030E0027D02121DEC9051
:101DC0000011E075F002A4900015120D032418FF15
:101DD000EE7D0030E0027D02121DEC900011E00467
:101DE000F080BB90000E1202D1021BF590001D7412
:101DF00002F012147522E49000B0F090019EE012FF
:101E000003A31E21001E26011E2B031E30051E35B6
:101E1000061E3A081E3F091E440A1E490B00001EFA
:101E2000531212F7802612168B8021121A4B801C37
:101E3000121E6E8017120D8F801212227D800D12DD
:101E4000152C80081224E180031226549000B0EF74
:101E5000F080069000B074FFF0E4FF122BC49000F5
:101E6000B0E0B4FF03122A439000B0E0FF229000DC
:101E7000B174FFF090019FE0FEA3E0FFC39480EEF9
:101E80009400505C9001A3E07002A3E07052122015
:101E900056704D9001A1E07002A3E0704390019B49
:101EA000E0B4030BEF4E601D7F04122523801690D3
:101EB000019BE0B4041490019FE07002A3E0700560
:101EC0007F03122523E49000B1F09000B1E0701080
:101ED000F5AE90019FA3E04480F5AFE5AE20E7FBAF
:101EE0009000B1E0FF229000B6EFF0E49000B9F06E
:101EF000A3E5A7F09000B6E0FF6005C39403400897
:101F00009000B974FCF08042122C6892041220D325
:101F10009000B6E01220F6FEAF01A31220B46401D7
:101F200060289000B6E024FE600A04700C7F011265
:101F3000272D80057F011227619000B71220C574FC
:101F400001F0EF24061220CCE4F03004031220DA72
:101F50009000BAE0F5A79000B9E0FF229000BCEF36
:101F6000F0A3EDF0A31202F1E5AE20E7FB9000BC78
:101F7000E04420F5AE9000BEE01460142403601C21
:101F800014602314702A1228A0AD01122A9C80200C
:101F90001228A0AC02AD01122A8680141228A0AD2E
:101FA00001122AB0800A1228A0AC02AD01122A2C1C
:101FB00030051D9000BCE0FFD394004013122BC4E9
:101FC00075AE91E5AE20E7FB43AF01E5AE20E7FB40
:101FD0002290007CEEF0A3EFF0A31202F112245342
:101FE000E4FF900081120D2EFE90007E120D2E6EE9
:101FF000FE74212FF8A6060FEFB424E678457C0086
:102000007D009000841202D1120CB27B007A00791C
:1020100021120C9F7444F0A3120C927428F00B7AD6
:10202000007987A31202F190007CE0FAA3E0FB7D27
:10203000407F46121735EF60057EFF7FFF22E4FEEA
:10204000FF229001BE1202D190000502018D900185
:10205000A1E0FEA3E02290019DE0541F221202D1D4
:102060009000B20202F174FFF09001A3E02290010F
:102070009BE0C3940422D205C2067D407C007F0110
:102080002290019BE0640622F09001A1A3E0547F1E
:10209000FF229001D97401F0A3E4F02290019FA3E4
:1020A000E0900199F02275F007A424A6F974013597
:1020B000F0FEAF01F0A3EFF08E832405F582E43546
:1020C00083F583E022E0FEA3E0FF2405F582E43EF1
:1020D000F5832275A71053CEFE2275A71043CE01BB
:1020E000221202F190000C0202D1E0FEA3E0FFF503
:1020F000828E830202F175F007A424A6F9740135DB
:10210000F02275A72053B5F8229000B2EFF09000AE
:10211000B41202F19000B3EDF0D39400404CE5AE60
:1021200020E7FB9000B2E0FE44E0F5AE9000B4E0A2
:102130001460152403602324FE702F9000B312282E
:10214000A3AD01AB0602293F9000B31228A3AC0255
:10215000AD019000B2E0FB0228C39000B31228A3A7
:10216000AD019000B2E0FB1229032290008412021C
:10217000F1900087EDF0E4A3F07597A5900087E05B
:10218000FF14F0EF6045900084E475F0011202DA6C
:10219000120174FF9000C9E0FE04F074122EF58263
:1021A000E43401F583EFF09000C9E0B440CE120CA6
:1021B000997440F0A3120C92120CD07B407D017FE9
:1021C00047121735E49000C9F080B122F582E43C53
:1021D000F583E0FCA3E0FAECFFEAFE9000B0E0FC3F
:1021E000A3E022E0FB7A009001A9E0FFA3E09000C9
:1021F000B7CFF0A3EFF0E4229001AB7401F022908E
:1022000001A7E40201EEF582E43CF583EEF0A3EFD2
:10221000F022E0FD9001A60202D1C39001AAE09D48
:10222000FD9001A9E0227E017F9D9000B0EEF0A319
:10223000EFF0AA06F97B017D08E4FF12210975AED3
:102240001175AF40E5AE20E7FB9000B0E0FEA3E0E3
:10225000F5828E83A3A31221D2FDF5828C83A3A3E2
:10226000EEF0A3EFF0ED24041221CCFD24041222A1
:1022700006ED24061221CC2406122206227FFF90AE
:1022800001A1E07002A3E0704790019FE07002A3FB
:10229000E0703D9001A3E07004A3E0640170319010
:1022A000019DE0FE30E729541F702590019BE0B4AA
:1022B00004087BFF7A2D7959800D90019BE0B406CC
:1022C0000F7B017A0179997D017C001228E4E4FFFB
:1022D00022040F000000000113004301C7000000AA
:1022E000010A00010E00010800010D004301C400B5
:1022F00000004301CB000000010C00010900410176
:10230000CA004201CE0000011400010B004100C9C7
:10231000004100C4004100C3004200C1000042016E
:10232000DB017E0090007C1202F17F1C120CBB7856
:102330003D7C007D0090007C1202D17E007F241243
:10234000056F1226F890007F1202D17D2012216BBA
:10235000752146752240900082A3E0F523E4F52420
:102360007525EE752601752723FB7A0079217D40BE
:1023700012216B0225DD0200010000000083718143
:10238000018371C101837183718371C17101018303
:10239000718371C1718371837183718371001300C3
:1023A0003C0013003C0013003C0013003C003C00C8
:1023B0003C0013003C0013003C00130033000030CD
:1023C0004490007C1202F190007FEDF0E4A3F090C5
:1023D000007C1202D190007FE0FF9000B7E4F0A3F0
:1023E000EFF0C2037F0112122EEF601D7F027E000C
:1023F0007D007C00122563900080E0FF04F0EFD3A5
:10240000941E40CB7F14122C75229000A1EAF0A3F9
:10241000EBF0AE057515039000A6E0FD2407F51658
:102420008F17AF068F189000A2E0F5199000A1E079
:10243000F51A9000A31202D11229C97B007A007903
:10244000157406120CFC122856E50B7F0030E602CC
:102450007FFF22120CB97B007A007921120C9F7445
:1024600020F0A3120C92120D48E41BFA7D037F1694
:10247000121735EF6002801A120C777A007921A3C7
:10248000120C92120D487A007D027F15121735EF5B
:1024900060057EFF7FFF22E4FEFF2290000BE5A790
:1024A000F0122C87122C53122C11122C8B122C1B75
:1024B000122C5A122AC4122AD7122AEA12002E12F9
:1024C0002C25120076122B2D122B3A122B47122C90
:1024D0008F122C93122C61122C3990000BE0F5A76F
:1024E0002212204EFF7DFFC39401EE94005031A3D1
:1024F000E07004A3E06401702790019FE07002A3E4
:10250000E0701D90019DE0B4811690019BE0B4063F
:102510000F7BFF7A2D79597D017C001228E4E4FDC0
:10252000AF05229000B2EFF090019BE09000B3F075
:10253000C39405400B9000B2E0940550031226C2EC
:102540009000B2E0FDB40506A3E090019CF090007D
:10255000B2E0FE90019BF09000B3E0FF6E600312CA
:102560002C422290009F1202C5AF12AE11AD10ACEA
:102570000F9000A31202C59000A31202B9C3E51286
:102580009BFFE5119AFEE51099FDE50F98FC900080
:102590009F1202B9D312026940057597A580D8220F
:1025A0001221F89001B27406F09001B9F075AE0FE7
:1025B00075AF8FE5AE20E7FB75AE0175AF01E5AEF7
:1025C00020E7FB75AE0B75AF0FE5AE20E7FB30B132
:1025D000047F0380027F01122523022CA19000C4F6
:1025E000E070037402F09000C4E0FD9000C9E0FFC9
:1025F000FB7A00C002C003120C99EFF0A3120C92F8
:102600007446F07A0079C5A31202F1D003D0027F9C
:1026100047121735E49000C4F02290007C120C742D
:1026200090007C120C8C7424F07B017A00797FA3DB
:102630001202F17B157A00E4FD7F0212173590003B
:10264000801202D190000212018D7004FE7F0122DF
:10265000E4FEFF227FFF9001A1A3E0FE90019FA373
:10266000E0FDEEC39401502290019BE0B4061B9064
:1026700001A3E07002A3E07011ED700E122056FE6F
:10268000BE0107C203122922E4FF2290007C120C33
:102690007490007C120C8C7424F07A00797F120CF8
:1026A000F27B157A00E4FD7F02121735900080124C
:1026B00002D190000312018D7004FE7F0122E4FE1E
:1026C000FF229000B5E5A7F0122C6892031220D3E8
:1026D0009000B47401F09000B4E0FFC39403500B79
:1026E000121EE69000B4E004F080EB3003031220E9
:1026F000DA9000B5E0F5A722E49000C9F09000C49C
:10270000E0FD9000C3E0FB7A00C002C0037B001232
:102710000C7B0B7A017912A3120C92120CD0D0030D
:10272000D0027F47121735E49000C3F022122BC469
:1027300075AE1175AF08E5AE20E7FB75AE91E5AE5D
:1027400020E7FBE5AF20E3F375AE1175AF08E5AE0A
:1027500020E7FB75AE91E5AE20E7FBE5AF20E3F3A4
:1027600022122BC475AE1475AF10E5AE20E7FB75D1
:10277000AE94E5AE20E7FBE5AF20E4F375AE14754B
:10278000AF10E5AE20E7FB75AE94E5AE20E7FBE5C4
:10279000AF20E4F322C0E0C0D075D000C005C00671
:1027A000C007C2CFE5122401FFE43511FEE4351065
:1027B000FDE4350F8F128E118D10F50FD007D00666
:1027C000D005D0D0D0E0327A007921A31202F19066
:1027D000009A7446F00B7A00790EA31202F1E41B02
:1027E000FAFD2290000B1202D1900005E4221202A1
:1027F000D1E92407F9E43A22EF600943DC028FEBC8
:102800008FEC800353DCFDEB600B43DA028BFBAFF4
:10281000038FFC800353DAFDED600A43DB028DE990
:10282000AF058FEA2253DBFD22EAC313FEEB13FF51
:10283000EE64A0FEEF6401FF22EAC313FEEB13FF78
:1028400022E49001CEF0A3F0F5149001CAE022FF3B
:10285000EE4AFCEF4B22E50B20E1FB12284144023B
:10286000F50BE4F09000ABE0F50A9001C71202F11D
:10287000E4F50E8F13D2C5E50B20E1FB22AD07ED89
:102880004480F5AEE5AE20E7FBAFAFEF7F00FEED95
:10289000144480F5AEE5AE20E7FBADAFEF4DFF226F
:1028A0009000BDE0FFA30202D1FB7A00E0FFA3E0AD
:1028B0009000B7CFF0A3EFF0229001B0E0FEA3E0CC
:1028C000FFD3228D828C831FEF600BE5AE20E7FBE8
:1028D000E5AFF0A380F1E5AE20E7FBEB4420F5AED9
:1028E000E5AFF0229001ABE0B401179001A612020F
:1028F000F1AF059001A9ECF0A3EFF0A37402F0E4AE
:10290000A3F022A8051FEF600BE5AE20E7FBE5AFC3
:10291000F20880F1E5AE20E7FBEB4420F5AEE5AF31
:10292000F22230030A9001B27401F09001B9F0D2A2
:1029300004122076121B69C204122076021B69A8B9
:10294000051FEF600AE5AE20E7FBA6AF0880F2E5C1
:10295000AE20E7FBEB4420F5AEA6AF229000B4ED2D
:10296000F0A3EAF0A3EBF0EFB402097B017A01795E
:1029700059122BADE4FEFF22900000AE11AF12E021
:10298000FCA3E0FDC3EF9DFDEE9CFCC3ED22900196
:10299000D00202ADEF24C060071470087E328006BA
:1029A0007E6480027E20AF06E4FCFDFE022563907B
:1029B000000B1202F175970712268BEF4E700990EB
:1029C000000B1202D1121D7D22E50B20E1FBAF05A9
:1029D0008F0C9001CB1202F1E4F5099001CAE0449A
:1029E00004F022EFC394034002D322EF1220F6F545
:1029F00083E91220BAB40102C322D3227E007F46AB
:102A00007D001203C9122C9B122C2FD296E4900148
:102A1000D4F0A3F022AFA79001AB7401F075A7200A
:102A200043B38075A72043B3408FA7228D828C8348
:102A3000AE071FEE600CE5AE20E7FBE493F5AFA315
:102A400080EE22E4FF122BC49001AB7405F075AE4A
:102A50001175AF20E5AE20E7FB229001C41202D130
:102A6000120174FFD3950850038F0822430B1022E4
:102A7000AD079001CEE0FEA3E0FF121C7E9001CED8
:102A8000EEF0A3EFF0228D828C83AE071FEE600B79
:102A9000E5AE20E7FBE0F5AFA380EF22A805AE0787
:102AA0001FEE600BE5AE20E7FBE6F5AF0880EF22F6
:102AB000A805AE071FEE600BE5AE20E7FBE2F5AF21
:102AC0000880EF22E4F5A7F5A9E5A930E7FB75A991
:102AD00003E5A930E7FB22AF885388AF758D30EF4F
:102AE0005440FEEF54104E428822E5C8540453C8A7
:102AF000FB75CB4475CA8043C80442C8227BFF7A69
:102B000023797A9000AB7402F07FC002285653C13B
:102B10007F43C180C2C5C2C4C2C1530BFD22900114
:102B20009BE0C3940240057F051225232253F77FC3
:102B300075DA4275FB9675FC962253F77F75DB427A
:102B400075E99675EA962253F77F75DC4275EB9628
:102B500075EC962275AE91E5AE20E7FBE5AFA2E4F9
:102B60002275AE91E5AE20E7FBE5AFA2E22275AE9D
:102B700091E5AE20E7FBE5AFA2E12275AE91E5AEAF
:102B800020E7FBE5AFA2E52275AE94E5AE20E7FBBA
:102B9000E5AFA2E62275AE91E5AE20E7FBE5AF1307
:102BA0002275AE94E5AE20E7FBE5AF13229001D489
:102BB0007401F09001D60202F18F82758300120138
:102BC0008DF51C2275AE0E8FAFE5AE20E7FB2275AA
:102BD000AE86E5AE20E7FBAFAF2275AE82E5AE2054
:102BE000E7FBAFAF2275AE84E5AE20E7FBAFAF22C7
:102BF00075AE8EE5AE20E7FBAFAF2275AE96E5AEC3
:102C000020E7FBAFAF229001D01202C57F02022C59
:102C100081E4F5A775A4D075D44C2275E34075E125
:102C20000575E20322758E1C758921438840227A3E
:102C3000237976120CF80228567BFF7A2D794F0201
:102C400019209000B4EFF0A3EDF02290019CE0FF7A
:102C500002252375A72075C6042275A71075C130FB
:102C60002275E68175A8A02275A710E5CE13227FF4
:102C70001712287D229001D5EFF0229001D5E0FFB8
:102C8000229001D4EFF022E4F5A72275A563224338
:102C9000C19F2243981022122B0E32E4F50B22C35F
:102CA00022222206D0F10901A1010920150026FFE8
:102CB000007508954081020921150026FF0075085E
:102CC00095409102C01201000200000040C410CFE4
:102CD0008A0001010203010902290001010080327A
:102CE000090400000203000004092111010001226F
:102CF0002200070581034000050705010340000588
:102D000004030904011A0353696C69636F6E204C54
:102D100061627300011203553246205A65726F00DA
:102D20000122034341464542414245464646464606
:102D300046464600011203553246205A65726F001E
:102D4000FF2D00FF2D04FF2D14FF2D20FF2D34FF3C
:0B2D50002CC5FF2CD7FF2D4005000014
:00000001FF
