:020000040000FA
:10000000021C8FE50B20E1FB12293F4403F50BE4B2
:10001000F0F50D8F139000DCE0F5089001791202E5
:10002000E1D2C5E50B20E1FBAF0822022861E59192
:1000300054045391FB4391044291220209C390005E
:10004000F01202E19000F31202B59000F312029D4B
:10005000C0079000F7E0FBE4FAF9F8D0071201DAE4
:100060009000F31202B59000F312029DEC4D4E4F3A
:1000700070D822022E35C2DED2DE22021181BB01EF
:100080000689828A83E0225002E722BBFE02E32235
:1000900089828A83E49322BB010CE58229F582E5FB
:1000A000833AF583E0225006E92582F8E622BBFE7A
:1000B00006E92582F8E222E58229F582E5833AF510
:1000C00083E49322BB010689828A83F0225002F7DF
:1000D00022BBFE01F322F8BB010DE58229F582E582
:1000E000833AF583E8F0225006E92582C8F622BB60
:1000F000FE05E92582C8F222C5F0F8A3E028F0C584
:10010000F0F8E582158270021583E038F022BB0119
:100110000A89828A83E0F5F0A3E022500687F0097D
:10012000E71922BBFE07E3F5F009E3192289828A69
:1001300083E493F5F074019322BB0110E58229F565
:1001400082E5833AF583E0F5F0A3E0225009E92542
:1001500082F886F008E622BBFE0AE92582F8E2F57D
:10016000F008E222E5832AF583E993F5F0A3E99309
:1001700022F8BB0111E58229F582E5833AF583E88F
:10018000F0E5F0A3F0225009E92582C8F608A6F0B0
:1001900022BBFE09E92582C8F2E5F008F22275F0DB
:1001A00008758200EF2FFFEE33FECD33CDCC33CC7C
:1001B000C58233C5829BED9AEC99E58298400CF597
:1001C00082EE9BFEED9AFDEC99FC0FD5F0D6E4CEC5
:1001D000FBE4CDFAE4CCF9A88222B800C1B90059F9
:1001E000BA002DEC8BF084CFCECDFCE5F0CBF978C6
:1001F00018EF2FFFEE33FEED33FDEC33FCEB33FB5A
:1002000010D703994004EB99FB0FD8E5E4F9FA22E3
:100210007818EF2FFFEE33FEED33FDEC33FCC933DE
:10022000C910D7059BE99A4007EC9BFCE99AF90FA6
:10023000D8E0E4C9FAE4CCFB2275F010EF2FFFEE12
:1002400033FEED33FDCC33CCC833C810D7079BEC5D
:100250009AE899400AED9BFDEC9AFCE899F80FD5D5
:10026000F0DAE4CDFBE4CCFAE4C8F922EB9FF5F038
:10027000EA9E42F0E99D42F0E89C45F022BB01076E
:1002800089828A8302029D5005E9F80205A9BBFE16
:1002900005E9F80205B589828A830205C1E0FCA35D
:1002A000E0FDA3E0FEA3E0FF22E0F8A3E0F9A3E075
:1002B000FAA3E0FB22ECF0A3EDF0A3EEF0A3EFF045
:1002C00022E0FBA3E0FAA3E0F922F8E0FBA3A3E01D
:1002D000F925F0F0E582158270021583E0FA38F016
:1002E00022EBF0A3EAF0A3E9F022BB010789828A9E
:1002F000830202C15005E9F80205D1BBFE05E9F809
:1003000002060A89828A8302062CBB010789828A37
:10031000830205F35006F8E9C80205DABBFE06F8C9
:10032000E9C802061389828A8302062CBB010DE507
:100330008229F582E5833AF5830202C15007E92557
:1003400082F80205D1BBFE07E92582F802060AE51C
:100350008229F582E5833AF58302062CBB0120E56C
:100360008229F582E5833AF583D0F0D0E0F8D0E039
:10037000F9D0E0FAD0E0FBE8C0E0C0F00202E150C2
:1003800018E92582F8D083D082D0E0F9D0E0FAD005
:10039000E0FBC082C0830205EABBFE18E92582F8B3
:1003A000D083D082D0E0F9D0E0FAD0E0FBC082C0A8
:1003B0008302062322D083D082F8E4937012740162
:1003C00093700DA3A393F8740193F5828883E4736B
:1003D0007402936860EFA3A3A380DFEF4E6012EF77
:1003E00060010EEDBB010B89828A83F0A3DFFCDE86
:1003F000FA2289F05007F709DFFCA9F022BBFEFCC6
:10040000F309DFFCA9F022E709F608DFFA807BE9AF
:10041000D39850F3E92FF9E82FF819E718F6DFFA27
:100420008068E709F208DFFA806080E388828C83C5
:10043000E709F0A3DFFA8052E309F608DFFA804A01
:10044000E9D398500EE92FF9E82FF819E318F2DFF5
:10045000FA8037E309F208DFFA802F88828C83E381
:1004600009F0A3DFFA802389828A83E0A3F608DFFC
:10047000FA801789828A83E493A3F208DFF9800A5D
:1004800089828A83E0A3F208DFFA02051980B1802D
:10049000F980A580C680DC80F18073801080838025
:1004A000E98087808780D980E180BC8073D3E99818
:1004B000EA9C5039E92FF582EA3BF583E82FF8EC06
:1004C0003BFC0582D5820215831582E493C8C58260
:1004D000C8CCC583CC0582D5820215831582F0C8AD
:1004E000C582C8CCC583CCDFD9DED7802E89828A6D
:1004F00083ECFAE493A3C8C582C8CCC583CCF0A32F
:10050000C8C582C8CCC583CCDFE9DEE7800D89820F
:100510008A83E493A3F608DFF9ECFAA9F0EDFB2255
:10052000D3E998EA9C5038E92FF582EA3BF583E855
:100530002FF8EC3BFC0582D5820215831582E0C8BA
:10054000C582C8CCC583CC0582D5820215831582AD
:10055000F0C8C582C8CCC583CCDFDADED880BC89C0
:10056000828A83ECFAE0A3C8C582C8CCC583CCF0EC
:10057000A3C8C582C8CCC583CCDFEADEE8809C80F6
:100580009888F08E83EF60010E4E608DED2402B4EA
:1005900004005085F582EB2402B4040050E12323CB
:1005A0004582AB832390048D73E6FC08E6FD08E6E4
:1005B000FE08E6FF22E2FC08E2FD08E2FE08E2FF98
:1005C00022E493FC740193FD740293FE740393FF81
:1005D00022E6FB08E6FA08E6F922FAE6FB0808E656
:1005E00025F0F9F618E63AFAF622EBF608EAF608EC
:1005F000E9F622F8E0FBA3A3E025F0F9F0E5821587
:100600008270021583E038FAF022E2FB08E2FA0871
:10061000E2F922FAE2FB0808E225F0F9F218E23AE0
:10062000FAF222EBF208EAF208E9F222E493FB7410
:100630000193FA740293F922E4900045F0A304F0C8
:10064000E4A3F0A3F0122572E4FBFDFF1228F67577
:1006500097047597A57A007921122B4BD2AF759725
:10066000A57BFF7A2B79A91229EBE5EF30E3069001
:1006700001937419F07B007A007921122954E4FB6C
:10068000FDFF1228F67597A5122A2D94F4EC94011B
:10069000400A90003FEEF0A3EFF080047E007F0060
:1006A000EF4E60197BFF7A2B79B4AF12AE11AD100B
:1006B000AC0F90004E1202B57D011228937F0212FA
:1006C0002B3240257F01122B32401E900192E064B4
:1006D0000160167B017A01790E90004EE4F0A3745C
:1006E00040F0D2007F02121A36900192E01470039B
:1006F0000207741470030207941470030207B224F3
:10070000036003020802900043122A30946EEC94B6
:1007100000400A900043EEF0A3EFF080047E007FDB
:1007200000EF4E7003020802900046E0FFB413058C
:10073000E4A3F0800AEFB401069000477401F09042
:100740000047E06015900046E0209507FB04F0E4C8
:10075000FD801AFD04F0E4FB8013900046E0209534
:1007600007FB14F0E4FD8005FD14F0E4FBFF122804
:10077000F60208029001941202C11210A2EF700951
:100780009001941202C1120850900192E06401702D
:1007900071F0806E122A431228F69000467401F020
:1007A000900041E511F0A3E512F09001927403F07E
:1007B0008050AE11AF12900041122A349496EC94FE
:1007C00000400A900041EEF0A3EFF080047E007F2D
:1007D00000EF4E6020900046E06007E4F0122A43EC
:1007E000800A9000467401F0E4FBFDFF1228F690A9
:1007F0000045E004F0900045E0B40506E4F0900107
:1008000092F0900193E0FF70030206857BFF7A2B44
:1008100079B89000BDE4F0A3EFF07D0112278FE4DA
:10082000FBFD7F381228F6E4900193F0122A2D94F4
:10083000D0EC9407400A90003FEEF0A3EFF0800464
:100840007E007F00EF4E60030206857597A580DC71
:1008500090004A1202E17E007F407D007B017A0019
:1008600079511203DB121EA612007E900051F02473
:100870007F605214605714606614700302095A2492
:100880000460030209A27BFF7A0C79E71229EB12BC
:100890001E2A0B7A007991A3121E427428F07A0066
:1008A000794DA31202E1E41BFA7D807F021218E762
:1008B00078537C00121E8F7F0F12058190005274B6
:1008C0000FF00209B77BFF7A0D790380067BFF7A70
:1008D0000D79191229EB9000527401F00209B71238
:1008E0001EA6900001120139FFAEF0900199EEF0C2
:1008F000A3EFF09000527401F07BFF7A0D793490F1
:1009000000BDEEF0A3EFF07D0112278F7B017A008E
:100910007991122495EF4E7036FBFAF9121E300BC6
:100920007A007991A3121E427428F01B7A00790094
:10093000A31202E1900199E0FAA3E0FBE4FD7F1726
:100940001218E7EF60717BFF7A0D793E0229EB7B8D
:10095000FF7A0C79D61229EB805D7BFF7A0D7956F0
:100960001229EB121E2A7A007921A3121E42744624
:10097000F00B7A00794DA31202E17B0F7A007D041F
:100980007F401218E77BFF7A0D796A90004D121EA6
:10099000591226B478517C00121E8F7F40120581B7
:1009A0008015121EA612007E9000BDF07BFF7A0D0E
:1009B00079787D011226B47B017A0079517D40124D
:1009C00024E022C0E0C0F0C083C082C0D075D00057
:1009D000C000C001C002C003C004C005C006C007FB
:1009E000E5C054F0F51B30C203020ADEE51B24808B
:1009F0007003020A8824C0601424E06003020ADE47
:100A0000E50B54014513F5C2C2C5020ADA20C1073D
:100A1000D2C4430B40806CE50B30E003020ADAE5F8
:100A20000EC3950A501B90017C1202C1AF0E050E39
:100A3000122D59E50ED394014024AF1C122BD68001
:100A40001DE50B30E21DE509C3950C5016900180A1
:100A50001202C1AF090509122D59FF122BD6851CB0
:100A6000C28077AF140514EF14600E1460132402D3
:100A70007068120B0FF5C28061900183E0F5C280AF
:100A800059D2C4530BFD8052E50DC39508504185E2
:100A9000C21C9001791202C1850D82758300E51C8C
:100AA0001200D6E50D7003122BC0E50824FEFFE509
:100AB0000DC39F5015900183E0FEA3E0FFAD1C1213
:100AC0001DA7900183EEF0A3EFF0050DD2C1800ABF
:100AD000120B0F530BFDC2C1D2C4C2C080167BFFE4
:100AE0007A2D79119000BDE51BF07D011226B4121C
:100AF0002C8AC2C0D007D006D005D004D003D002C3
:100B0000D001D000D0D0D082D083D0F0D0E03290CD
:100B10000183E0FEA3E0FF121EAC900183EEF0A380
:100B2000EFF0229000FCEEF0A3EFF0A374FDF012C2
:100B300027C4FFC41354036003020BE0EF1227F233
:100B400020E003020BE01227C4541F64016003027B
:100B50000BE0A3E024FA6003020C6C1227D1FCA383
:100B6000E04C6003020C6C8F828E83A3A3E06422AE
:100B700070287BFF7A2E79419000FCA3E0240612B6
:100B800027DBFEA3E0FFD39422EE9400400A7C0012
:100B90007D227E007F22803E803C9000FCE0FCA312
:100BA000E0FDF5828C83A3A3E064216003020C6C5A
:100BB0007BFF7A2E7987ED2406F582E43CF583E00D
:100BC000FEA3E0FFD39409EE9400400A7C007D0967
:100BD0007E007F098000900103EEF0A3EF020C5F1E
:100BE0001227C4FFC413540364016003020C6CEFAA
:100BF000541F640170761227D1FCA3E04C706D8FF6
:100C0000828E83A3E024FE602224F8705F1227E323
:100C1000A3E07058EF24061227DBFEA3E04E704CD1
:100C20001227C41227F220E043803C1227E3E0FCA5
:100C3000A3E04C7037EF24061227DBFEA3E064012B
:100C40004E70291227C41227F230E02090010D7453
:100C500018F07B017A01790D900103E4F0A304F010
:100C6000C203E4FF121325E49000FEF09000FEE0C2
:100C7000FF2202000100000000636F6E66696720BA
:100C80006372633A00312061746563635F777269F0
:100C900074655F656570726F6D206661696C65640F
:100CA0002000332061746563635F77726974655FE8
:100CB000656570726F6D206661696C656420007394
:100CC000657474696E6720757020636F6E666967FE
:100CD0002E2E2E0D0A00616C7265616479206C6F96
:100CE000636B65640D0A005532465F434F4E4649BB
:100CF000475F4745545F53455249414C5F4E554D00
:100D00000D0A005532465F434F4E4649475F4953EF
:100D10005F4255494C440D0A005532465F434F4EE1
:100D20004649475F49535F434F4E464947555245F1
:100D3000440D0A00676F74206372633A20004154C7
:100D40004543435F434D445F4C4F434B20666169CD
:100D50006C65640D0A005532465F434F4E46494765
:100D60005F47454E4B45590D0A006B657920697305
:100D70002062797465732000696E76616C69642005
:100D8000636F6D6D616E643A2000636F6E6F727099
:100D90007027732075326620746F6B656E2E0D0A96
:100DA0000000000000E4FDFC90010174FFF09001E0
:100DB00052E064806003020EB6900154E0FAA3E0B2
:100DC0009000FDF0EAFFE46003020E92EF24FE6063
:100DD0002814604A24026003020E929000FDE06035
:100DE00003020E9290017012211E9001701202C136
:100DF00012007E7C00FD020E929000FDE060030276
:100E00000E9290017312211E9001731202C1900084
:100E100002120139FAE5F0FFEAFCEFFD807490015F
:100E2000761202C19000FDE0FF75F003A4F5828503
:100E3000F08312032C122121EF700CFC7D04900131
:100E40005AE05480F0804B12210FFF4E600AEF648D
:100E5000097003EE6404703A90014FE0FF9000FDCA
:100E6000E0C39F502DA31202C19000011200977C95
:100E700000FD12007E547FFF90015AE054804FFF26
:100E8000F09000FFE475F0011200F8EF448090014B
:100E90005AF0ED4C6020900158E0FEA3E0FFC39DA6
:100EA000EE9C5004AC06AD079000FE1202C1122A5F
:100EB0004EE4900101F0900101E0FF22900161E019
:100EC00013920390015EE0FEA3E0FFC39440EE9412
:100ED0000040047F4080009000FCEFF0A3F0900100
:100EE0005AE0FF547F64017056EF30E721A31202ED
:100EF000C1C2057D02E4FF12208E75F00212231E8E
:100F00009000FCE024FEF090015AE0547FF0E49061
:100F100000FEF09000FCE0C313FF9000FEE0C39FD2
:100F20005038122333120FAC75F00112231E7BFFD1
:100F30007A2E79F7120FAC9000FEE004F080D49086
:100F400000FC122331C205E4FF12208E9000FCE069
:100F5000FF90015CE48FF01200F8900161E054FB17
:100F6000F09000FDE0FFFD1223399400FCF0A3EDAA
:100F7000F04C701EEF6440601975AE1175AF0AE554
:100F8000AE20E7FB122317E490015AF0900161F0C4
:100F9000800B75AE1175AF02E5AE20E7FB30030B99
:100FA0009000FD122302FDFF122AC622C2057D0118
:100FB000E4FF12208E22C2037F01122D64122D0441
:100FC000501575AE94E5AE20E7FB53AFBFE5AE20FC
:100FD000E7030210A180F6122D4140030210A11276
:100FE0002E139000FCEFF090016EE06403600EA3FE
:100FF000E04402F09000FD74F9F00210809000FCD3
:10100000E0FDFFC390016DE09F90016CE094005003
:101010001390016E7401F0A3E04402F09000FD749F
:10102000F2F0805C9001691202C17F0112222C90C3
:10103000016FE054FDF09000FCE0FFFD7C00C390E8
:10104000016DE09DF090016CE09CF090016AEC8DE8
:10105000F01200F890016CE07002A3E06005EF640C
:1010600040600890016E7401F0D203E49000FDF03E
:1010700075AE94E5AE20E7FB53AFFEE5AE20E7FB8F
:1010800090016FE030E01A30030354FEF09000FD51
:10109000E0FD9000FCE090016C1229D17F02122A41
:1010A000C62290004A1202E112027D74FFFBFAF997
:1010B000F8C312026C60037F002290004A1202C142
:1010C00090000412009724DE60531470030211583C
:1010D0002402600302117B7B007A0079009000C437
:1010E0001202E1E49000C7F01228C57F1B1218E736
:1010F000EF90004A701D1228ECA801FCAD0390008F
:101100004E1202C17E007F201205811228E175F087
:101110002080051228E4F5F0120171805790004AF2
:101120001228ECFA9000C41202E19000C77414F087
:101130007B001228C57F161218E7900051EFF012BD
:1011400028E175F001120171EF7F0070027F0190BC
:101150000007EF1200D6801C1228E175F001120181
:10116000719000517401F07F0070027F01900007C0
:10117000EF1200D67D401224E080037F00227F0121
:1011800022C0E0C0F0C083C082C0D075D000C000D3
:10119000C001C002C003C004C005C006C007122DB4
:1011A0006F9000F8EFF0122D7A9000F9EFF0122D09
:1011B000859000FAEFF0122D909000FBEFF0900078
:1011C000F8E0FC30E337900161E0FE30E108900187
:1011D00060E06403600BEE30E20E900160E0B40268
:1011E000079000F9E04401F090016FE030E10E90CB
:1011F000016EE0B403079000FAE04402F0EC30E244
:10120000031226779000F8E030E103122DE99000F8
:10121000F8E030E003122C9A9000F9E030E103127C
:1012200019919000FAE030E103120FB69000F9E056
:1012300030E0031217909000FBE0FF122D64D007FE
:10124000D006D005D004D003D002D001D000D0D039
:10125000D082D083D0F0D0E03290004D1202E17AFB
:10126000007955121E617A007957121E619000555F
:10127000E054F04403F04480F0A3E0540F44A0F0A5
:10128000E4900054F0900054E0FEC3132405FFEEF8
:101290007D0030E0027D027A007955121318600A51
:1012A0007A0C7985121E541226B4900054E004F092
:1012B000E0C3941040CF900057E04401F04402F0A6
:1012C00054E34410F054DFF0E4900054F0900054E4
:1012D000E0FFC394105038EFB40F07900057E0447C
:1012E00020F0900054E0FEC3132418FFEE7D003080
:1012F000E0027D027A007957121318600A7A0C799D
:10130000A2121E541226B4900054E004F080BE9045
:10131000004D1202C10214B47B0190005E7402F011
:10132000121627EF229000FFEFF0A31202E19001C6
:1013300007E5A7F09000FFE0600814600580007FDB
:10134000FC229000FFE0FE600B900150E06406601C
:10135000037FF722EE900105122167FF6401600907
:10136000EF7FFEB405027FFB22122E0692041221AB
:10137000949001001202C19001051221AB9001036B
:10138000E0FCA3E0FD8F828E83A3A3A3ECF0A3ED8A
:10139000F09001051221867402F0A203E433540197
:1013A000FBEF240612218DE054FE4BF09000FFE08D
:1013B00014600C047029900161E04404F08020D393
:1013C000ED9440EC940040047D408006900103A31E
:1013D000E0FD9001621202C1D2057F0112208E3021
:1013E000040312219B900107E0F5A77F00229000E3
:1013F000FD1221277004A3E0640260030214AE9082
:101400000154E07002A3E060030214AE900152E0C8
:10141000FF20E7030214AE12212F50030214AEE4A2
:10142000900197F0A3F0EF541F1460221460302451
:10143000027069900156E07002A3E0705F122E3DC9
:101440005049900197E04401F0A3E0F08049C39037
:101450000157E09401900156E09400503F8038120B
:10146000210FFF547F4E7009900150E0B4040280B8
:1014700026900150E0B40624EF247F601024807091
:101480001B90016EE0B40603122153800A9001679D
:10149000E0B40603122153E49000FDF09000FDE05B
:1014A000700C7B017A0179977D02FC122A4E900024
:1014B000FDE0FF229000591202E1E490005EF0A3EB
:1014C000F090005CF090005CE0FFC39404400302E5
:1014D0001551EF75F008A4FBAAF0C002C003121E5C
:1014E0002A900059121E3C7428F07B017A00796022
:1014F000A31202E1D003D0027D807F021218E7E43C
:1015000090005DF0900060E0FF90005DE0FDC39F03
:101510005028A3E0FEA3E0FF9000611202C18D827B
:10152000758300120097FD121DA790005EEEF0A3D8
:10153000EFF090005DE004F080CA9000611202C1FB
:10154000900060E0FD12228E90005CE004F0021436
:10155000C590005EE0FEA3E0FF121EAC9000BDEE61
:10156000F0A3EFF07BFF7A0C79797D0102278F9051
:1015700000D01202E19000D3EDF09000DCF07FC0CB
:101580001200039000D7EFF0E50B30E6037FFF2257
:10159000E50B30E4057F06122E199000D3E0FF9092
:1015A00000D7E0FED39F502DEEC394044027121EB7
:1015B0009AEE7E0029F9EE3AFA90FFFE120139FA0E
:1015C000E5F0FFEAFE900183E06E7003A3E06F6038
:1015D000087F1580177F1680139000D7E0B404129F
:1015E000121E9A900001120097FF6006122E197FBA
:1015F000FF22121EA0E94A4B60279000D7E024FD8D
:10160000FF121EA0EF1200C4121E9AE92401F9E491
:101610003AFAC003C002C001121EA09000011203DA
:101620005C9000D7E0FF22900059EFF0A3EDF0A30B
:101630001202E1121E84FE2DFDE433FCD3ED94046E
:10164000EC6480948040037FFF22EEC394045047F3
:10165000900059E0FB7A00C002C0037B00121E2EEE
:101660000B7A00795FA3121E42121E79D003D002BA
:101670007F021216D2121E84FF7E009000671202B3
:10168000C190005AE07C0029F9EC3AA801FCAD03B6
:10169000A31202C1120581900059E0FB7A00C0023A
:1016A000C00390006A1202C1121E6C7B017A00799D
:1016B0005FA3121E42121E79D003D0027F121216AF
:1016C000D212007E6009F404FF122E197FFF227FE0
:1016D0000022E4FD1218E79000671202C122900078
:1016E000FD74FFF0900154E0FCA3E0FDEC60030208
:1016F000178A122117600302178A900158E07002BE
:10170000A3E0600302178A900156E07002A3E07024
:1017100079900150E064047032ED4C600F122103A7
:10172000FF900154E07003A3E06F705E12215D1220
:101730002103FF900154E0B4000FA3E0B5070AD2E3
:1017400003122A8C7F061225FA803A122142703A3F
:10175000900154E0FEA3E0FF4E600E122103FD7CD9
:1017600000EFB50525ECB5062112215D900154E08E
:101770007002A3E0700A7F041225FA12275980052F
:10178000C203122A8CE49000FDF09000FDE0FF22DD
:10179000E4FF122D64122CDD4005122CD0501C7574
:1017A000AE11E4F5AFE5AE20E7FB75AE1175AF8085
:1017B000E5AE20E7FB122317E4A3F0122D35506DA0
:1017C000900161E0FF30E3028060900160E064011D
:1017D000704890015AF012239D7E017F52120B2314
:1017E000BFFD15900152E0FFC41354037005121F92
:1017F00028803A122B928035900152E020E72E90FB
:101800000160E064036026900158E07002A3E0608C
:101810001C900161E04408F08013900160E0B40383
:1018200005121B6A8007900161E04402F09001609C
:10183000E0B40208122CEA4003120EBC229000FD14
:101840001221277002A3E060030218E1122117247D
:10185000FE60030218E1900154E07002A3E060030F
:101860000218E112210F547FFF4E700C12212F40FD
:1018700007E49000FDF08069C3EF9403EE940050FC
:1018800060122142705B9000FD122149122D64907C
:101890000157E030E70B75AE1175AF40E5AE20E7BC
:1018A000FB900157E020E71875AE94E5AE20E7FB0A
:1018B00053AFDFE5AE20E7FB43AF80E5AE20E7FBAB
:1018C000900157E0247F600E2480701590016EE037
:1018D0006403600D8008900167E064026003740196
:1018E000F09000FDE0FF229000C0EFF0A3EDF0A328
:1018F000EAF0A3EBF0E49000CFF0122C799000C056
:10190000E0FFA3E0FD9000C41202C19000D41202D7
:10191000E19000C7E09000D7F09000C2E0FAA3E0A9
:10192000FB122529BFFF1A7F0A7E007D007C001272
:10193000263A9000CFE004F0E0D3940840BF7FFF48
:10194000229000CBE0FDA31202C19000D41202E16C
:101950009000C81202C112156FEFF4702E9000CFE4
:10196000E004F0E0D3940540037FFE22122E1FEF27
:10197000700A9000C0E0FF122AFD80C59000C0E010
:10198000FFE4FCFDFE12263A0218FD122DC47F0072
:10199000227F01122D64122CF7501075AE11E4F560
:1019A000AFE5AE20E703021A3580F6900167E064E8
:1019B000026003021A351229E19440EE94004004BB
:1019C0007F4080009000FCEFF07E00C3900166E055
:1019D0009FF0900165E09EF0900163EE8FF01200A1
:1019E000F8900168E01392031229E19400EE94004C
:1019F0004022D3EF9440EE940040047D4080069056
:101A00000165A3E0FD9001621202C1D2057F0112BF
:101A1000208E800D900168E054FEF0900167740103
:101A2000F03003119000FCE09001651229D1E4FD33
:101A30007F01122AC62290004B1202E1900052E56B
:101A4000A7F0EF600924FE600580007FFC22EF60B4
:101A50000B900150E0640660037FF722EF90005086
:101A6000122167FF64016009EF7FFEB405027FFB6E
:101A700022122E06920112219490004B1202C19064
:101A800000501221AB90004EE0FDA3E08F828E83C8
:101A9000A3A3A3CDF0A3EDF0900050122186740310
:101AA000F0A200E4335401FDEF240612218DE0542E
:101AB000FE4DF0900050E0FEA3E0240612218DE0E0
:101AC00054F7F030010312219B900052E0F5A77FFC
:101AD000002290004B1202E190004EE5A7F0122187
:101AE00094122E40E4FF744E2FF582E43401F58306
:101AF000E4F00FEFB42BEF1221A51202EA9001706F
:101B00001221A290000312032C9001731221A290C3
:101B1000000612032C9001761221A29000091200F7
:101B20009790014FF01221C375A72043B32075A7EA
:101B30002053B57F75AE0175AF08E5AE20E7FB75A4
:101B4000AE0B75AF0FE5AE20E7FB122B6490015092
:101B50007403F012219B90004EE0F5A775AE01755D
:101B6000AF01E5AE20E7FB7F0022900161E0139218
:101B700003122D9B9000FCEFF0C390015FE09F905B
:101B8000015EE094005010122317A3E04402F0908D
:101B900000FD74F2F080539000FC122331E4FF1238
:101BA000222C9000FCE0FFFD7C0090015CEC8DF0AD
:101BB0001200F81223399CFCF0A3EDF0E49000FD34
:101BC000F0ED4C701AEF6440601575AE1175AF48BA
:101BD000E5AE20E7FB122317A3E054FEF0800B755F
:101BE000AE1175AF40E5AE20E7FB30030F9000FD6E
:101BF000E0FD9000FC122302FF122AC6229000FD95
:101C00001221277002A3E06003021C89122117240D
:101C1000FE707612210F547FFF4E700C12212F4060
:101C200007E49000FDF08061C3EF9403EE94005050
:101C300058900154E07002A3E0704E1221427049A6
:101C40009000FD122149122D64900157E030E70BFE
:101C500075AE1175AF10E5AE20E7FB900157E0209F
:101C6000E71075AE94E5AE20E7FB43AF20E5AE206C
:101C7000E7FB900157E0247F60092480700B9001FE
:101C80006E80039001677406F09000FDE0FF2278FB
:101C90007FE4F6D8FD758166021CD6020638E4930F
:101CA000A3F8E493A34003F68001F208DFF480294F
:101CB000E493A3F85407240CC8C333C4540F44203E
:101CC000C8834004F456800146F6DFE4800B01022D
:101CD000040810204080902448E47E019360BCA357
:101CE000FF543F30E509541FFEE493A360010ECF7B
:101CF00054C025E060A840B8E493A3FAE493A3F8A5
:101D0000E493A3C8C582C8CAC583CAF0A3C8C58264
:101D1000C8CAC583CADFE9DEE780BEAE07E4FB12AE
:101D20002D64300513A80674107E00088005C333A7
:101D3000CE33CED8F9FF8013AF0674207E00A807FB
:101D4000088005C333CE33CED8F9FFD3ED9FEC9E88
:101D50005004EB4480FB300604EB4440FB3004218C
:101D6000EB4420FB3005034404FB75AE1175AF4016
:101D7000E5AE20E7FB75AE128BAFE5AE30E727800E
:101D8000F975AE1475AF80E5AE20E7FB75AE15AF03
:101D9000038FAFE5AE20E7FB20050B75AE12E4F52F
:101DA000AFE5AE20E7FB22AB07AA06EB6DFB30E008
:101DB000051229278003122937AA06AB07EB30E06A
:101DC000051229278003122937AA06AB07EB30E05A
:101DD000051229278003122937AA06AB07EB30E04A
:101DE000051229278003122937AA06AB07EB30E03A
:101DF000051229278003122937AA06AB07EB30E02A
:101E0000051229278003122937AA06AB07EB30E019
:101E1000051229278003122937AA06AB07EB30E009
:101E2000051229278003122937227B007A007900C6
:101E30009000C41202E1E49000C7F0221202C190A7
:101E400000C81202E19000CB227BFF74019000DCFD
:101E5000F07FC0227BFF900054E09000BDF07D0138
:101E6000227E007F027D007B010203DB9000C41212
:101E700002E19000C77404F0227407F07A007966DA
:101E8000A30202E190006A1202E190005EE0227D6E
:101E90000190004E1202C17E00229000D00202C1C9
:101EA0009000D40202C190004A0202C1AD07AC0604
:101EB000EC5455FEED545525E0FBEE33FAEC54AAF4
:101EC000FEED54AAFFEEC313FEEF1312294DFDECF5
:101ED0005433FEED54337802C333CE33CED8F9FBFE
:101EE000AA06EC54CCFEED54CC7802CEC313CE132C
:101EF000D8F912294DFDEC540FFEED540FC4F854DF
:101F00000FC868FBEEC454F048FAEC54F0FEED54F0
:101F1000F0FFEEC4F854F0C868FEEFC4540F481246
:101F2000294DFAECFFEAFE22E49000FCF090015308
:101F3000E01203B51F53001F58011F5D031F620508
:101F40001F67061F6C081F71091F760A1F7B0B0095
:101F5000001F851213EE802612183D8021121BFDF2
:101F6000801C121FA08017120DA580121223F4806E
:101F70000D1216DE80081225B88003122722900069
:101F8000FCEFF080069000FC74FFF0E4FF122D647B
:101F90009000FCE0B4FF03122B929000FCE0FF22C3
:101FA0009000FD74FFF0900154E0FEA3E0FFC394A5
:101FB00080EE9400505C900158E07002A3E07052F3
:101FC000122117704D900156E07002A3E07043900B
:101FD0000150E0B4030BEF4E601D7F041225FA8020
:101FE00016900150E0B40414900154E07002A3E094
:101FF00070057F031225FAE49000FDF09000FDE0EB
:102000007010F5AE900154A3E04480F5AFE5AE202A
:10201000E7FB9000FDE0FF22900102EFF0E4900169
:1020200005F0A3E5A7F0900102E0FF6005C394036B
:10203000400890010574FCF08042122E06920412B2
:102040002194900102E01221B7FEAF01A312217585
:1020500064016028900102E024FE600A04700C7F95
:10206000011227F980057F0112282D90010312210A
:10207000867401F0EF240612218DE4F0300403127F
:10208000219B900106E0F5A7900105E0FF22900159
:1020900008EFF0A3EDF0A31202E1E5AE20E7FB901C
:1020A0000108E04420F5AE90010AE0146014240316
:1020B000601C14602314702A1229C8AD01122C1858
:1020C00080201229C8AC02AD01122C028014122902
:1020D000C8AD01122C2C800A1229C8AC02AD011225
:1020E0002B7B30051D900108E0FFD39400401312B4
:1020F0002D6475AE91E5AE20E7FB43AF01E5AE2060
:10210000E7FB229001731202C19000050200979034
:102110000156E0FEA3E022900152E0541F22120279
:10212000C19000FE0202E174FFF0900158E022909D
:102130000150E0C3940422D205C2067D407C007F9A
:102140000122900150E0640622F0900156A3E05471
:102150007FFF229001977401F0A3E4F022900154D4
:10216000A3E090014EF02275F007A4245BF97401FE
:1021700035F0FEAF01F0A3EFF08E832405F582E485
:102180003583F583E022E0FEA3E0FF2405F582E439
:102190003EF5832275A71053CEFE2275A71043CEBD
:1021A00001221202E190004B0202C1E0FEA3E0FF17
:1021B000F5828E830202E175F007A4245BF97401B5
:1021C00035F02275A72053B5F8229000F01202E1F5
:1021D0009000F31202B59000F7E0FFFBE4FAF9F883
:1021E0001227151201DAAE02AF0390018E1202C15E
:1021F0008F828E83120097FF9000F01202C174FF4D
:10220000F5F012030AEF1200C4122715C007900060
:10221000F7E0FBE4FAF9F8D0071201DA9000F312C4
:1022200002B5122715EC4D4E4F70AB229000FEEF19
:10223000F09001001202E19000FFEDF0D394004015
:102240004CE5AE20E7FB9000FEE0FE44E0F5AE90EA
:102250000100E01460152403602324FE702F900019
:10226000FF1229CBAD01AB06022AA99000FF12296B
:10227000CBAC02AD019000FEE0FB022A0C9000FF07
:102280001229CBAD019000FEE0FB122A6D229000D6
:10229000C01202E19000C3EDF0E4A3F09000C3E0AF
:1022A000FFA3E0FEC39F503A9000C01202C18E828D
:1022B000758300120097C3941050057F30122AE2F4
:1022C0009000C01202C19000C4E0F5827583001234
:1022D0000097FFE4FCFDFE122D299000C4E004F0FD
:1022E00080BA7BFF7A2B79EC0229EBF582E43CF58E
:1022F00083E0FCA3E0FAECFFEAFE9000FCE0FCA324
:10230000E022E0FB7A0090015EE0FFA3E090010391
:10231000CFF0A3EFF0E4229001607401F02290016D
:102320005CE40200F8F582E43CF583EEF0A3EFF004
:1023300022E0FD90015B0202C1C390015FE09DFDC0
:1023400090015EE0229000E81202B57B017A0179EB
:10235000859000ED1202E19000E812029DEC3350EE
:102360000B9000ED1226F9742D1200C41227009074
:1023700000F7F07B017A0079ED12003E9000ED123B
:1023800002C1E41200C41227009000F7F07B017A2A
:102390000079ED1221CA9000ED1202C1227E017F68
:1023A000529000FCEEF0A3EFF0AA06F97B017D0845
:1023B000E4FF12222C75AE1175AF40E5AE20E7FBAD
:1023C0009000FCE0FEA3E0F5828E83A3A31222F12D
:1023D000FDF5828C83A3A3EEF0A3EFF0ED240412AD
:1023E00022EBFD2404122325ED24061222EB240601
:1023F000122325227FFF900156E07002A3E0704770
:10240000900154E07002A3E0703D900158E0700428
:10241000A3E064017031900152E0FE30E729541FBF
:102420007025900150E0B404087BFF7A2E79F78084
:102430000D900150E0B4060F7B017A01794E7D01C9
:102440007C00122A4EE4FF22040F0000000001135A
:102450000043017C000000010A00010E0001080099
:10246000010D0043017900000043018000000001DC
:102470000C0001090041017F0042018300000114AA
:1024800000010B0043018EFF2BEF42019900004237
:10249000019B015D009000B91202E1121E2A90001A
:1024A000B9121E3C7424F07B017A0079BCA312029D
:1024B000E17B157A00E4FD7F021218E79000BD125F
:1024C00002C19000BCE0FD12228E9000BD1202C13C
:1024D0009000031200977004FE7F0122E4FEFF22A9
:1024E0009000B91202E19000BCEDF0E4A3F090007E
:1024F000B91202C19000BCE0FF900103E4F0A3EF29
:10250000F0C2037F01121325EF601D7F027E007D64
:10251000007C0012263A9000BDE0FF04F0EFD39457
:102520001E40CB7F14122E19229000D2EAF0A3EBAA
:10253000F0AE057515039000D7E0FD2407F5168F62
:1025400017AF068F189000D3E0F5199000D2E0F590
:102550001A9000D41202C1122B187B007A00791550
:102560007406121E4D12297EE50B7F0030E6027FB5
:10257000FF2290004AE5A7F0122E25122DF1122D10
:10258000A6122E29122DB0122DF8122C40122C5307
:10259000122C6612002E122DBA120076122CA912DD
:1025A0002CB6122CC3122E2D122E31122DFF122DED
:1025B000CE90004AE0F5A72212210FFF7DFFC394C1
:1025C00001EE94005031A3E07004A3E06401702791
:1025D000900154E07002A3E0701D900152E0B481BC
:1025E00016900150E0B4060F7BFF7A2E79F77D013B
:1025F0007C00122A4EE4FDAF05229000FEEFF09021
:102600000150E09000FFF0C39405400B9000FEE005
:10261000940550031227599000FEE0FDB40506A36F
:10262000E0900151F09000FEE0FE900150F090002B
:10263000FFE0FF6E6003122DE0229000D01202B581
:10264000AF12AE11AD10AC0F9000D41202B59000D5
:10265000D41202A9C3E5129BFFE5119AFEE5109979
:10266000FDE50F98FC9000D01202A9D312026C4035
:10267000057597A580D8221223179001677406F07C
:1026800090016EF075AE0F75AF8FE5AE20E7FB756C
:10269000AE0175AF01E5AE20E7FB75AE0B75AF0F70
:1026A000E5AE20E7FB30B1047F0380027F011225F5
:1026B000FA022E3F9000BCEDF01229EB7B017A006C
:1026C00079BD9000E51202E19000BCE0FF14F0EF4C
:1026D00060169000E51226F912007EFFE4FCFDFE74
:1026E000122D29122E0D80E0022DD7E475F0021272
:1026F00002CA12010EFFAEF022E475F0010202CA16
:102700009000E812029D9000ECE022E475F00412C3
:1027100002CA02027D9000F302029D7BFF7A2C79AF
:1027200000227FFF900156A3E0FE900154A3E0FD3C
:10273000EEC394015022900150E0B4061B90015862
:10274000E07002A3E07011ED700E122117FEBE01C1
:1027500007C203122A8CE4FF22900101E5A7F012C0
:102760002E0692031221949001007401F090010052
:10277000E0FFC39403500B122018900100E004F016
:1027800080EB30030312219B900101E0F5A722901A
:1027900000BCEDF01229EB7B017A0079BD9000E5D9
:1027A0001202E19000BCE0FF14F0EF60149000E52D
:1027B0001226EBE4FCFD122D2912271B1229EB80B7
:1027C000E2022DD79000FCE0FEA3E0F5828E83E0CC
:1027D000229000FCE0FEA3E0FF2404F582E43EF535
:1027E00083E0229000FCE0FEA3E0FFF5828E83A34D
:1027F000A322C4131313540122122D6475AE117554
:10280000AF08E5AE20E7FB75AE91E5AE20E7FBE54E
:10281000AF20E3F375AE1175AF08E5AE20E7FB75A9
:10282000AE91E5AE20E7FBE5AF20E3F322122D6485
:1028300075AE1475AF10E5AE20E7FB75AE94E5AE4E
:1028400020E7FBE5AF20E4F375AE1475AF10E5AEFD
:1028500020E7FB75AE94E5AE20E7FBE5AF20E4F39F
:1028600022C0E0C0D075D000C005C006C007C2CFEE
:10287000E5122401FFE43511FEE43510FDE4350FC7
:102880008F128E118D10F50FD007D006D005D0D045
:10289000D0E03290004DEDF01229EB7B017A007907
:1028A0004E9000761202E190004DE0FF14F0EF60D0
:1028B0001190007612270B122D1D12271B1229EBE7
:1028C00080E5022DD77A007921A31202E19000CB96
:1028D0007446F00B7A00794DA31202E1E41BFAFD75
:1028E0002290004A1202C1900005E4221202C1E9BE
:1028F0002407F9E43A22EF600943DC028FEB8FEC06
:10290000800353DCFDEB600B43DA028BFBAF038FDC
:10291000FC800353DAFDED600A43DB028DE9AF056D
:102920008FEA2253DBFD22EAC313FEEB13FFEE64B2
:10293000A0FEEF6401FF22EAC313FEEB13FF22E4C3
:10294000900183F0A3F0F51490017FE022FFEE4A9E
:10295000FCEF4B2290004A1202E175970712249572
:10296000EF4E7BFF70107A0C79BF1229EB90004A72
:102970001202C10212597A0C79D61229EB22E50B08
:1029800020E1FB12293F4402F50BE4F09000DCE06B
:10299000F50A90017C1202E1E4F50E8F13D2C5E531
:1029A0000B20E1FB22AD07ED4480F5AEE5AE20E75C
:1029B000FBAFAFEF7F00FEED144480F5AEE5AE2037
:1029C000E7FBADAFEF4DFF22900109E0FFA302024C
:1029D000C1FB7A00E0FFA3E0900103CFF0A3EFF08A
:1029E00022900165E0FEA3E0FFD3229000E81202EE
:1029F000E19000E81202C112007E600F9000E81220
:102A000026F912007EFF122AE280E6228D828C8354
:102A10001FEF600BE5AE20E7FBE5AFF0A380F1E52B
:102A2000AE20E7FBEB4420F5AEE5AFF02290003F8F
:102A3000AE11AF12E0FCA3E0FDC3EF9DFDEE9CFCE8
:102A4000C3ED22900191E0FEFFE4FDE4FB22900142
:102A500060E0B4011790015B1202E1AF0590015EE6
:102A6000ECF0A3EFF0A37402F0E4A3F022A8051F9A
:102A7000EF600BE5AE20E7FBE5AFF20880F1E5AED5
:102A800020E7FBEB4420F5AEE5AFF22230030A90DD
:102A900001677401F090016EF0D204122137121D0B
:102AA0001BC204122137021D1BA8051FEF600AE597
:102AB000AE20E7FBA6AF0880F2E5AE20E7FBEB44D3
:102AC00020F5AEA6AF22900100EDF0A3EAF0A3EB53
:102AD000F0EFB402097B017A01790E122D4DE4FE6C
:102AE000FF228F99E4FF0FEFB4C8FBE4FF0FEFB4B0
:102AF000C8FBE4FF0FEFB4BEFB7597A522EF24C01F
:102B000060071470087E3280067E6480027E20AFEB
:102B100006E4FCFDFE02263AE50B20E1FBAF058F43
:102B20000C9001801202E1E4F50990017FE0440479
:102B3000F022EFC394034002D322EF1221B7F583B2
:102B4000E912217BB40102C322D3227E007F467D9D
:102B5000001203DB122E39122DC4D296E49001929A
:102B6000F0A3F022AFA79001607401F075A7204395
:102B7000B38075A72043B3408FA7228D828C83AE8C
:102B8000071FEE600CE5AE20E7FBE493F5AFA380F2
:102B9000EE22E4FF122D649001607405F075AE1111
:102BA00075AF60E5AE20E7FB22553246205A45520C
:102BB0004F0D0A006D7320006572726F723A20002B
:102BC0009001791202C112007EFFD3950850038F45
:102BD0000822430B1022AD07900183E0FEA3E0FF23
:102BE000121DA7900183EEF0A3EFF0220D0A003032
:102BF00031323334353637383961626364656600A3
:102C000020008D828C83AE071FEE600BE5AE20E7BF
:102C1000FBE0F5AFA380EF22A805AE071FEE600B27
:102C2000E5AE20E7FBE6F5AF0880EF22A805AE078A
:102C30001FEE600BE5AE20E7FBE2F5AF0880EF2268
:102C4000E4F5A7F5A9E5A930E7FB75A903E5A930E7
:102C5000E7FB22AF885388AF758D30EF5440FEEF0D
:102C600054104E428822E5C8540453C8FB75CB4427
:102C700075CA8043C80442C8227BFF7A0C797690DB
:102C800000DC7402F07FC002297E53C17F43C18003
:102C9000C2C5C2C4C2C1530BFD22900150E0C3940F
:102CA0000240057F051225FA2253F77F75DA427537
:102CB000FB9675FC962253F77F75DB4275E9967596
:102CC000EA962253F77F75DC4275EB9675EC9622F7
:102CD00075AE91E5AE20E7FBE5AFA2E42275AE91BB
:102CE000E5AE20E7FBE5AFA2E22275AE91E5AE20AE
:102CF000E7FBE5AFA2E12275AE91E5AE20E7FBE58B
:102D0000AFA2E52275AE94E5AE20E7FBE5AFA2E603
:102D100022736D627573206661696C20009000EC0F
:102D2000740AF01223450229EB9000EC7410F012A3
:102D300023450229EB75AE91E5AE20E7FBE5AF1325
:102D40002275AE94E5AE20E7FBE5AF132290019229
:102D50007401F09001940202E18F827583001200E9
:102D600097F51C2275AE0E8FAFE5AE20E7FB2275FE
:102D7000AE86E5AE20E7FBAFAF2275AE82E5AE20B2
:102D8000E7FBAFAF2275AE84E5AE20E7FBAFAF2225
:102D900075AE8EE5AE20E7FBAFAF2275AE96E5AE21
:102DA00020E7FBAFAF22E4F5A775A4D075D44C2281
:102DB00075E34075E10575E20322758E1C75892166
:102DC000438840227A0C7972121E4902297E7BFFC9
:102DD0007A2E79ED021AD27BFF7A2B79EC0229EB5D
:102DE000900100EFF0A3EDF022900151E0FF0225E9
:102DF000FA75A72075C6042275A71075C130227513
:102E0000E68175A8A02275A710E5CE132212271B14
:102E10000229EB7F171229A522900193EFF022904F
:102E20000193E0FF22E4F5A72275A5632243C19F29
:102E30002243981022122C8A32E4F50B22C322225C
:102E40002206D0F10901A1010920150026FF007515
:102E500008954081020921150026FF00750895405C
:102E60009102C01201000200000040C410CF8A008D
:102E70000101020301090229000101008032090455
:102E800000000203000004092111010001222200B8
:102E90000705810340000507050103400005040301
:102EA0000904011A0353696C69636F6E204C6162F7
:102EB0007300011203553246205A65726F000122D9
:102EC00003434146454241424546464646464646FC
:102ED0003000011203553246205A65726F00FF2EF2
:102EE0009EFF2EA2FF2EB2FF2EBEFF2ED2FF2E631C
:092EF000FF2E75FF2EDE05000027
:00000001FF
