:020000040000FA
:10000000021C97E50B20E1FB1229504403F50BE499
:10001000F0F50D8F139000DBE0F5089001891202D6
:10002000F4D2C5E50B20E1FBAF0822022872E5916E
:1000300054045391FB4391044291220209CB900056
:10004000BBEDF0122A517B017A0079BC9000E412DA
:1000500002F49000BBE0FF14F0EF60149000E41293
:100060002731E4FCFD122D6E122761122A5180E225
:10007000022E1C022E7AC2DED2DE22021189BB01C0
:100080000689828A83E0225002E722BBFE02E32235
:1000900089828A83E49322BB010CE58229F582E5FB
:1000A000833AF583E0225006E92582F8E622BBFE7A
:1000B00006E92582F8E222E58229F582E5833AF510
:1000C00083E49322BB010689828A83F0225002F7DF
:1000D00022BBFE01F322F8BB010DE58229F582E582
:1000E000833AF583E8F0225006E92582C8F622BB60
:1000F000FE05E92582C8F222C5F0F8A3E028F0C584
:10010000F0F8E582158270021583E038F022BB0119
:100110000A89828A83E0F5F0A3E022500687F0097D
:10012000E71922BBFE07E3F5F009E3192289828A69
:1001300083E493F5F074019322BB0110E58229F565
:1001400082E5833AF583E0F5F0A3E0225009E92542
:1001500082F886F008E622BBFE0AE92582F8E2F57D
:10016000F008E222E5832AF583E993F5F0A3E99309
:1001700022F8BB0111E58229F582E5833AF583E88F
:10018000F0E5F0A3F0225009E92582C8F608A6F0B0
:1001900022BBFE09E92582C8F2E5F008F22275F0DB
:1001A00008758200EF2FFFEE33FECD33CDCC33CC7C
:1001B000C58233C5829BED9AEC99E58298400CF597
:1001C00082EE9BFEED9AFDEC99FC0FD5F0D6E4CEC5
:1001D000FBE4CDFAE4CCF9A88222B800C1B90059F9
:1001E000BA002DEC8BF084CFCECDFCE5F0CBF978C6
:1001F00018EF2FFFEE33FEED33FDEC33FCEB33FB5A
:1002000010D703994004EB99FB0FD8E5E4F9FA22E3
:100210007818EF2FFFEE33FEED33FDEC33FCC933DE
:10022000C910D7059BE99A4007EC9BFCE99AF90FA6
:10023000D8E0E4C9FAE4CCFB2275F010EF2FFFEE12
:1002400033FEED33FDCC33CCC833C810D7079BEC5D
:100250009AE899400AED9BFDEC9AFCE899F80FD5D5
:10026000F0DAE4CDFBE4CCFAE4C8F922EB9FF5F038
:10027000EA9E42F0E99D42F0E89C45F022E8600FDA
:10028000ECC313FCED13FDEE13FEEF13FFD8F122C8
:10029000BB010789828A830202B05005E9F8020592
:1002A000BCBBFE05E9F80205C889828A830205D431
:1002B000E0FCA3E0FDA3E0FEA3E0FF22E0F8A3E062
:1002C000F9A3E0FAA3E0FB22ECF0A3EDF0A3EEF03B
:1002D000A3EFF022E0FBA3E0FAA3E0F922F8E0FBB1
:1002E000A3A3E0F925F0F0E582158270021583E002
:1002F000FA38F022EBF0A3EAF0A3E9F022BB010701
:1003000089828A830202D45005E9F80205E4BBFE23
:1003100005E9F802061D89828A8302063FBB0107B0
:1003200089828A830206065006F8E9C80205EDBBF9
:10033000FE06F8E9C802062689828A8302063FBBC8
:10034000010DE58229F582E5833AF5830202D45056
:1003500007E92582F80205E4BBFE07E92582F802D9
:10036000061DE58229F582E5833AF58302063FBB47
:100370000120E58229F582E5833AF583D0F0D0E0CB
:10038000F8D0E0F9D0E0FAD0E0FBE8C0E0C0F0023D
:1003900002F45018E92582F8D083D082D0E0F9D059
:1003A000E0FAD0E0FBC082C0830205FDBBFE18E985
:1003B0002582F8D083D082D0E0F9D0E0FAD0E0FBFB
:1003C000C082C08302063622D083D082F8E49370C4
:1003D00012740193700DA3A393F8740193F58288AE
:1003E00083E4737402936860EFA3A3A380DFEF4EEE
:1003F0006012EF60010EEDBB010B89828A83F0A3CE
:10040000DFFCDEFA2289F05007F709DFFCA9F022B1
:10041000BBFEFCF309DFFCA9F022E709F608DFFACE
:10042000807BE9D39850F3E92FF9E82FF819E71802
:10043000F6DFFA8068E709F208DFFA806080E38877
:10044000828C83E709F0A3DFFA8052E309F608DF24
:10045000FA804AE9D398500EE92FF9E82FF819E30A
:1004600018F2DFFA8037E309F208DFFA802F88827A
:100470008C83E309F0A3DFFA802389828A83E0A3D7
:10048000F608DFFA801789828A83E493A3F208DFF3
:10049000F9800A89828A83E0A3F208DFFA02052C38
:1004A00080B180F980A580C680DC80F180738010E7
:1004B000808380E98087808780D980E180BC8073D9
:1004C000D3E998EA9C5039E92FF582EA3BF583E8B5
:1004D0002FF8EC3BFC0582D5820215831582E4934C
:1004E000C8C582C8CCC583CC0582D58202158315C8
:1004F00082F0C8C582C8CCC583CCDFD9DED7802EB8
:1005000089828A83ECFAE493A3C8C582C8CCC583E8
:10051000CCF0A3C8C582C8CCC583CCDFE9DEE780B8
:100520000D89828A83E493A3F608DFF9ECFAA9F037
:10053000EDFB22D3E998EA9C5038E92FF582EA3B9B
:10054000F583E82FF8EC3BFC0582D5820215831574
:1005500082E0C8C582C8CCC583CC0582D58202158D
:10056000831582F0C8C582C8CCC583CCDFDADED85B
:1005700080BC89828A83ECFAE0A3C8C582C8CCC556
:1005800083CCF0A3C8C582C8CCC583CCDFEADEE843
:10059000809C809888F08E83EF60010E4E608DED18
:1005A0002402B404005085F582EB2402B404005008
:1005B000E123234582AB83239004A073E6FC08E685
:1005C000FD08E6FE08E6FF22E2FC08E2FD08E2FE86
:1005D00008E2FF22E493FC740193FD740293FE741D
:1005E0000393FF22E6FB08E6FA08E6F922FAE6FBA7
:1005F0000808E625F0F9F618E63AFAF622EBF608CE
:10060000EAF608E9F622F8E0FBA3A3E025F0F9F00A
:10061000E582158270021583E038FAF022E2FB08C9
:10062000E2FA08E2F922FAE2FB0808E225F0F9F220
:1006300018E23AFAF222EBF208EAF208E9F222E4CE
:1006400093FB740193FA740293F922E4900045F04D
:10065000900047F0A3F012257E7597047597A512B8
:10066000297B122B90D2AF7597A57BFF7A2B79EE61
:10067000122A51E5EF30E3069001817419F0122936
:100680007B122992AF6CAE6BAD6AAC691229BC7556
:1006900097A512296594F4EC9401400A90003FEE6E
:1006A000F0A3EFF080047E007F00EF4E60157BFF2B
:1006B0007A2B79F990004DE511F0A3E512F07D0158
:1006C0001228A47F02122B7740257F01122B77403E
:1006D0001E900180E0640160167B017A01790D9023
:1006E000004DE4F0A37440F0D2007F02121A3E9055
:1006F0000180E01470030207781470030207981455
:1007000070030207B62403600302080A9000431234
:100710002968940AEC9400400A900043EEF0A3EF9D
:10072000F080047E007F00EF4E700302080A900004
:1007300046E0FFB45A05E4A3F08008EF700590008E
:100740004704F0900047E06015900046E0209507D0
:10075000FB04F0E4FD801AFD04F0E4FB801390003C
:1007600046E0209507FB14F0E4FD8005FD14F0E45D
:10077000FBFF12290702080A9001861202D4121008
:10078000AAEF70099001861202D4120858900180D5
:10079000E064017075F080721229881229BC900003
:1007A000467401F0900041E511F0A3E512F09001CC
:1007B000807403F08054AE11AF1290004112296C86
:1007C0009496EC9400400A900041EEF0A3EFF08084
:1007D000047E007F00EF4E6024900046E06007E456
:1007E000F0122988800E9000467401F07F007E0090
:1007F0007D007C001229BC900045E004F09000458B
:10080000E0B40506E4F0900180F0900181E0FF7013
:100810000302068F7BFF7A2B79FD9000BCE4F0A3E6
:10082000EFF07D0112003EE4900181F07FC8FEFDF3
:10083000FC1229BC12296594D0EC9407400A900060
:100840003FEEF0A3EFF080047E007F00EF4E6003E8
:1008500002068F7597A580DC9000491202F47E0095
:100860007F407D007B017A0079501203EE121EAEAC
:1008700012007E900050F0247F6052146057146084
:1008800066147003020962240460030209AA7BFF54
:100890007A0C79EF122A51121E320B7A007990A34A
:1008A000121E4A7428F07A00794CA31202F4E41B59
:1008B000FA7D807F021218EF78527C00121E977F1B
:1008C0000F120594900051740FF00209BF7BFF7A5C
:1008D0000D790B80067BFF7A0D7921122A51900049
:1008E000517401F00209BF121EAE900001120139CD
:1008F000FFAEF09001A3EEF0A3EFF0900051740171
:10090000F07BFF7A0D793C9000BCEEF0A3EFF07D18
:100910000112003E7B017A0079901224A1EF4E7003
:1009200036FBFAF9121E380B7A007990A3121E4A90
:100930007428F01B7A007900A31202F49001A3E05E
:10094000FAA3E0FBE4FD7F171218EFEF60717BFF65
:100950007A0D7946022A517BFF7A0C79DE122A51F0
:10096000805D7BFF7A0D795E122A51121E327A0069
:100970007921A3121E4A7446F00B7A00794CA31217
:1009800002F47B0F7A007D047F401218EF7BFF7A20
:100990000D797290004C121E611226FA78507C007C
:1009A000121E977F401205948015121EAE12007E13
:1009B0009000BCF07BFF7A0D79807D011226FA7BD6
:1009C000017A0079507D401224EC22C0E0C0F0C0D2
:1009D00083C082C0D075D000C000C001C002C00377
:1009E000C004C005C006C007E5C054F0F51D30C204
:1009F00003020AE6E51D24807003020A9024C06009
:100A00001424E06003020AE6E50B54014513F5C225
:100A1000C2C5020AE220C107D2C4430B40806CE584
:100A20000B30E003020AE2E50EC3950A501B900169
:100A30008C1202D4AF0E050E122D9EE50ED394013A
:100A40004024AF1E122C1B801DE50B30E21DE50972
:100A5000C3950C50169001901202D4AF09050912EB
:100A60002D9EFF122C1B851EC28077AF140514EF3C
:100A700014600E14601324027068120B17F5C28004
:100A800061900193E0F5C28059D2C4530BFD8052AE
:100A9000E50DC39508504185C21E9001891202D40C
:100AA000850D82758300E51E1200D6E50D700312D8
:100AB0002C05E50824FEFFE50DC39F50159001931A
:100AC000E0FEA3E0FFAD1E121DAF900193EEF0A378
:100AD000EFF0050DD2C1800A120B17530BFDC2C1F6
:100AE000D2C4C2C080167BFF7A2D79569000BCE537
:100AF0001DF07D011226FA122CCFC2C0D007D006FD
:100B0000D005D004D003D002D001D000D0D0D08204
:100B1000D083D0F0D0E032900193E0FEA3E0FF124A
:100B20001EB4900193EEF0A3EFF0229000FBEEF0E4
:100B3000A3EFF0A374FDF01227D5FFC41354036094
:100B400003020BE8EF12280320E003020BE8122750
:100B5000D5541F64016003020BE8A3E024FA60038C
:100B6000020C741227E2FCA3E04C6003020C748FA9
:100B7000828E83A3A3E0642270287BFF7A2E79867D
:100B80009000FBA3E024061227ECFEA3E0FFD39421
:100B900022EE9400400A7C007D227E007F22803E6F
:100BA000803C9000FBE0FCA3E0FDF5828C83A3A3D6
:100BB000E064216003020C747BFF7A2E79CCED2473
:100BC00006F582E43CF583E0FEA3E0FFD39409EE52
:100BD0009400400A7C007D097E007F09800090011E
:100BE00002EEF0A3EF020C671227D5FFC4135403E3
:100BF00064016003020C74EF541F640170761227C5
:100C0000E2FCA3E04C706D8F828E83A3E024FE6033
:100C10002224F8705F1227F4A3E07058EF24061224
:100C200027ECFEA3E04E704C1227D512280320E0DB
:100C300043803C1227F4E0FCA3E04C7037EF24061D
:100C40001227ECFEA3E064014E70291227D512286A
:100C50000330E02090010C7418F07B017A01790CCC
:100C6000900102E4F0A304F0C203E4FF12132DE4A8
:100C70009000FDF09000FDE0FF2202000100000066
:100C800000636F6E666967206372633A00312061AA
:100C9000746563635F77726974655F656570726FB1
:100CA0006D206661696C6564200033206174656342
:100CB000635F77726974655F656570726F6D2066DA
:100CC00061696C6564200073657474696E67207572
:100CD0007020636F6E6669672E2E2E0D0A00616CA0
:100CE0007265616479206C6F636B65640D0A0055F1
:100CF00032465F434F4E4649475F4745545F534531
:100D00005249414C5F4E554D0D0A005532465F43E6
:100D10004F4E4649475F49535F4255494C440D0A7F
:100D2000005532465F434F4E4649475F49535F4344
:100D30004F4E464947555245440D0A00676F74208F
:100D40006372633A200041544543435F434D445F1F
:100D50004C4F434B206661696C65640D0A00553247
:100D6000465F434F4E4649475F47454E4B45590DF9
:100D70000A006B65792069732062797465732000BD
:100D8000696E76616C696420636F6D6D616E643A43
:100D90002000636F6E6F727070277320753266204B
:100DA000746F6B656E2E0D0A0000000000E4FDFC00
:100DB00090010074FFF0900151E064806003020E26
:100DC000BE900153E0FAA3E09000FCF0EAFFE4607B
:100DD00003020E9AEF24FE602814604A2402600386
:100DE000020E9A9000FCE06003020E9A90016F12CE
:100DF000212690016F1202D412007E7C00FD020EAB
:100E00009A9000FCE06003020E9A90017212212673
:100E10009001721202D4900002120139FAE5F0FF3B
:100E2000EAFCEFFD80749001751202D49000FCE0A2
:100E3000FF75F003A4F58285F08312033F12212988
:100E4000EF700CFC7D04900159E05480F0804B124F
:100E50002117FF4E600AEF64097003EE6404703AD4
:100E600090014EE0FF9000FCE0C39F502DA31202C2
:100E7000D49000011200977C00FD12007E547FFF89
:100E8000900159E054804FFFF09000FEE475F001AE
:100E90001200F8EF4480900159F0ED4C6020900171
:100EA00057E0FEA3E0FFC39DEE9C5004AC06AD07E7
:100EB0009000FD1202D4122A93E4900100F09001F8
:100EC00000E0FF22900160E013920390015DE0FEDC
:100ED000A3E0FFC39440EE940040047F4080009064
:100EE00000FBEFF0A3F0900159E0FF547F64017024
:100EF00056EF30E721A31202D4C2057D02E4FF12AF
:100F0000209675F0021223269000FBE024FEF0905C
:100F10000159E0547FF0E49000FDF09000FBE0C345
:100F200013FF9000FDE0C39F503812233B120FB413
:100F300075F0011223267BFF7A2F7940120FB490AF
:100F400000FDE004F080D49000FB122339C205E4D8
:100F5000FF1220969000FBE0FF90015BE48FF012FF
:100F600000F8900160E054FBF09000FCE0FFFD12FF
:100F700023419400FCF0A3EDF04C701EEF64406040
:100F80001975AE1175AF0AE5AE20E7FB12231FE419
:100F9000900159F0900160F0800B75AE1175AF02B1
:100FA000E5AE20E7FB30030B9000FC12230AFDFFA7
:100FB000122B0B22C2057D01E4FF12209622C203F0
:100FC0007F01122DA9122D49501575AE94E5AE2062
:100FD000E7FB53AFBFE5AE20E7030210A980F6128E
:100FE0002D8640030210A9122E589000FBEFF090BE
:100FF000016DE06403600EA3E04402F09000FC7415
:10100000F9F00210889000FBE0FDFFC390016CE056
:101010009F90016BE09400501390016D7401F0A358
:10102000E04402F09000FC74F2F0805C90016812E1
:1010300002D47F0112223490016EE054FDF0900042
:10104000FBE0FFFD7C00C390016CE09DF090016B24
:10105000E09CF0900169EC8DF01200F890016BE0DB
:101060007002A3E06005EF6440600890016D7401B8
:10107000F0D203E49000FCF075AE94E5AE20E7FBFF
:1010800053AFFEE5AE20E7FB90016EE030E01A3092
:10109000030354FEF09000FCE0FD9000FBE09001A3
:1010A0006B122A377F02122B0B229000491202F496
:1010B00012029074FFFBFAF9F8C312026C60037F0E
:1010C00000229000491202D490000412009724DEFE
:1010D0006053147003021160240260030211837BC9
:1010E000007A0079009000C31202F4E49000C6F088
:1010F0001228D67F1B1218EFEF900049701D12289E
:10110000FDA801FCAD0390004D1202D47E007F20AB
:101110001205941228F275F02080051228F5F5F0DA
:1011200012017180579000491228FDFA9000C312F5
:1011300002F49000C67414F07B001228D67F1612B9
:1011400018EF900050EFF01228F275F001120171C3
:10115000EF7F0070027F01900007EF1200D6801C25
:101160001228F275F0011201719000507401F07FA5
:101170000070027F01900007EF1200D67D4012241C
:10118000EC80037F00227F0122C0E0C0F0C083C05A
:1011900082C0D075D000C000C001C002C003C0042E
:1011A000C005C006C007122DB49000F7EFF0122D55
:1011B000BF9000F8EFF0122DCA9000F9EFF0122D59
:1011C000D59000FAEFF09000F7E0FC30E3379001A3
:1011D00060E0FE30E10890015FE06403600BEE30F8
:1011E000E20E90015FE0B402079000F8E04401F0E5
:1011F00090016EE030E10E90016DE0B403079000C5
:10120000F9E04402F0EC30E2031226859000F7E0AA
:1012100030E103122E2E9000F7E030E003122CDFB5
:101220009000F8E030E1031219999000F9E030E104
:1012300003120FBE9000F8E030E003121798900000
:10124000FAE0FF122DA9D007D006D005D004D003B4
:10125000D002D001D000D0D0D082D083D0F0D0E066
:101260003290004C1202F47A007954121E697A000E
:101270007956121E69900054E054F04403F0448003
:10128000F0A3E0540F44A0F0E4900053F09000531A
:10129000E0FEC3132405FFEE7D0030E0027D027AFC
:1012A000007954121320600A7A0C798D121E5C1298
:1012B00026FA900053E004F0E0C3941040CF900071
:1012C00056E04401F04402F054E34410F054DFF0DF
:1012D000E4900053F0900053E0FFC394105038EFB7
:1012E000B40F07900056E04420F0900053E0FEC396
:1012F000132418FFEE7D0030E0027D027A0079565B
:10130000121320600A7A0C79AA121E5C1226FA9037
:101310000053E004F080BE90004C1202D40214BCD2
:101320007B0190005D7402F012162FEF229000FEF8
:10133000EFF0A31202F4900106E5A7F09000FEE0A2
:10134000600814600580007FFC229000FEE0FE60D3
:101350000B90014FE0640660037FF722EE900104DA
:1013600012216FFF64016009EF7FFEB405027FFB6D
:1013700022122E4B920412219C9000FF1202D49054
:1013800001041221B3900102E0FCA3E0FD8F828EE4
:1013900083A3A3A3ECF0A3EDF090010412218E74BB
:1013A00002F0A203E4335401FBEF2406122195E07E
:1013B00054FE4BF09000FEE014600C047029900184
:1013C00060E04404F08020D3ED9440EC94004004AD
:1013D0007D408006900102A3E0FD9001611202D4DD
:1013E000D2057F011220963004031221A39001063A
:1013F000E0F5A77F00229000FC12212F7004A3E0EB
:10140000640260030214B6900153E07002A3E0602E
:10141000030214B6900151E0FF20E7030214B61254
:10142000213750030214B6E49001A1F0A3F0EF5469
:101430001F14602214603024027069900155E0701E
:1014400002A3E0705F122E8250499001A1E0440196
:10145000F0A3E0F08049C3900156E094019001555B
:10146000E09400503F8038122117FF547F4E7009DE
:1014700090014FE0B40402802690014FE0B40624AE
:10148000EF247F60102480701B90016DE0B4060390
:1014900012215B800A900166E0B4060312215BE42E
:1014A0009000FCF09000FCE0700C7B017A0179A1C7
:1014B0007D02FC122A939000FCE0FF22900058125B
:1014C00002F4E490005DF0A3F090005BF090005B0C
:1014D000E0FFC394044003021559EF75F008A4FB24
:1014E000AAF0C002C003121E32900058121E4474AB
:1014F00028F07B017A00795FA31202F4D003D002B6
:101500007D807F021218EFE490005CF090005FE0B5
:10151000FF90005CE0FDC39F5028A3E0FEA3E0FF26
:101520009000601202D48D82758300120097FD1224
:101530001DAF90005DEEF0A3EFF090005CE004F0D2
:1015400080CA9000601202D490005FE0FD122296E3
:1015500090005BE004F00214CD90005DE0FEA3E09B
:10156000FF121EB49000BCEEF0A3EFF07BFF7A0CEC
:1015700079817D0102003E9000CF1202F49000D2EA
:10158000EDF09000DBF07FC01200039000D6EFF08A
:10159000E50B30E6037FFF22E50B30E4057F061202
:1015A0002E5E9000D2E0FF9000D6E0FED39F502D3B
:1015B000EEC394044027121EA2EE7E0029F9EE3AF3
:1015C000FA90FFFE120139FAE5F0FFEAFE9001936E
:1015D000E06E7003A3E06F60087F1580177F1680B0
:1015E000139000D6E0B40412121EA2900001120063
:1015F00097FF6006122E5E7FFF22121EA8E94A4B5B
:1016000060279000D6E024FDFF121EA8EF1200C450
:10161000121EA2E92401F9E43AFAC003C002C00193
:10162000121EA890000112036F9000D6E0FF2290D6
:101630000058EFF0A3EDF0A31202F4121E8CFE2D61
:10164000FDE433FCD3ED9404EC6480948040037F8C
:10165000FF22EEC394045047900058E0FB7A00C08C
:1016600002C0037B00121E360B7A00795EA3121EA5
:101670004A121E81D003D0027F021216DA121E8C8B
:10168000FF7E009000661202D4900059E07C002991
:10169000F9EC3AA801FCAD03A31202D41205949010
:1016A0000058E0FB7A00C002C0039000691202D427
:1016B000121E747B017A00795EA3121E4A121E81EB
:1016C000D003D0027F121216DA12007E6009F404F1
:1016D000FF122E5E7FFF227F0022E4FD1218EF90A2
:1016E00000661202D4229000FC74FFF0900153E0D7
:1016F000FCA3E0FDEC600302179212211F600302BD
:101700001792900157E07002A3E0600302179290D5
:101710000155E07002A3E0707990014FE06404701D
:1017200032ED4C600F12210BFF900153E07003A3C8
:10173000E06F705E12216512210BFF900153E0B43F
:10174000000FA3E0B5070AD203122AD17F061226A2
:1017500006803A12214A703A900153E0FEA3E0FF5E
:101760004E600E12210BFD7C00EFB50525ECB50691
:1017700021122165900153E07002A3E0700A7F04FA
:1017800012260612279F8005C203122AD1E4900078
:10179000FCF09000FCE0FF22E4FF122DA9122D22A4
:1017A0004005122D15501C75AE11E4F5AFE5AE20C5
:1017B000E7FB75AE1175AF80E5AE20E7FB12231F86
:1017C000E4A3F0122D7A506D900160E0FF30E30247
:1017D000806090015FE064017048900159F012232D
:1017E000A57E017F51120B2BBFFD15900151E0FF2B
:1017F000C41354037005121F30803A122BD7803562
:10180000900151E020E72E90015FE0640360269094
:101810000157E07002A3E0601C900160E04408F012
:10182000801390015FE0B40305121B7280079001E2
:1018300060E04402F090015FE0B40208122D2F40F6
:1018400003120EC4229000FC12212F7002A3E0604C
:10185000030218E912211F24FE60030218E9900117
:1018600053E07002A3E060030218E9122117547FCD
:10187000FF4E700C1221374007E49000FCF08069A5
:10188000C3EF9403EE9400506012214A705B900005
:10189000FC122151122DA9900156E030E70B75AED4
:1018A0001175AF40E5AE20E7FB900156E020E71848
:1018B00075AE94E5AE20E7FB53AFDFE5AE20E7FB66
:1018C00043AF80E5AE20E7FB900156E0247F600E39
:1018D0002480701590016DE06403600D8008900114
:1018E00066E0640260037401F09000FCE0FF229067
:1018F00000BFEFF0A3EDF0A3EAF0A3EBF0E490005B
:10190000CEF0122CBE9000BFE0FFA3E0FD9000C31C
:101910001202D49000D31202F49000C6E09000D6D8
:10192000F09000C1E0FAA3E0FB122535BFFF1A7F5B
:101930000A7E007D007C001226C29000CEE004F0FA
:10194000E0D3940840BF7FFF229000CAE0FDA312BD
:1019500002D49000D31202F49000C71202D41215E0
:1019600077EFF4702E9000CEE004F0E0D3940540C1
:10197000037FFF22122E64EF700A9000BFE0FF1277
:101980002B4280C59000BFE0FFE4FCFDFE1226C2A2
:10199000021905122E097F00227F01122DA9122D96
:1019A0003C501075AE11E4F5AFE5AE20E703021A26
:1019B0003D80F6900166E064026003021A3D122A3F
:1019C000479440EE940040047F4080009000FBEF7D
:1019D000F07E00C3900165E09FF0900164E09EF00E
:1019E000900162EE8FF01200F8900167E01392030D
:1019F000122A479400EE94004022D3EF9440EE94D4
:101A00000040047D408006900164A3E0FD900161E8
:101A10001202D4D2057F01122096800D900167E05A
:101A200054FEF09001667401F03003119000FBE069
:101A3000900164122A37E4FD7F01122B0B229000E3
:101A40004A1202F4900051E5A7F0EF600924FE600D
:101A50000580007FFC22EF600B90014FE064066080
:101A6000037FF722EF90004F12216FFF640160099E
:101A7000EF7FFEB405027FFB22122E4B9201122152
:101A80009C90004A1202D490004F1221B390004D56
:101A9000E0FDA3E08F828E83A3A3A3CDF0A3EDF09E
:101AA00090004F12218E7403F0A200E4335401FD24
:101AB000EF2406122195E054FE4DF090004FE0FE19
:101AC000A3E02406122195E054F7F030010312211F
:101AD000A3900051E0F5A77F002290004A1202F483
:101AE00090004DE5A7F012219C122E85E4FF744D65
:101AF0002FF582E43401F583E4F00FEFB42BEF12FD
:101B000021AD1202FD90016F1221AA900003120371
:101B10003F9001721221AA90000612033F900175B6
:101B20001221AA90000912009790014EF01221CBC9
:101B300075A72043B32075A72053B57F75AE0175F7
:101B4000AF08E5AE20E7FB75AE0B75AF0FE5AE2035
:101B5000E7FB122BA990014F7403F01221A3900010
:101B60004DE0F5A775AE0175AF01E5AE20E7FB7F4F
:101B70000022900160E0139203122DE09000FBEF31
:101B8000F0C390015EE09F90015DE0940050101260
:101B9000231FA3E04402F09000FC74F2F080539005
:101BA00000FB122339E4FF1222349000FBE0FFFD1A
:101BB0007C0090015BEC8DF01200F81223419CFC3C
:101BC000F0A3EDF0E49000FCF0ED4C701AEF6440EF
:101BD000601575AE1175AF48E5AE20E7FB12231F07
:101BE000A3E054FEF0800B75AE1175AF40E5AE205A
:101BF000E7FB30030F9000FCE0FD9000FB12230A8E
:101C0000FF122B0B229000FC12212F7002A3E06028
:101C100003021C9112211F24FE7076122117547F9B
:101C2000FF4E700C1221374007E49000FCF08061F9
:101C3000C3EF9403EE94005058900153E07002A358
:101C4000E0704E12214A70499000FC122151122D71
:101C5000A9900156E030E70B75AE1175AF10E5AEF7
:101C600020E7FB900156E020E71075AE94E5AE202A
:101C7000E7FB43AF20E5AE20E7FB900156E0247F71
:101C800060092480700B90016D80039001667406DA
:101C9000F09000FCE0FF22787FE4F6D8FD758170BB
:101CA000021CDE02064BE493A3F8E493A34003F680
:101CB0008001F208DFF48029E493A3F85407240C90
:101CC000C8C333C4540F4420C8834004F456800171
:101CD00046F6DFE4800B01020408102040809024C7
:101CE00050E47E019360BCA3FF543F30E509541FCC
:101CF000FEE493A360010ECF54C025E060A840B875
:101D0000E493A3FAE493A3F8E493A3C8C582C8CAF2
:101D1000C583CAF0A3C8C582C8CAC583CADFE9DEC5
:101D2000E780BEAE07E4FB122DA9300513A80674A8
:101D3000107E00088005C333CE33CED8F9FF801360
:101D4000AF0674207E00A807088005C333CE33CECB
:101D5000D8F9FFD3ED9FEC9E5004EB4480FB300696
:101D600004EB4440FB300421EB4420FB30050344EA
:101D700004FB75AE1175AF40E5AE20E7FB75AE1202
:101D80008BAFE5AE30E72780F975AE1475AF80E50F
:101D9000AE20E7FB75AE15AF038FAFE5AE20E7FBD6
:101DA00020050B75AE12E4F5AFE5AE20E7FB22ABE4
:101DB00007AA06EB6DFB30E00512293880031229D3
:101DC00048AA06AB07EB30E0051229388003122938
:101DD00048AA06AB07EB30E0051229388003122928
:101DE00048AA06AB07EB30E0051229388003122918
:101DF00048AA06AB07EB30E0051229388003122908
:101E000048AA06AB07EB30E00512293880031229F7
:101E100048AA06AB07EB30E00512293880031229E7
:101E200048AA06AB07EB30E00512293880031229D7
:101E300048227B007A0079009000C31202F4E490FB
:101E400000C6F0221202D49000C71202F49000CA19
:101E5000227BFF74019000DBF07FC0227BFF9000AB
:101E600053E09000BCF07D01227E007F027D007B6C
:101E7000010203EE9000C31202F49000C67404F055
:101E8000227407F07A007965A30202F490006912C7
:101E900002F490005DE0227D0190004D1202D47E9C
:101EA00000229000CF0202D49000D30202D490000E
:101EB000490202D4AD07AC06EC5455FEED5455254D
:101EC000E0FBEE33FAEC54AAFEED54AAFFEEC31386
:101ED000FEEF1312295EFDEC5433FEED543378020D
:101EE000C333CE33CED8F9FBAA06EC54CCFEED5466
:101EF000CC7802CEC313CE13D8F912295EFDEC5470
:101F00000FFEED540FC4F8540FC868FBEEC454F034
:101F100048FAEC54F0FEED54F0FFEEC4F854F0C86B
:101F200068FEEFC4540F4812295EFAECFFEAFE2265
:101F3000E49000FBF0900152E01203C81F5B001F09
:101F400060011F65031F6A051F6F061F74081F7954
:101F5000091F7E0A1F830B00001F8D1213F68026B7
:101F60001218458021121C05801C121FA880171210
:101F70000DAD80121223FC800D1216E6800812258A
:101F8000C480031227689000FBEFF080069000FBEE
:101F900074FFF0E4FF122DA99000FBE0B4FF0312E0
:101FA0002BD79000FBE0FF229000FC74FFF0900123
:101FB00053E0FEA3E0FFC39480EE9400505C9001D8
:101FC00057E07002A3E0705212211F704D9001552E
:101FD000E07002A3E0704390014FE0B4030BEF4EBA
:101FE000601D7F04122606801690014FE0B4041491
:101FF000900153E07002A3E070057F03122606E40F
:102000009000FCF09000FCE07010F5AE900153A33E
:10201000E04480F5AFE5AE20E7FB9000FCE0FF2256
:10202000900101EFF0E4900104F0A3E5A7F0900126
:1020300001E0FF6005C39403400890010474FCF0C4
:102040008042122E4B920412219C900101E0122139
:10205000BFFEAF01A312217D64016028900101E061
:1020600024FE600A04700C7F0112280A80057F019B
:1020700012283E90010212218E7401F0EF24061204
:102080002195E4F03004031221A3900105E0F5A7A7
:10209000900104E0FF22900107EFF0A3EDF0A312FE
:1020A00002F4E5AE20E7FB900107E04420F5AE9096
:1020B0000109E01460142403601C14602314702AC6
:1020C000122A2EAD01122C5D8020122A2EAC02ADF8
:1020D00001122C478014122A2EAD01122C71800A95
:1020E000122A2EAC02AD01122BC030051D90010743
:1020F000E0FFD394004013122DA975AE91E5AE20F8
:10210000E7FB43AF01E5AE20E7FB2290017212022C
:10211000D4900005020097900155E0FEA3E02290C4
:102120000151E0541F221202D49000FD0202F47407
:10213000FFF0900157E02290014FE0C3940422D2B7
:1021400005C2067D407C007F012290014FE06406BD
:1021500022F0900155A3E0547FFF229001A1740169
:10216000F0A3E4F022900153A3E090014DF022751A
:10217000F007A4245AF9740135F0FEAF01F0A3EF83
:10218000F08E832405F582E43583F583E022E0FEBA
:10219000A3E0FF2405F582E43EF5832275A71053E2
:1021A000CEFE2275A71043CE01221202F490004AFF
:1021B0000202D4E0FEA3E0FFF5828E830202F475F2
:1021C000F007A4245AF9740135F02275A72053B5FD
:1021D000F8229000EF1202F49000F21202C8900070
:1021E000F6E0FFFBE4FAF9F812275B1201DAAE021F
:1021F000AF0390019E1202D48F828E83120097FF4C
:102200009000EF1202D474FFF5F012031DEF1200DC
:10221000C412275BC0079000F6E0FBE4FAF9F8D09F
:10222000071201DA9000F21202C812275BEC4D4E41
:102230004F70AB229000FDEFF09000FF1202F4907F
:1022400000FEEDF0D39400404CE5AE20E7FB90009B
:10225000FDE0FE44E0F5AE9000FFE01460152403BD
:10226000602324FE702F9000FE122A31AD01AB06D0
:10227000022AEE9000FE122A31AC02AD019000FD60
:10228000E0FB022A729000FE122A31AD019000FD9F
:10229000E0FB122AB2229000BF1202F49000C2EDBD
:1022A000F0E4A3F09000C2E0FFA3E0FEC39F503A29
:1022B0009000BF1202D48E82758300120097C394DF
:1022C0001050057F30122B279000BF1202D49000CF
:1022D000C3E0F582758300120097FFE4FCFDFE1257
:1022E0002D6E9000C3E004F080BA7BFF7A2C793128
:1022F000022A51F582E43CF583E0FCA3E0FAECFF0E
:10230000EAFE9000FBE0FCA3E022E0FB7A009001F3
:102310005DE0FFA3E0900102CFF0A3EFF0E4229094
:10232000015F7401F02290015BE40200F8F582E4A1
:102330003CF583EEF0A3EFF022E0FD90015A02029B
:10234000D4C390015EE09DFD90015DE0229000E726
:102350001202C87B017A0179959000EC1202F49088
:1023600000E71202B0EC33500B9000EC12273F74E0
:102370002D1200C41227469000F6F07B017A0079F6
:10238000EC1226469000EC1202D4E41200C412278C
:10239000469000F6F07B017A0079EC1221D2900091
:1023A000EC1202D4227E017F519000FBEEF0A3EFED
:1023B000F0AA06F97B017D08E4FF12223475AE1104
:1023C00075AF40E5AE20E7FB9000FBE0FEA3E0F533
:1023D000828E83A3A31222F9FDF5828C83A3A3EE40
:1023E000F0A3EFF0ED24041222F3FD240412232DB8
:1023F000ED24061222F3240612232D227FFF9001E2
:1024000055E07002A3E07047900153E07002A3E032
:10241000703D900157E07004A3E0640170319001B9
:1024200051E0FE30E729541F702590014FE0B404BD
:10243000087BFF7A2F7940800D90014FE0B4060FA2
:102440007B017A01794D7D017C00122A93E4FF2201
:10245000040F0000000001130043018C0000000184
:102460000A00010E00010800010D0043018900006F
:1024700000430190000000010C0001090041018FA0
:10248000004201930000011400010B0043019EFF74
:102490002C344201A300004201A5015E4101825A91
:1024A000009000B81202F4121E329000B8121E44BE
:1024B0007424F07B017A0079BBA31202F47B157AB5
:1024C00000E4FD7F021218EF9000BC1202D49000CD
:1024D000BBE0FD1222969000BC1202D490000312C1
:1024E00000977004FE7F0122E4FEFF229000B812E4
:1024F00002F49000BBEDF0E4A3F09000B81202D417
:102500009000BBE0FF900102E4F0A3EFF0C2037F74
:102510000112132DEF601D7F027E007D007C0012F2
:1025200026C29000BCE0FF04F0EFD3941E40CB7FA6
:1025300014122E5E229000D1EAF0A3EBF0AE0575E6
:1025400015039000D6E0FD2407F5168F17AF068F10
:10255000189000D2E0F5199000D1E0F51A9000D360
:102560001202D4122B5D7B007A0079157406121EBC
:10257000551229E4E50B7F0030E6027FFF22900030
:1025800049E5A7F0122E6A122E36122DEB122E6E8E
:10259000122DF5122E3D122C85122C98122CAB12F6
:1025A000002E122DFF120076122CEE122CFB122D93
:1025B00008122E72122E76122E44122E13900049FB
:1025C000E0F5A722122117FF7DFFC39401EE9400CE
:1025D0005031A3E07004A3E064017027900153E040
:1025E0007002A3E0701D900151E0B4811690014F7C
:1025F000E0B4060F7BFF7A2F79407D017C00122A20
:1026000093E4FDAF05229000FDEFF090014FE090C4
:1026100000FEF0C39405400B9000FDE094055003CC
:1026200012279F9000FDE0FDB40506A3E090015045
:10263000F09000FDE0FE90014FF09000FEE0FF6E94
:102640006003122E25229000EF1202F49000F21285
:1026500002C89000F0E475F0031200F89000F21246
:1026600002B0C0079000F6E0FBE4FAF9F8D00712D8
:1026700001DA9000F21202C89000F21202B0EC4DA2
:102680004E4F70CE2212231F9001667406F0900107
:102690006DF075AE0F75AF8FE5AE20E7FB75AE013F
:1026A00075AF01E5AE20E7FB75AE0B75AF0FE5AE7C
:1026B00020E7FB30B1047F0380027F01122606026F
:1026C0002E849000CF1202C8AF12AE11AD10AC0F25
:1026D0009000D31202C89000D31202BCC3E5129B33
:1026E000FFE5119AFEE51099FDE50F98FC9000CFEB
:1026F0001202BCD312026C50DD229000BBEDF0122E
:102700002A517B017A0079BC9000E41202F4900017
:10271000BBE0FF14F0EF60169000E412273F1200B8
:102720007EFFE4FCFDFE122D6E122E5280E0022E82
:102730001CE475F0021202DD12010EFFAEF022E47D
:1027400075F0010202DD9000E71202B09000EBE0AC
:1027500022E475F0041202DD0202909000F20202FF
:10276000B07BFF7A2C7945227FFF900155A3E0FED4
:10277000900153A3E0FDEEC39401502290014FE07D
:10278000B4061B900157E07002A3E07011ED700ECB
:1027900012211FFEBE0107C203122AD1E4FF2290BC
:1027A0000100E5A7F0122E4B920312219C9000FF2E
:1027B0007401F09000FFE0FFC39403500B1220203F
:1027C0009000FFE004F080EB3003031221A390019E
:1027D00000E0F5A7229000FBE0FEA3E0F5828E83E7
:1027E000E0229000FBE0FEA3E0FF2404F582E43E3B
:1027F000F583E0229000FBE0FEA3E0FFF5828E83EC
:10280000A3A322C4131313540122122DA975AE11D0
:1028100075AF08E5AE20E7FB75AE91E5AE20E7FBAE
:10282000E5AF20E3F375AE1175AF08E5AE20E7FB29
:1028300075AE91E5AE20E7FBE5AF20E3F322122D64
:10284000A975AE1475AF10E5AE20E7FB75AE94E543
:10285000AE20E7FBE5AF20E4F375AE1475AF10E5ED
:10286000AE20E7FB75AE94E5AE20E7FBE5AF20E4D4
:10287000F322C0E0C0D075D000C005C006C007C2BA
:10288000CFE5122401FFE43511FEE43510FDE435F7
:102890000F8F128E118D10F50FD007D006D005D0F6
:1028A000D0D0E03290004CEDF0122A517B017A003A
:1028B000794D9000751202F490004CE0FF14F0EF97
:1028C0006011900075122731EE3395E0FDFC122D5A
:1028D0006280E5022E1C7A007921A31202F4900096
:1028E000CA7446F00B7A00794CA31202F4E41BFA86
:1028F000FD229000491202D4900005E4221202D475
:10290000E92407F9E43A22EF600943DC028FEB8FF8
:10291000EC800353DCFDEB600B43DA028BFBAF036F
:102920008FFC800353DAFDED600A43DB028DE9AFD3
:10293000058FEA2253DBFD22EAC313FEEB13FFEE01
:1029400064A0FEEF6401FF22EAC313FEEB13FF2233
:10295000E4900193F0A3F0F51490018FE022FFEED4
:102960004AFCEF4B2290003FAE11AF12E0FCA3E017
:10297000FDC3EF9DFDEE9CFCC3ED227B007A007948
:1029800021229000490202B090017CE0FFE4FCFDAE
:10299000FE229000491202F47597071224A1EF4E0F
:1029A0007BFF70107A0C79C7122A519000491202ED
:1029B000D40212617A0C79DE122A51229000491257
:1029C00002C8122982C007122982780812027DAD3E
:1029D00007C005122982781012027DAB07D005D0FE
:1029E00007022907E50B20E1FB1229504402F50BF1
:1029F000E4F09000DBE0F50A90018C1202F4E4F5BB
:102A00000E8F13D2C5E50B20E1FB22AD07ED44800C
:102A1000F5AEE5AE20E7FBAFAFEF7F00FEED14446F
:102A200080F5AEE5AE20E7FBADAFEF4DFF229001A4
:102A300008E0FFA30202D4FB7A00E0FFA3E09001CC
:102A400002CFF0A3EFF022900164E0FEA3E0FFD3F9
:102A5000229000E71202F49000E71202D412007EE6
:102A6000600F9000E712273F12007EFF122B278095
:102A7000E6228D828C831FEF600BE5AE20E7FBE53D
:102A8000AFF0A380F1E5AE20E7FBEB4420F5AEE527
:102A9000AFF02290015FE0B4011790015A1202F4E6
:102AA000AF0590015DECF0A3EFF0A37402F0E4A396
:102AB000F022A8051FEF600BE5AE20E7FBE5AFF2C3
:102AC0000880F1E5AE20E7FBEB4420F5AEE5AFF280
:102AD0002230030A9001667401F090016DF0D20477
:102AE00012213F121D23C20412213F021D23A805FB
:102AF0001FEF600AE5AE20E7FBA6AF0880F2E5AE67
:102B000020E7FBEB4420F5AEA6AF229000FFEDF0EE
:102B1000A3EAF0A3EBF0EFB402097B017A01790D8F
:102B2000122D92E4FEFF228F99E4FF0FEFB4C8FB51
:102B3000E4FF0FEFB4C8FBE4FF0FEFB4BEFB7597E3
:102B4000A522EF24C060071470087E3280067E64E0
:102B500080027E20AF06E4FCFDFE0226C2E50B20CB
:102B6000E1FBAF058F0C9001901202F4E4F509909F
:102B7000018FE04404F022EFC394034002D322EF1C
:102B80001221BFF583E9122183B40102C322D322AB
:102B90007E007F467D001203EE122E7E122E09D299
:102BA00096E4900180F0A3F022AFA790015F74013A
:102BB000F075A72043B38075A72043B3408FA722A9
:102BC0008D828C83AE071FEE600CE5AE20E7FBE440
:102BD00093F5AFA380EE22E4FF122DA990015F745C
:102BE00005F075AE1175AF60E5AE20E7FB225532FA
:102BF00046205A45524F0D0A006D732000657272CF
:102C00006F723A20009001891202D412007EFFD325
:102C1000950850038F0822430B1022AD07900193B3
:102C2000E0FEA3E0FF121DAF900193EEF0A3EFF0E2
:102C3000220D0A003031323334353637383961628B
:102C4000636465660020008D828C83AE071FEE6092
:102C50000BE5AE20E7FBE0F5AFA380EF22A805AEC1
:102C6000071FEE600BE5AE20E7FBE6F5AF0880EF4F
:102C700022A805AE071FEE600BE5AE20E7FBE2F5EC
:102C8000AF0880EF22E4F5A7F5A9E5A930E7FB75C9
:102C9000A903E5A930E7FB22AF885388AF758D30D3
:102CA000EF5440FEEF54104E428822E5C8540453BE
:102CB000C8FB75CB4475CA8043C80442C8227BFF59
:102CC0007A0C797E9000DB7402F07FC00229E45315
:102CD000C17F43C180C2C5C2C4C2C1530BFD229093
:102CE000014FE0C3940240057F051226062253F7E8
:102CF0007F75DA4275FB9675FC962253F77F75DB7C
:102D00004275E99675EA962253F77F75DC4275EBBA
:102D10009675EC962275AE91E5AE20E7FBE5AFA285
:102D2000E42275AE91E5AE20E7FBE5AFA2E22275A5
:102D3000AE91E5AE20E7FBE5AFA2E12275AE91E5ED
:102D4000AE20E7FBE5AFA2E52275AE94E5AE20E745
:102D5000FBE5AFA2E622736D627573206661696C54
:102D600020009000EB740AF012234D022A519000CB
:102D7000EB7410F012234D022A5175AE91E5AE208E
:102D8000E7FBE5AF132275AE94E5AE20E7FBE5AFB8
:102D900013229001807401F09001860202F48F8268
:102DA000758300120097F51E2275AE0E8FAFE5AE4B
:102DB00020E7FB2275AE86E5AE20E7FBAFAF2275BC
:102DC000AE82E5AE20E7FBAFAF2275AE84E5AE2064
:102DD000E7FBAFAF2275AE8EE5AE20E7FBAFAF22CB
:102DE00075AE96E5AE20E7FBAFAF22E4F5A775A47C
:102DF000D075D44C2275E34075E10575E203227568
:102E00008E1C758921438840227A0C797A121E51D2
:102E10000229E47BFF7A2F7936021ADA7BFF7A2CBB
:102E20007931022A519000FFEFF0A3EDF0229001DA
:102E300050E0FF02260675A72075C6042275A7106C
:102E400075C1302275E68175A8A02275A710E5CE60
:102E50001322122761022A517F17122A0B22900196
:102E600081EFF022900181E0FF22E4F5A72275A511
:102E7000632243C19F2243981022122CCF32E4F5E3
:102E80000B22C322222206D0F10901A1010920153B
:102E90000026FF007508954081020921150026FFD4
:102EA00000750895409102C0120100020000004028
:102EB000C410CF8A000101020301090229000101A7
:102EC00000803209040000020300000409211101FE
:102ED00000012222000705810340000507050103C8
:102EE00040000504030904011A0353696C69636F08
:102EF0006E204C61627300011203553246205A6500
:102F0000726F0001220330313233343536373839AD
:102F100041424344454600011A03484944204B6559
:102F200079626F61726400FF2EE3FF2EE7FF2EF7D8
:102F3000FF2F03FF2F17FF2EA8FF2EBAFF2F270505
:022F400000008F
:00000001FF
